:100000000C9434000C9451000C9451000C94510049
:100010000C9451000C9451000C9451000C9451001C
:100020000C9451000C9451000C9451000C9451000C
:100030000C9451000C9451000C9451000C945100FC
:100040000C9451000C9451000C94C0020C94E803E1
:100050000C9451000C9451000C9451000C945100DC
:100060000C9451000C94510011241FBECFEFD8E026
:10007000DEBFCDBF11E0A0E0B1E0E8E7FAE002C0EA
:1000800005900D92A832B107D9F721E0A8E2B1E0BE
:1000900001C01D92AF3AB207E1F70E9453000C94E1
:1000A00026050C940000CF93DF9300D0CDB7DEB7C8
:1000B0000E942F010E9476020E94800082E091E05F
:1000C0000E9435010E94C60000000E94A300892BF7
:1000D000E1F30E94D7009A83898389819A81092E4E
:1000E000000CAA0BBB0BBC01CD010E94630182E294
:1000F00091E00E94350188EE93E00E944D02E2CF2C
:10010000CF93DF9300D0CDB7DEB788EC898386E844
:100110008A838CE790E02CE730E0F9013081298177
:10012000232BFC0120838AE790E02AE730E0F901E5
:1001300030812A81232BFC01208300000F900F9037
:10014000DF91CF910895CF93DF931F92CDB7DEB7A4
:100150008AE790E0FC018081082E000C990B8074E6
:100160009927082E892F000C881F990B000C881FD7
:10017000991F89838981882319F481E090E002C066
:1001800080E090E00F90DF91CF910895CF93DF93BF
:10019000CDB7DEB78AE790E02AE730E0F9012081A9
:1001A0002064FC0120830000DF91CF910895CF935C
:1001B000DF93CDB7DEB728970FB6F894DEBF0FBE3A
:1001C000CDBF88E790E0FC018081082E000C990BE0
:1001D000AA0BBB0B89839A83AB83BC8389E790E02E
:1001E000FC018081082E000C990B982F8827092E7E
:1001F000000CAA0BBB0B29813A814B815C81822BBD
:10020000932BA42BB52B89839A83AB83BC83298141
:100210003A814B815C8185E690E0DC010E94EA0432
:10022000DC01CB0124E630E040E050E0BC01CD0130
:100230000E94CB04DA01C90181519140A109B109A1
:100240008D839E83AF83B8878D819E8128960FB65C
:10025000F894DEBF0FBECDBFDF91CF9108950E940D
:10026000AD02789408950C947104CF93DF93EC0160
:100270008991882319F00E947104FACFDF91CF9100
:100280000895CF93C82F90E024E0959587952A95FF
:10029000E1F78A3010F4805D01C0895C0E9471042E
:1002A0008C2F8F708A3010F0895C01C0805DCF91F7
:1002B0000C947104CF93C82F892F0E9441018C2F79
:1002C000CF910C9441012F923F924F925F926F9287
:1002D0007F928F929F92AF92BF92CF92DF92EF92D6
:1002E000FF920F931F93CF93DF93CDB7DEB7639742
:1002F0000FB6F894DEBF0FBECDBF6B017C0197FF38
:100300000DC0F094E094D094C094C11CD11CE11CA9
:10031000F11C81E090E09B8B8A8B02C01B8A1A8AB9
:10032000FE0131965F018E01055F1F4FF98BE88B4F
:1003300066246394712C812C912CAAE0B0E0930187
:10034000A4010E94EA041B012C01C701B60191011E
:10035000A2010E94CB049301A4010E94CB04E8896E
:10036000F9892193F98BE88B822F220F990BAA0B25
:10037000BB0BC81AD90AEA0AFB0A310142010E175F
:100380001F07D9F68A899B89892B19F08DE20E9473
:10039000710420E030E0F80182918F01811106C0E4
:1003A0002115310519F4EA15FB0529F4805D0E9439
:1003B000710421E030E00A151B0569F763960FB65A
:1003C000F894DEBF0FBECDBFDF91CF911F910F918B
:1003D000FF90EF90DF90CF90BF90AF909F908F9065
:1003E0007F906F905F904F903F902F9008950C9466
:1003F00047040C946E04FF920F931F93CF93DF93E7
:10040000EC01062FF72E18820E94470410E0882383
:10041000D9F00E941B048823B9F00E942204803284
:1004200010F089931F5FE02FFF2D482F50E021919E
:10043000222339F0022E000C330B42175307B9F771
:1004400002C08D3051F71882812FDF91CF911F911B
:100450000F91FF9008950F931F93CF93DF938C011B
:10046000EC01699170E080E090E00E9463010C5F14
:100470001F4F8EE20E947104699170E080E090E06D
:100480000E946301C017D107A1F785E291E0DF91D7
:10049000CF911F910F910C943501CF93DF9300D032
:1004A00000D0CDB7DEB71C821B822B813C81281780
:1004B0003907A8F41A82198229813A81283E3340EB
:1004C00038F429813A812F5F3F4F3A832983F4CF53
:1004D0002B813C812F5F3F4F3C832B83E6CF0F90D6
:1004E0000F900F900F90DF91CF910895219A299846
:1004F0000895299A08952998089585B1869581705F
:1005000090E008950F931F93CF93DF938C010E9487
:100510007B02E80189918823D9F08E3229F40E9468
:1005200079028AEF90E006C08D3259F40E94790278
:100530008EEE92E00E944D020E947B0284E690E0E3
:1005400004C0803239F788EE93E00E944D02E2CF7A
:10055000DF91CF911F910F9108951092C00087E60F
:1005600090E09093C5008093C400E1ECF0E088E156
:10057000808386E08093C2008081806A80830895B2
:100580001F920F920FB60F9211242F933F938F93C8
:100590009F93EF93FF9380912E01882309F4F0C07D
:1005A0008091C60090912D01992309F4E3C090EE4B
:1005B000980F9F3518F08D3009F059C020912A010D
:1005C00090912B0130E0291B3109215031092F7303
:1005D0003327232B61F0E0912B01F0E0E15DFE4F2A
:1005E000808390912B019F5F9F7390932B012091AB
:1005F00028019091290130E0291B3109215031094E
:100600002F733327232B89F0E0912901F0E0E15982
:10061000FE4F8083909129019F5F9F7390932901E2
:100620009091C10090629093C1008D3009F0C5C0D7
:10063000809128012091290190E0821B9109019766
:100640008F739927892B69F0E0912901F0E0E15936
:10065000FE4F8AE08083809129018F5F8F738093A2
:10066000290180912C018F5F80932C01A6C08830D6
:1006700011F08F37C1F580912B0120912A0190E074
:10068000821B91098F739927892B09F496C0E091F9
:100690002B01F0E0E15DFE4F808180912B018150C4
:1006A0008F7380932B01809128012091290190E084
:1006B000821B910901978F739927892B09F47DC0BB
:1006C000E0912901F0E0E159FE4F8FE780838091AE
:1006D00029018F5F8F73809329018091C10080620F
:1006E0008093C1006AC0843009F067C080912B01FB
:1006F00020912A0190E0821B91098F739927892B01
:1007000031F1E0912B01F0E0E15DFE4F80818D3011
:10071000F1F080912A0120912B0190E0821B910938
:1007200001978F739927892B91F0E0912B01F0E0CD
:10073000E15DFE4F8DE0808380912B018F5F8F7391
:1007400080932B0180912C018F5F80932C018091ED
:100750002A0120912B0190E0821B910901978F7350
:100760009927892B51F1E0912B01F0E0E15DFE4FDB
:1007700084E019C0833009F581E080932D011DC00C
:1007800080912A0120912B0190E0821B9109019711
:100790008F739927892B79F0E0912B01F0E08091FC
:1007A000C600E15DFE4F808380912B018F5F8F73C8
:1007B00080932B0102C08091C600FF91EF919F9121
:1007C0008F913F912F910F900FBE0F901F90189512
:1007D0001F920F920FB60F9211242F938F939F9316
:1007E000EF93FF93809129012091280190E0821BD3
:1007F00091098F739927892B79F0E0912801F0E016
:10080000E159FE4F80818093C600809128018F5F5F
:100810008F738093280105C08091C1008F7D8093E4
:10082000C100FF91EF919F918F912F910F900FBE7B
:100830000F901F90189580912B0190912A01891B90
:100840008F73089580912B0120912A0190E0821BE3
:1008500091098F739927892BC1F0E0912A01F0E06B
:10086000E15DFE4F808190912A019F5F9F7390937D
:100870002A0190912E01992349F08D3039F49091FD
:100880002C01915090932C01089580E0089581E00F
:1008900080932E0180912B0120912A0190E0821BF0
:1008A00091098F739927892BB1F0E0912A01F0E02B
:1008B000E15DFE4F8081843071F410922D01E09152
:1008C0002A01F0E0E15DFE4F808180912A018F5F77
:1008D0008F7380932A0180912D01089580912C01BE
:1008E00008950FB607FE0EC02091280190912901AE
:1008F00030E0291B3109215031092F733327232B75
:1009000099F30DC0209128019091290130E0291B15
:100910003109215031092F733327232B61F0E091E6
:100920002901F0E0E159FE4F8083809129018F5F1A
:100930008F73809329018091C10080628093C100F0
:1009400008951F93CF93DF93EC0180E011E0180F1F
:10095000FE01E80FF11D8081882321F00E947104BF
:10096000812FF4CFDF91CF911F9108951F93CF93E3
:10097000DF93EC0180E011E0180FFE01E80FF11D9C
:100980008491882321F00E947104812FF4CFDF919C
:10099000CF911F910895052E97FB1EF400940E949D
:1009A000E20457FD07D00E94F50407FC03D04EF483
:1009B0000C94E20450954095309521953F4F4F4F50
:1009C0005F4F089590958095709561957F4F8F4FFB
:1009D0009F4F08950E941705A59F900DB49F900DFD
:1009E000A49F800D911D11240895A1E21A2EAA1B27
:1009F000BB1BFD010DC0AA1FBB1FEE1FFF1FA217CF
:100A0000B307E407F50720F0A21BB30BE40BF50BCB
:100A1000661F771F881F991F1A9469F76095709554
:100A2000809590959B01AC01BD01CF010895A29FD7
:100A3000B001B39FC001A39F700D811D1124911DB2
:100A4000B29F700D811D1124911D0895F894FFCF60
:100A5000030B443100802500002D00040B443000BE
:100A6000802500002D0002060024F400010C6174B2
:080A70006D6567613332380047
:100A7800240053455234383620485734204A6F737F
:100A88006520536F6C69732053616C617A61720AD7
:080A98000D000A0D000D0A001B
:00000001FF
