:100000000C9434000C9451000C9451000C94510049
:100010000C9451000C9451000C9451000C9451001C
:100020000C9451000C9451000C9451000C94C10894
:100030000C9451000C9451000C94A10A0C945100A2
:100040000C9451000C9451000C944A0B0C947B0BB3
:100050000C9451000C9451000C948E010C9451009E
:100060000C9451000C94510011241FBECFEFD8E026
:10007000DEBFCDBF11E0A0E0B1E0E4EAF9E102C0EB
:1000800005900D92AC3CB107D9F723E0ACECB1E0A0
:1000900001C01D92A937B207E1F70E94D3010C9469
:1000A000BC0C0C940000CF93DF9300D0CDB7DEB72B
:1000B00081E090E09A8389831A82198289819A81EA
:1000C0000F900F90DF91CF910895CF93DF93CDB72D
:1000D000DEB762E170E080E091E00E942F0242E131
:1000E00060E071E080E490E00E94C8000000DF91D1
:1000F000CF910895CF93DF93CDB7DEB700000E9474
:100100008301892BE1F742E16CEA72E080E490E040
:100110000E9423010E945300892B59F40E9465001C
:1001200042E16CEA72E080E490E00E9423011092C8
:10013000CC010000DF91CF910895CF93DF93CDB72D
:10014000DEB70E948301892BA1F48091CC01882322
:1001500081F062E170E08CEA92E00E942F0242E1BD
:100160006CEA72E080E490E00E94C8001092CC013A
:1001700001C00000DF91CF910895CF93DF93CDB7F9
:10018000DEB781E08093CC010000DF91CF9108952C
:10019000CF93DF93CDB7DEB727970FB6F894DEBFC6
:1001A0000FBECDBF9C838B837E836D834F83000006
:1001B0000E948301892BE1F78B819C81909310022F
:1001C00080930F0281E08093110210920D021A8237
:1001D000198213C089819A812D813E81820F931FDC
:1001E000FC01208189819A8183539E4FFC012083E9
:1001F00089819A8101969A8389838F81882F90E0E3
:100200009C012150310989819A818217930714F347
:100210008F8180930E028FE590E02FE530E0F901A9
:1002200020812068FC0120838FE390E028E0FC011E
:100230002083000027960FB6F894DEBF0FBECDBF17
:10024000DF91CF910895CF93DF93CDB7DEB7279796
:100250000FB6F894DEBF0FBECDBF9C838B837E8329
:100260006D834F8300000E948301892BE1F71A827E
:10027000198237C000008FE390E0FC01808182E4A6
:1002800090E049815A812B813C81240F351F3295A2
:1002900022952F7023273F702327FC01208381E4C0
:1002A00090E03B812981230F2F70FC0120838FE395
:1002B00090E02FE330E0F90120812160FC012083F0
:1002C00089819A812D813E81820F931F20E430E045
:1002D000F9012081FC01208389819A8101969A830A
:1002E00089838F81282F30E089819A818217930733
:1002F0000CF2000027960FB6F894DEBF0FBECDBFFC
:10030000DF91CF910895CF93DF93CDB7DEB7809182
:100310001102882F90E0DF91CF9108951F920F92E4
:100320000FB60F9211248F939F93EF93FF939091A9
:100330000D0280910E02981750F58FB380910F0235
:1003400090911002E4E096958795EA95E1F782BDD9
:1003500080910F028F7081BDE0910D02F0E0E353B8
:10036000FE4F808180BD8FB7F894FA9AF99A8FBFBB
:1003700080910F0290911002019690931002809349
:100380000F0280910D028F5F80930D0203C0FB98D6
:1003900010921102FF91EF919F918F910F900FBEDC
:1003A0000F901F901895CF93DF931F92CDB7DEB7B4
:1003B0000E940D090E947A000E946A030E949C0319
:1003C0000E9462050E94DD028DE591E00E94FE021E
:1003D00085E691E00E94910589E791E00E9413096A
:1003E00082EC92E00E94130982EA91E00E941309D4
:1003F0008EEC92E00E94130982EA91E00E941309B8
:100400008EEB92E00E94130982EA91E00E941309A8
:1004100081E08093B8020E94BD000E94E8048AEA4D
:100420000E9497048BEB0E9497048CEC0E94970427
:1004300019820E9410030E9461040E949D000E9484
:100440008301892BB1F78981882399F760E071E0F6
:1004500080E090E00E94D70981E08983EACFCF93C2
:10046000DF93CDB7DEB728970FB6F894DEBF0FBE87
:10047000CDBF9E838D8378876F831A8219821C82F9
:100480001B8215C08B819C812D813E81820F931F21
:10049000FC018081882F90E029813A81820F931F8F
:1004A0009A8389838B819C8101969C838B838F8126
:1004B00098859C01225031098B819C81821793077A
:1004C00008F38F81988501972D813E81820F931FBC
:1004D00029812195FC012083000028960FB6F8940D
:1004E000DEBF0FBECDBFDF91CF910895CF93DF93D5
:1004F000CDB7DEB728970FB6F894DEBF0FBECDBFDD
:100500009E838D8378876F831A8219821C821B8257
:1005100015C08B819C812D813E81820F931FFC0130
:100520008081882F90E029813A81820F931F9A83DE
:1005300089838B819C8101969C838B832B813C8159
:100540008F8198852817390720F321E089819A81C6
:10055000892B09F020E0822F90E028960FB6F894BE
:10056000DEBF0FBECDBFDF91CF910895CF93DF9354
:1005700000D0CDB7DEB781E090E09A8389831A82FC
:10058000198289819A810F900F90DF91CF91089500
:10059000CF93DF93CDB7DEB767E370E082E191E000
:1005A0000E942F0247E362E171E080E090E00E9448
:1005B000C8000000DF91CF910895CF93DF93CDB7AE
:1005C000DEB700000E948301892BE1F747E36EEB61
:1005D00072E080E090E00E9423010E94B602892B25
:1005E00049F40E94C80247E36EEB72E080E090E0BD
:1005F0000E9423010000DF91CF9108959093130290
:100600008093120210921602109215021092140298
:1006100060E070E080E090E00E940D0B0C946F03AE
:100620008091120290911302892B09F452C080E04C
:1006300090E00E94F40A892B09F44BC080911402C7
:10064000811134C02091150230911602E0911202FE
:10065000F0911302E20FF31F80818032E9F03CF445
:1006600081111DC0109216021092150208958D324C
:1006700039F08E32A1F40E946D036AEF70E004C07D
:100680000E946D036EEE72E080E090E00E940D0B20
:1006900081E080931402089568EE73E00BC02F5F31
:1006A0003F4F309316022093150208950E946F0366
:1006B00064E670E080E090E00E940D0B109214025E
:1006C00080911502909116020196909316028093E4
:1006D00015020895219A29980895299A089529982C
:1006E000089585B18695817090E0089580319105D7
:1006F00004F527E0289FA001299F500D1124FA013D
:10070000E65EFD4F80818132A0F480E090E020E041
:10071000FA01E80FF91FE65EFD4F3081230F0196C5
:1007200087309105A9F781E090E0222321F080E055
:10073000089580E090E008956F927F928F929F924B
:10074000AF92BF92CF92DF92EF92FF920F931F93DF
:10075000CF93DF930E948301892BE1F70AE812E02F
:10076000C0E8D0E0BE0166567E4F47E0CE010E9451
:100770002301F80111928F012796C03FD10591F70F
:100780004AE1E42E42E0F42E8701C0E0D0E0D12C13
:10079000B12C77247A94CE010E947603892B41F004
:1007A000F8018081871520F4BC2E782EDD24D394A7
:1007B0002196095F1F4FC031D10569F7DD2009F48B
:1007C0006AC0B092190270921802CB2DD0E08E014F
:1007D0000F5F1F4F872C2FE0A22E37E0932E68016A
:1007E000FFE0CF22DD24C6010E947603892B61F44D
:1007F000B09217028E0101501109609780E1A82E76
:10080000B12C97E0692E3AC09C9CF0019D9CF00DA4
:100810001124E65EFD4F4081242F30E0882D90E0CA
:1008200001968F7199272817390711F7C09219027D
:1008300040931802AA940F5F1F4FAA20C9F2842E7A
:10084000CECFF701208130E0872D90E04F968F7159
:1008500099272817390731F5C0921702689CF001D3
:10086000699CF00D1124E65EFD4F70800150110966
:10087000F7E0EF0EF11C0C171D07A1F0C801B50140
:100880000E944D0C6C014C019924C4010E94760316
:10089000892BB9F607C08FE08093190210921802D5
:1008A00010921702DF91CF911F910F91FF90EF905F
:1008B000DF90CF90BF90AF909F908F907F906F9080
:1008C0000895EF92FF921F93CF93DF930E948301CD
:1008D000892B39F5EAE8F2E0C0E0D0E08191882385
:1008E000E1F017E01C9FC0011D9F900D11249C0199
:1008F000265E3D4F790167E070E0C9010E942F023A
:10090000C19FC001112447E0B70180589F4F0E944A
:10091000C800C657DD4F188204C02196C031D105EA
:10092000E9F6DF91CF911F91FF90EF900895EF923C
:10093000FF920F931F93CF93DF93E82EC09119027C
:10094000D0E02196CF70DD278091170290E00E94C1
:100950007603F82E809118028F5F813218F480930D
:10096000180202C01092180287E08C9F80018D9FB0
:10097000100D1124065E1D4F80911802F80180832E
:100980000E946405F8016183728383839483E58206
:10099000C093190267E070E0C8010E942F02C65799
:1009A000DD4F81E0888380911902909117028913AD
:1009B00008C0FF2031F090E001968F709927809356
:1009C0001702DF91CF911F910F91FF90EF90089543
:1009D000EAE1F2E0AAE8B2E08FEF4FEF5FEFBA0191
:1009E00091E08083858341835283638374839D93E5
:1009F000379622E0EA38F207A1F78FE080931902D8
:100A0000109217021092180208950F931F93CF931C
:100A1000DF9300911702C02F10E0D0E0CE010E94BA
:100A20007603892B29F02196CF701F5F0C13F5CF29
:100A3000812FDF91CF911F910F910895AF92BF92B7
:100A4000CF92DF92EF92FF920F931F93CF93DF939A
:100A50006B017C018A0159010E94050590E0A0E02C
:100A6000B0E0C816D906EA06FB06F8F48091170232
:100A700090E0C80ED91E8FE0C822DD2487E08C9D4F
:100A8000F0018D9DF00D1124E65EFD4F8181928174
:100A9000A381B481E80188839983AA83BB8385817C
:100AA000F501808381E090E002C080E090E0DF917A
:100AB000CF911F910F91FF90EF90DF90CF90BF905B
:100AC000AF9008950C94E6080F931F930E94F508C9
:100AD0000091F5021091F6022091F7023091F80290
:100AE000600F711F821F931F1F910F9108959C012A
:100AF00060E971E00E94390C892B79F0C90183709B
:100B00009927892B61F4C90164E670E00E94390CD1
:100B10009C0181E0232B21F402C081E0089580E054
:100B200008952F923F924F925F926F927F928F9291
:100B30009F92AF92BF92CF92DF92EF92FF920F936C
:100B40001F93CF93DF93CDB7DEB767970FB6F894B7
:100B5000DEBF0FBECDBF2CE0E5EAF1E0AE014F5F96
:100B60005F4F1A01DA0101900D922A95E1F7DC013D
:100B70002C91220F2056322F330F330F230F119653
:100B80003C9111973153230F2D8713962C91139776
:100B9000022E000C330B205331096AE0629FA00142
:100BA000639F500D11241496CC900C2C000CDD0882
:100BB000B0E3CB1AD108C40ED51E8601015011092D
:100BC000FC012681022E000C330B20533109E8EE84
:100BD000F3E02E9FA0012F9F500D3E9F500D11243A
:100BE000DC0117962C911797022E000C330B205323
:100BF000310974E6729F7001739FF00C1124E40EAA
:100C0000F51E18964C911897042E000C550B405366
:100C10005109649F9001659F300D1124E20EF31E6F
:100C200019962C911997F701E20FF11D27FDFA95FE
:100C3000AF0158507A011B962C911B97220F20561A
:100C4000322F330F330F230F1C963C911C973053D8
:100C5000230F298B1E962C911E97220F2056322F80
:100C6000330F330F230F1F963C911F973053230FE1
:100C70002A8B51962C915197220F2056322F330FE9
:100C8000330F230F52968C918053280F2B8BCA0160
:100C90000E947705882321F05D85523008F0860197
:100CA000C70160E971E00E94390CFC01DB0120E81A
:100CB00039E540E650EF0E94B10C2B013C01CF0119
:100CC00064E670E00E94390CFC01DB0120E032ECAC
:100CD00047E15CEB0E94B10C4B015C01DF01B69572
:100CE000A795B695A79520E83FE146E857E00E9412
:100CF000B10C6B017C01DF01A370BB2720E833E35B
:100D000041EE51E00E94B10C6C8B7D8B8E8B9F8BE2
:100D1000F1018E2F82199D85891720F48191080F8A
:100D2000111DF7CFA9892A2F30E0A0E1BEE00E9473
:100D3000A20C6D877E878F87988BBA892B2F30E026
:100D4000ACE3B0E00E94A20C2D853E854F8558890A
:100D5000260F371F481F591FDA01C9013B89830F2E
:100D6000911DA11DB11D480E591E6A1E7B1E840CCB
:100D7000951CA61CB71CC80CD91CEA1CFB1C8C8932
:100D80009D89AE89BF89C80ED91EEA1EFB1ED801F7
:100D900020E831E541E050E00E94B10CDC01CB01DC
:100DA0008C0D9D1DAE1DBF1D8093F5029093F60224
:100DB000A093F702B093F80267960FB6F894DEBFDF
:100DC0000FBECDBFDF91CF911F910F91FF90EF909C
:100DD000DF90CF90BF90AF909F908F907F906F905B
:100DE0005F904F903F902F900C940109EF92FF92EB
:100DF0000F931F93CF93DF93CDB7DEB768970FB6EE
:100E0000F894DEBF0FBECDBF7B012CE0E5EAF1E038
:100E1000DE011D9601900D922A95E1F78E010F5F7C
:100E20001F4F2CE0F80111922A95E9F70E947705EF
:100E30008A83DE011D9680E0F701408151819D91FA
:100E4000F80121918F0130E0290F311D421753071E
:100E500040F0421B530BF701518340838F5F8C306E
:100E600059F768960FB6F894DEBF0FBECDBFDF917D
:100E7000CF911F910F91FF90EF9008954F925F9245
:100E80006F927F928F929F92AF92BF92CF92DF929A
:100E9000EF92FF92CF93DF9300D0CDB7DEB72B0157
:100EA0003C0181E090E0A0E0B0E020E8421629E5B6
:100EB000520620E6620620EF720618F480E090E009
:100EC000DC0120E931E0829F5001839FB00C929FAA
:100ED000B00C112480E3A81A88EFB80AC12CD12CD9
:100EE0007601C39420E8421629E5520620E6620600
:100EF00020EF720618F4C12CD12C7601A7019601BF
:100F000060E879E580E690EF0E94290C73016201A8
:100F1000C61AD70AE80AF90A81E090E0A0E0B0E03A
:100F2000C11422ECD20627E1E2062CEBF20618F4FB
:100F300080E090E0DC0144E6489F9001499F300D3D
:100F40001124A20EB31E21E030E040E050E0C114B5
:100F500082ECD80687E1E8068CEBF80618F420E06E
:100F600030E0A90160E072EC87E19CEB0E94290C63
:100F7000A7019601261B370B480B590BCA01B90173
:100F800020E83FE146E857E00E94610C220F331F42
:100F9000220F331FA20EB31E20E833E341EE51E0CF
:100FA0000E94610C7501E20EF31E20E831E541E07C
:100FB00050E00E94610C4B015C013A832983BE0121
:100FC0006F5F7F4FC7010E94F606D82EC501B4019E
:100FD00020E13EE040E050E00E94610C29013A012E
:100FE0004B015C0161EB71E089E491E00E945508DE
:100FF0006D2D70E06F5F7F4F42E089E491E00E94C9
:101000005F0869817A816F5F7F4F42E08CE491E0F5
:101010000E945F0844E0B7018FE491E00E945F08FE
:1010200042E0B20184E591E00E945F08C501B4018D
:101030002CE330E040E050E00E94610C49015A018D
:101040006B017C0142E0B40187E591E00E945F08FA
:1010500042E0B6018AE591E00E945F0889E491E0F0
:101060000F900F90DF91CF91FF90EF90DF90CF9096
:10107000BF90AF909F908F907F906F905F904F90B8
:1010800008950F931F930E94F5080091F5021091A7
:10109000F6022091F7023091F802600F711F821F53
:1010A000931F1F910F910C943E07FC01DB018D9162
:1010B000BD01882311F08193F9CF108208959F928A
:1010C000AF92BF92CF92DF92EF92FF920F931F9356
:1010D000CF93DF9300D000D01F92CDB7DEB7FC01D5
:1010E0006B019E012F5F3F4F8E010A5F1F4FEE2461
:1010F000E394F12C9AE0992E9E9C50019F9CB00C99
:101100001124C601B5010E94390CB7010E94390CA7
:10111000D9016D939D01C61AD10867FDD39475015D
:10112000A017B10749F760E070E084E090E050E07C
:10113000D8012E918D01211105C06115710511F4A1
:10114000009741F4841795072CF4205D219361E00A
:1011500070E004C0841795070CF43196019740F7AE
:101160000F900F900F900F900F90DF91CF911F91E4
:101170000F91FF90EF90DF90CF90BF90AF909F9036
:1011800008951F920F920FB60F9211248F939F9381
:10119000AF93BF9380919A0290919B02A0919C0281
:1011A000B0919D020196A11DB11D80939A0290936A
:1011B0009B02A0939C02B0939D02BF91AF919F911F
:1011C0008F910F900FBE0F901F90189583E294EFB0
:1011D0009093890080938800109280008CE0809327
:1011E000810082E080936F0008952FB7F89460919A
:1011F0009A0270919B0280919C0290919D022FBF58
:1012000008958FB7F89410929A0210929B02109250
:101210009C0210929D028FBF08950E94370B789414
:1012200008950C94CF0BCF93DF93EC018991882321
:1012300019F00E94CF0BFACFDF91CF910895CF9391
:10124000C82F90E024E0959587952A95E1F78A309C
:1012500010F4805D01C0895C0E94CF0B8C2F8F70D1
:101260008A3010F0895C01C0805DCF910C94CF0B67
:10127000CF93C82F892F0E941F098C2FCF910C94D8
:101280001F092F923F924F925F926F927F928F929F
:101290009F92AF92BF92CF92DF92EF92FF920F9305
:1012A0001F93CF93DF93CDB7DEB763970FB6F89454
:1012B000DEBF0FBECDBF6B017C0197FF0DC0F09468
:1012C000E094D094C094C11CD11CE11CF11C81E0BD
:1012D00090E09B8B8A8B02C01B8A1A8AFE01319692
:1012E0005F018E01055F1F4FF98BE88B66246394C5
:1012F000712C812C912CAAE0B0E09301A4010E94F2
:10130000B10C1B012C01C701B6019101A2010E9481
:10131000830C9301A4010E94830CE889F98921932D
:10132000F98BE88B822F220F990BAA0BBB0BC81AE3
:10133000D90AEA0AFB0A310142010E171F07D9F642
:101340008A899B89892B11F08DE201C080E20E947D
:10135000CF0B20E030E0F80182918F01811106C0AF
:101360002115310519F4EA15FB0529F4805D0E9469
:10137000CF0B21E030E00A151B0569F763960FB625
:10138000F894DEBF0FBECDBFDF91CF911F910F91BB
:10139000FF90EF90DF90CF90BF90AF909F908F9095
:1013A0007F906F905F904F903F902F9008952F9275
:1013B0003F924F925F926F927F928F929F92AF92E5
:1013C000BF92CF92DF92EF92FF920F931F93CF9332
:1013D000DF93CDB7DEB764970FB6F894DEBF0FBECC
:1013E000CDBF8C016115710509F492C0812C912C3F
:1013F0005401CB01A0E0B0E0898B9A8BAB8BBC8B06
:10140000DE0111961D0189899A89AB89BC898816EC
:101410009906AA06BB0608F07BC0812F0E941F090F
:10142000802F807F0E941F0980E20E9411096101C4
:101430007801412C512C320141E0B601C7010E94D4
:101440002301BFEFEB1AFB0AEFEF4E1A5E0A6E0A9A
:101450007E0AFFEF8F1A9F0AAF0ABF0A89899A890D
:10146000AB89BC8988169906AA06BB0650F06801AC
:101470009FE0C922DD2400E010E032016C0C7D1CED
:1014800009C0AFEFCA1ADA0AC7018F709927892BF2
:1014900099F6EDCF0C151D0518F00615170528F067
:1014A00085EC91E00E9413090BC0F801EC19FD09CD
:1014B000E20DF31D80810E941F0980E20E94110944
:1014C0000F5F1F4F0031110529F700E010E0C01633
:1014D000D10631F080E20E9411090F5F1F4FF7CF54
:1014E0008101C801821993098415950558F4F80102
:1014F00081918F0190EE980F903608F08EE20E9455
:101500001109EFCF89EC91E00E94130987017BCF8D
:1015100064960FB6F894DEBF0FBECDBFDF91CF91BA
:101520001F910F91FF90EF90DF90CF90BF90AF9001
:101530009F908F907F906F905F904F903F902F90F3
:1015400008951F920F920FB60F9211242F933F937D
:101550008F939F932091A4023091A5028091A002C5
:101560009091A1022817390749F08091A402909127
:10157000A50201969093A5028093A4022091A60251
:101580003091A7028091A2029091A30228173907F7
:1015900049F08091A6029091A70201969093A7022C
:1015A0008093A6029F918F913F912F910F900FBE34
:1015B0000F901F90189589EF87BD82E084BD93E05E
:1015C00095BD80936E0008958230910550F4F89493
:1015D000880F991FFC01EC55FD4F80819181789413
:1015E000089580E090E008958230910598F4880F86
:1015F000991FFC01EC55FD4F20813181FC01E05623
:10160000FD4F81E090E0408151814217530721F066
:1016100080E0089580E090E008950F931F93CF93AA
:10162000DF93EC018B0180919E0290919F02892BA8
:1016300041F40E94DB0A81E090E090939F02809346
:101640009E02C230D10570F48FB7F894CC0FDD1F25
:10165000FE01E056FD4F11830083CC55DD4F19820A
:1016600018828FBFDF91CF911F910F910895109233
:10167000C00087E690E09093C5008093C400E1EC41
:10168000F0E088E1808386E08093C2008081806AF8
:10169000808308951F920F920FB60F9211242F93FB
:1016A0008F939F93EF93FF938091AA022091AB02B7
:1016B00090E0821B910901978F739927892B79F00C
:1016C000E091AB02F0E08091C600E750FD4F8083CF
:1016D0008091AB028F5F8F738093AB0202C08091C9
:1016E000C600FF91EF919F918F912F910F900FBEA8
:1016F0000F901F9018951F920F920FB60F92112402
:101700002F938F939F93EF93FF938091A902209142
:10171000A80290E0821B91098F739927892B79F099
:10172000E091A802F0E0E75CFC4F80818093C60066
:101730008091A8028F5F8F738093A80205C080916B
:10174000C1008F7D8093C100FF91EF919F918F9198
:101750002F910F900FBE0F901F9018958091AB02A4
:101760009091AA02891B8F7308958091AB022091FA
:10177000AA0290E0821B91098F739927892B69F047
:10178000E091AA02F0E0E750FD4F80819091AA021B
:101790009F5F9F739093AA02089580E008950FB60B
:1017A00007FE0EC02091A8029091A90230E0291BEB
:1017B0003109215031092F733327232B99F30DC0A1
:1017C0002091A8029091A90230E0291B31092150F3
:1017D00031092F733327232B61F0E091A902F0E048
:1017E000E75CFC4F80838091A9028F5F8F738093A9
:1017F000A9028091C10080628093C10008951F9367
:10180000CF93DF93EC0180E011E0180FFE01E80FA9
:10181000F11D8081882321F00E94CF0B812FF4CF0E
:10182000DF91CF911F9108951F93CF93DF93EC0128
:1018300080E011E0180FFE01E80FF11D849188236C
:1018400021F00E94CF0B812FF4CFDF91CF911F9118
:101850000895DB018F939F930E94B10CBF91AF91CC
:10186000A29F800D911DA39F900DB29F900D1124FA
:101870000895AA1BBB1B51E107C0AA1FBB1FA617D7
:10188000B70710F0A61BB70B881F991F5A95A9F729
:1018900080959095BC01CD01089597FB072E16F415
:1018A000009407D077FD09D00E94390C07FC05D0C1
:1018B0003EF4909581959F4F0895709561957F4F67
:1018C0000895A1E21A2EAA1BBB1BFD010DC0AA1F81
:1018D000BB1FEE1FFF1FA217B307E407F50720F099
:1018E000A21BB30BE40BF50B661F771F881F991F14
:1018F0001A9469F760957095809590959B01AC015D
:10190000BD01CF010895052E97FB1EF400940E949F
:101910009A0C57FD07D00E94610C07FC03D04EF4CF
:101920000C949A0C50954095309521953F4F4F4F10
:101930005F4F089590958095709561957F4F8F4F7B
:101940009F4F0895A29FB001B39FC001A39F700D48
:10195000811D1124911DB29F700D811D1124911DB7
:1019600008950E94A20CA59F900DB49F900DA49F76
:0C197000800D911D11240895F894FFCF04
:10197C00030B443100802500002D00040B44300083
:10198C00802500002D0002060024F400010C617477
:08199C006D656761333238000C
:1019A40041535500FF03FE030000010000C0A801DD
:1019B4006400534552004A6F736500000000000044
:1019C4000000536F6C697300000000000000417256
:1019D400697A6F6E610000000000000000006A6F09
:1019E40073736F6C555341000030302F30302F30FB
:1019F4003030302030303A30303A3030002D2D2D18
:101A0400202D2E2D0030312F30312F32303139201E
:101A140030303A30303A3030005345522034383682
:101A24002050726F6A6563742032202D204A6F73D0
:101A34006520536F6C69732053616C617A61720A1B
:101A44000D000D0A001F1C1F1E1F1E1F1F1E1F1E20
:101A54001F30302F30302F303030302030303A309B
:0C1A6400303A303000202020000D0A0035
:00000001FF
