:100000000C9445000C9462000C9462000C94620005
:100010000C9462000C9462000C9400240C94620016
:100020000C9462000C9462000C9462000C94291BE6
:100030000C9462000C9462000C946F050C946200A6
:100040000C9462000C9462000C9436240C945E258F
:100050000C9462000C9462000C943F0C0C946200AF
:100060000C9462000C94620027015001FF014901C9
:100070005A01DA01F4010E02801A9F1AAD1AB71A5A
:10008000D11ADB1AE61AFF1A091B11241FBECFEF83
:10009000D8E0DEBFCDBF14E0A0E0B1E0E2E6FFE4CF
:1000A00002C005900D92AE34B107D9F726E0AEE458
:1000B000B4E001C01D92A435B207E1F70E944126C9
:1000C0000C949B270C94000065E971E080E00E948D
:1000D0009D166FEA71E080E00E949D1663EE72E06B
:1000E00080E00E949D1680E00C94A01463EC71E007
:1000F00080E00E949D166FEA71E080E00E949D16EC
:1001000063EE72E080E00E949D1680E00C94A014E3
:100110001F93CF93DF931F92CDB7DEB71EE141E06F
:1001200050E0BE016F5F7F4F80E00E94E91489813B
:100130008F3219F0115099F709C064ED71E080E039
:100140000E94581811E0811101C010E0812F0F901A
:10015000DF91CF911F910895209148053091490575
:10016000281739075CF490934705809346050E9451
:10017000F7040E94430580E090E0089581E090E05C
:10018000089520914605309147058217930794F40E
:1001900020914C0530914D05281739075CF4909358
:1001A0004905809348050E94F7040E94430580E0BA
:1001B00090E0089581E090E0089520914C05309101
:1001C0004D05821793075CF490934B0580934A0585
:1001D0000E94F7040E94430580E090E0089581E0CA
:1001E00090E0089520914A0530914B052817390772
:1001F00094F42091480530914905821793075CF4E7
:1002000090934D0580934C050E94F7040E9443058E
:1002100080E090E0089581E090E00895CF92DF9231
:10022000EF92FF920F931F93CF93DF9300D000D0F4
:100230001F92CDB7DEB7E0915504F0915604E83037
:10024000F10508F0F2C2EC5CFF4F0C94742762E0F9
:1002500072E080E00E945818882319F083E090E053
:1002600013C066E072E080E00E945818882319F0FD
:1002700084E090E009C06AE072E080E00E945818D3
:10028000882359F085E090E090934F0480934E04CA
:10029000C0C00E94880081113DC081E090E0B9C0DB
:1002A00080E00E942315892B09F4A8C280E00E94F7
:1002B000AE18F6CF0E948800882379F361E172E0DE
:1002C00080E00E945818882309F456C06AE172E061
:1002D00080E00E945818882301F184E292E00E9495
:1002E0007C1B109254041092530461E574E080E08A
:1002F0000E94F718882389F260915104709152048A
:10030000072E000C880B990B0E94AA1B83EE92E02B
:100310000E947C1B86E090E07CC063E472E080E099
:100320000E945818882339F08DE492E00E947C1BCB
:1003300081E090E01CC06CE672E080E00E945818FA
:10034000882339F086E792E00E947C1B82E090E0EF
:100350000EC065E972E080E00E945818882309F415
:100360009CCF8FE992E00E947C1B83E090E0909309
:10037000540480935304B9CF6EEB72E080E00E9486
:100380005818882309F489CF66EC72E080E00E9457
:100390005818882319F010925004BCCF6EEC72E00C
:1003A00080E00E945818882309F477CF81E0809379
:1003B0005004B0CF0E948800882309F46ECF65ED09
:1003C00072E080E00E945818882309F466CFBE01CD
:1003D0006F5F7F4F80E00E9427158981803209F08E
:1003E0005CCF0E94F40E96CF6AED72E080E00E942E
:1003F0005818882309F451CF82E090E00AC080E0C9
:100400000E943618811103C00E94AE18F8CF87E011
:1004100090E0909356048093550407C280914E0457
:1004200090914F048330910509F0BDC163EC71E0F8
:1004300080E00E949D1666EE72E080E00E949D16AC
:100440006FEA71E080E00E949D1663EE72E080E04A
:100450000E949D1664E173E080E00E949D166FE0AB
:1004600073E080E00E94BE1663E173E080E00E94CA
:100470009D1666E173E080E00E94BE166CE173E0B9
:1004800080E00E949D1661EA75E080E00E94BE1641
:1004900064E673E080E00E949D166EE173E080E008
:1004A0000E94BE166CE173E080E00E949D166DEA2A
:1004B00075E080E00E94BE1664E673E080E00E9472
:1004C0009D166BE273E080E00E94BE166CE173E063
:1004D00080E00E949D1669EB75E080E00E94BE16E8
:1004E00064E673E080E00E949D1669E373E080E0BB
:1004F0000E94BE166CE173E080E00E949D16409160
:10050000C5055091C6056091C7057091C80580E08A
:100510000E94D11664E673E080E00E949D166AE4B2
:1005200073E080E00E94BE166CE173E080E00E9400
:100530009D1669EC75E080E00E94FC1664E673E0AD
:1005400080E00E949D1666E573E080E00E94BE1682
:100550006CE173E080E00E949D166FEC75E080E036
:100560000E94BE1663E673E080E00E949D1666E678
:1005700073E080E00E94BE166CE173E080E00E94B0
:100580009D16609146057091470580E00E943217E4
:1005900064E673E080E00E949D166FE673E080E001
:1005A0000E94BE166CE173E080E00E949D1660918F
:1005B00048057091490580E00E94321764E673E0B7
:1005C00080E00E949D1668E773E080E00E94BE16FE
:1005D0006CE173E080E00E949D1660914A05709185
:1005E0004B0580E00E94321764E673E080E00E94D1
:1005F0009D1661E873E080E00E94BE166CE173E036
:1006000080E00E949D1660914C0570914D0580E040
:100610000E94321764E673E080E00E949D166AE84B
:1006200073E080E00E94BE166CE173E080E00E94FF
:100630009D160E94521ABC0180E00E94321764E6A7
:1006400073E080E00E949D1666E973E080E00E94FE
:10065000BE166CE173E080E00E949D160E94521A63
:10066000209146053091470582179307C4F42091E5
:1006700048053091490582179307A4F420914A0553
:1006800030914B052817390784F420914C0530919F
:100690004D052817390764F46BEF71E00BC06BED63
:1006A00071E008C063EE71E005C06BEE71E002C05E
:1006B00063EF71E080E00E94BE1664E673E080E0C4
:1006C0000E949D1666ED72E080E00E94BE166CE905
:1006D00073E080E00E949D16C12CD12C760186012A
:1006E0000E94110F90E0C816D9060CF04EC09E0172
:1006F0002B5F3F4FAE014F5F5F4FC701B6010E94B6
:100700002A0F64E173E080E00E949D166FE973E0B8
:1007100080E00E94BE166CE173E080E00E949D16AE
:1007200069817A818B819C810E942212BC0180E0C8
:100730000E94BE1664E673E080E00E949D1669EA9E
:1007400073E080E00E94BE166CE173E080E00E94DE
:100750009D166D8170E080E00E94321760EB73E0BF
:1007600080E00E949D160E94110F90E001970817EB
:10077000190729F064E673E080E00E949D168FEF70
:10078000C81AD80AE80AF80AAACF6FEA73E080E02C
:100790000E949D1663EE72E080E00E949D1680E04C
:1007A0000E94A0143EC084309105C9F58091500488
:1007B000882329F00E9476000E941D2432C0809177
:1007C00053049091540481309105D9F060F0823047
:1007D0009105F1F0039729F580915104909152040D
:1007E0000E94F20006C080915104909152040E9430
:1007F000AC00892B19F40E94760013C00E9464009B
:1008000010C080915104909152040E94C100F1CF18
:1008100080915104909152040E94DD00EACF059727
:1008200051F310925604109255040F900F900F90B0
:100830000F900F90DF91CF911F910F91FF90EF904C
:10084000DF90CF90089510925604109255041092A4
:100850005004089581E090E09093560480935504ED
:10086000089508958F929F92AF92BF92EF92FF9258
:100870000F931F93CF93DF9300D000D01F92CDB77B
:10088000DEB77C018091300190913101A09132015D
:10089000B091330189839A83AB83BC8348EB52E2E6
:1008A000BE016F5F7F4F83E00E94AE1348EB52E2C0
:1008B000BE016F5F7F4F83E00E94C5170E94251322
:1008C0000E94CF198C010E9425139801AC0160E0B1
:1008D00070E083E00E947A160E9425130E94CF19CF
:1008E0008C0121E030E040EE53E0BC0183E00E9447
:1008F0007A160F5F1F4F89EB95E00E94CF199C017C
:1009000049EB55E0B80183E00E947A1689EB95E047
:100910000E94CF19080F191F21E030E040EE53E08C
:10092000B80183E00E947A16B8016F5F7F4FC7015C
:1009300024E0969587952A95E1F78A30910510F085
:10094000895C01C0805D8D8321E030E0AE014B5FAA
:100950005F4F83E00E947A16B8016E5F7F4F8E2D45
:100960008F7097012F7033272A30310510F0895C82
:1009700001C0805D8D8321E030E0AE014B5F5F4FB1
:1009800083E00E947A1683E00E94EA170E942506FF
:100990004B015C0125EF820E21E0921EA11CB11CCF
:1009A0000E942506681579058A059B05C9F783E02D
:1009B0000E945B1488ED93E00E947C1BB70180E0ED
:1009C00090E00E94AA1B83EE92E00E947C1B0F9095
:1009D0000F900F900F900F90DF91CF911F910F917B
:1009E000FF90EF90BF90AF909F908F90089581E01F
:1009F00080935704089580914205813461F4809179
:100A00004305833541F481E090E02091440525358C
:100A100021F080E002C080E090E0E2E4F5E020E038
:100A20003191230F35E0E535F307D1F7222311F09B
:100A300080E090E0089562E170E082E091E00E9441
:100A4000AF1C42E162E071E080E490E00C94850C20
:100A50000E94CE0C892BE1F742E162E475E080E46C
:100A600090E00E94B90C0E94FB04892B49F40E947B
:100A70001B0542E162E475E080E490E00E94B90C5D
:100A80001092570408950E94CE0C892B99F48091FE
:100A90005704882379F062E170E082E495E00E94D7
:100AA000AF1C42E162E475E080E490E00E94850CB6
:100AB00010925704089580915704882379F062E1D9
:100AC00070E082E495E00E94AF1C42E162E475E0D0
:100AD00080E490E00E94A20C1092570408951F92A7
:100AE0000F920FB60F9211242F933F938F939F93E2
:100AF000AF93BF93209162043091630480915A04B4
:100B000090915B042817390749F080916204909115
:100B100063040196909363048093620420916404BB
:100B20003091650480915C0490915D042817390729
:100B300049F0809164049091650401969093650456
:100B40008093640480915E0490915F04A09160049E
:100B5000B09161040196A11DB11D80935E04909334
:100B60005F04A0936004B0936104BF91AF919F9123
:100B70008F913F912F910F900FBE0F901F9018955E
:100B800089EF87BD82E084BD93E095BD7894809322
:100B90006E0010925E0410925F0410926004109236
:100BA000610408958230910550F4F894880F991FDC
:100BB000FC01EE59FB4F808191817894089580E08B
:100BC00090E008958230910598F4880F991FFC01F8
:100BD000EE59FB4F20813181FC01E65AFB4F81E049
:100BE00090E0408151814217530721F080E0089541
:100BF00080E090E008950F931F93CF93DF93EC0173
:100C00008B018091580490915904892B41F40E94E2
:100C1000C00581E090E09093590480935804C2305D
:100C2000D10570F48FB7F894CC0FDD1FFE01E65AA2
:100C3000FB4F11830083CE59DB4F198218828FBF7F
:100C4000DF91CF911F910F91089580915804909159
:100C50005904892B41F40E94C00581E090E09093F3
:100C6000590480935804F89460915E0470915F0475
:100C700080916004909161047894089584E794E0F1
:100C8000089588E794E008958CE794E0089580E85B
:100C900094E0089584E894E0089544E150E060E031
:100CA0000E960C94A41908952F923F924F925F9242
:100CB0006F927F928F929F92AF92BF92CF92DF926C
:100CC000EF92FF920F931F93CF93DF93CDB7DEB7D1
:100CD000E6970FB6F894DEBF0FBECDBF8C012A0198
:100CE0003B0119011AAA19AA0E9425064B015C01B1
:100CF00082E00E942515892BF9F40E942506DC016B
:100D0000CB0188199909AA09BB09481659066A0630
:100D10007B0608F4A7C00E9425066B017C0123E333
:100D2000C20ED11CE11CF11C0E9425066C157D052C
:100D30008E059F05C9F7DCCF48E050E0BE016D5D30
:100D40007F4F82E00E948115FFA08BA18BA78CA111
:100D50008CA78DA18DA78EA18EA7E8A442E250E0BA
:100D6000BE016F5F7F4F82E00E94811589818230D2
:100D700009F076C08F2D90E0982F88278E0D911D59
:100D80008334910509F06CC06D817E818F819885D7
:100D90000E947A27F101608371838283938346E006
:100DA00050E0B801685F7F4FCE014D960E94AE19AA
:100DB000892B09F059C0F10180819181A281B38111
:100DC000F801408151816281738184179507A607DC
:100DD000B70708F449C04481558166817781481777
:100DE00059076A077B0708F43FC044E050E0BE01A2
:100DF0006F5E7F4FC8010E960E9498198EECE82E08
:100E0000F12C41E050E0BE01615D7F4F82E00E9425
:100E10008115F1E0EF1AF108A1F7C80182969CABA9
:100E20008BABF801B696FEABEDAB1801FAE22F0ED4
:100E3000311C08976C012E019BE2490E511C3801B0
:100E4000E2E16E0E711C5801F6E1AF0EB11C4801D3
:100E50002EE1820E911C82E00E942515892B31F42F
:100E60008AA924C18FEF22C180E020C141E050E077
:100E7000BE01605D7F4F82E00E94811588A98333A7
:100E800009F4E0C0D0F48130B9F128F3833009F4DB
:100E900042C0863009F0F5C041E050E0BE016F5C11
:100EA0007F4F82E00E94811544E050E0B40182E06F
:100EB0000E948115E12CF12C51C08A3309F48DC0B8
:100EC00030F4853359F0863309F45BC0DAC08B33D4
:100ED00009F49EC08F3F09F4BECFD3C041E050E07B
:100EE000BE016F5C7F4F82E00E94811541E050E0BF
:100EF000BE016E5C7F4F0BC041E050E0BE016F5CF5
:100F00007F4F82E00E94811544E050E0B30182E00F
:100F10000E948115A0CF41E050E0BE016F5C7F4F81
:100F200082E00E94811544E050E0B50182E00E9419
:100F30008115E12CF12C89A990E00497E816F906B7
:100F40000CF089CF41E050E0BE01615D7F4F82E04F
:100F50000E9481158FEFE81AF80AEDCF89A990E079
:100F60000497E816F9060CF076CF41E050E0BE0198
:100F7000615D7F4F82E00E9481159FEFE91AF90AB7
:100F8000EDCF41E050E0BE016F5C7F4F82E00E94F8
:100F90008115F801828D811109C0838D811106C0F0
:100FA000848D811103C0858D882319F04C145D0454
:100FB00021F444E050E0B601AACF89A99FEF980F31
:100FC00099AB882309F447CF41E050E0BE01615D51
:100FD0007F4F82E00E948115F0CF41E050E0BE01DA
:100FE0006F5C7F4F82E00E94811544E050E06DA964
:100FF0007EA982E00E948115F80166A177A180A5F3
:1010000091A50E947A2766A377A380A791A723CFF3
:1010100041E050E0BE016F5C7F4F82E00E9481158D
:1010200044E050E0B10182E00E948115F80162A520
:1010300073A584A595A50E947A2762A773A784A7A4
:1010400095A709CF41E050E0BE016F5C7F4F82E081
:101050000E94811544E050E06BA97CA982E00E94C7
:101060008115F80162A173A184A195A10E947A273C
:1010700062A373A384A395A366A777A780AB91AB64
:10108000EACE41E050E0BE016F5C7F4F82E00E94FB
:10109000811589A99FEF980F99AB882309F4DBCEBE
:1010A00041E050E0BE01615D7F4FF0CFE6960FB6A4
:1010B000F894DEBF0FBECDBFDF91CF911F910F918E
:1010C000FF90EF90DF90CF90BF90AF909F908F9068
:1010D0007F906F905F904F903F902F9008950E9665
:1010E000089542960895469608954A9608954E9614
:1010F000089580E3FB0180833296842F82958F7060
:1011000090E1899F401911244A3014F4405D01C0D8
:10111000495C4293482F8111F0CF0895AF92BF925E
:10112000DF92EF92FF920F931F93CF93DF93CDB790
:10113000DEB7AA970FB6F894DEBF0FBECDBF8C0105
:10114000D62EF42EE52E40E250E060E0CE0101966E
:101150000E94A4198091340190913501A09136012B
:10116000B09137018DA39EA3AFA3B8A743E450E08D
:10117000BE016B5D7F4F82E00E94C517892B09F489
:10118000FBC081E089838A8386E08B831C82F8011F
:1011900064817581868197810E947A2769A37AA3E9
:1011A0008BA39CA344E050E0BE016F5D7F4FCE0156
:1011B00005960E949819E986FA8680E890E09AA739
:1011C00089A742E050E0BE01675D7F4FCE010B96DC
:1011D0000E9498192CE130E0AE014F5F5F4F60E054
:1011E00070E082E00E947A1640E250E060E0CE01BA
:1011F00001960E94A4195801F8E0AF0EB11C46E018
:1012000050E0B501CE0101960E94981920E130E02E
:10121000AE014F5F5F4F6CE170E082E00E947A1692
:1012200040E250E060E0CE0101960E94A4198CE2F9
:10123000E82EF12C20E230E0AE014F5F5F4FB701A6
:1012400082E00E947A1680E2E80EF11CECEEEE16C7
:10125000F10481F783E6898392E89A8393E59B837F
:101260008C8385E38D8381E08E83DF829DE3988785
:1012700097E099878A8746E050E0B501CE010B964A
:101280000E9498198CE0898B82EE93E00E94CF191E
:101290008A5F8A8B62EE73E0CE0143960E94C51985
:1012A000F8014385BE01675E7F4FC8010E9479083F
:1012B000F8014485BE01655E7F4FC8010E94790830
:1012C000F8014585BE01635E7F4FC8010E94790821
:1012D0002EE130E0AE014F5F5F4F6CEE70E082E0D8
:1012E0000E947A16F3E0DF1227C082E3898384E04C
:1012F0008A83F80196859B8397859C8390899D833B
:1013000091899E8396E39F838887828D8987838DC9
:101310008A87848D8B87858D8C872CE030E0AE01A9
:101320004F5F5F4F6AE071E082E00E947A1666E1EB
:1013300071E080E090E004C06AE071E080E090E05D
:1013400027E3298326E02A8331E03B8333E03C8393
:101350002D832FE02E832AE32F832BE328872FEF83
:10136000298729E030E0AE014F5F5F4F82E00E94A5
:101370007A1682E00E94EA17AA960FB6F894DEBFAA
:101380000FBECDBFDF91CF911F910F91FF90EF90D6
:10139000DF90BF90AF9008952F923F924F925F924F
:1013A0006F927F928F929F92AF92BF92CF92DF9275
:1013B000EF92FF920F931F93CF93DF9300D000D053
:1013C000CDB7DEB78C0120ED37E040E050E061E0C2
:1013D00070E080E090E00E94DE1CA0E0B0E0F80148
:1013E00084839583A683B78380839183A283B38309
:1013F00082E00E945B1464E470E082E00E94531477
:10140000882309F42EC10E9425064B015C01212C82
:10141000312C7801F2E4EF0EF11C48EE442E43E04B
:10142000542E612C712C52E0C52ED7018C91833043
:1014300009F4FEC081111FC0F80184819581A68145
:10144000B7810196A11DB11D84839583A683B783BF
:101450000E942506681979098A099B09A30192014E
:101460000E943327A90161E0C8010E948E0881E033
:10147000D7018C93C5C08430F1F4F8018481958143
:10148000A681B7810196A11DB11D84839583A68392
:10149000B7830E942506681979098A099B09A30167
:1014A00092010E943327A90163E0C8010E948E08BF
:1014B000D701CC92A5C0813051F5F80142AD53ADB2
:1014C00064AD75AD9E012F5F3F4FC8010E94540669
:1014D000D82EF2E08F138FC089819A81AB81BC81B5
:1014E000F80184839583A683B7830E942506681933
:1014F00079098A099B09A30192010E943327A90156
:1015000063E0C8010E948E08D701DC9279C0823066
:1015100009F076C0F80142AD53AD64AD75AD9E01E2
:101520002F5F3F4FC8010E945406D82EF5E08F135D
:101530005CC0E3E0D701EC93F80182A193A1A4A1E0
:10154000B5A1892B8A2B8B2B41F484E893E0A0E092
:10155000B0E082A393A3A4A3B5A3F80186A197A1A9
:10156000A0A5B1A5892B8A2B8B2B61F482A193A115
:10157000A4A1B5A1B695A7959795879586A397A39E
:10158000A0A7B1A7F80182A593A5A4A5B5A5892B0D
:101590008A2B8B2BA9F482A193A1A4A1B5A1AC01A4
:1015A000BD0123E076956795579547952A95D1F724
:1015B000841B950BA60BB70B82A793A7A4A7B5A76F
:1015C000F80186A197A1A0A5B1A586A797A7A0AB72
:1015D000B1AB82A593A5A4A5B5A582AB93ABA4ABF3
:1015E000B5AB22242394312C0BC0F6E08F1303C03B
:1015F000D7011C9205C0BFEFDB1202C0F7011082B9
:10160000F1E02F16310409F410CF0E942506DC0109
:10161000CB0188199909AA09BB09F80126A937A99C
:1016200040AD51AD281739074A075B0708F0FDCEDA
:1016300082E00E945B14F80184819581A681B781C4
:101640000196A11DB11D84839583A683B7830E9453
:101650002506F801FE966083718382839383C1011E
:1016600002C080E090E00F900F900F900F90DF91FC
:10167000CF911F910F91FF90EF90DF90CF90BF908F
:10168000AF909F908F907F906F905F904F903F9022
:101690002F900895CF92DF92EF92FF920F931F93B6
:1016A000CF93DF93EC016B011AA21BA21CA21DA217
:1016B0001EA21FA218A619A61AA61BA61CA61DA626
:1016C0002EAB3FAB48AF59AFEAAEFBAE0CAF1DAF90
:1016D0008C01085F1F4F46E050E060E0C8010E94A7
:1016E000A419CE010E944D0646E050E0B601C801A3
:1016F0000E949819FE01EE5BFF4F1082CE01DF9130
:10170000CF911F910F91FF90EF90DF90CF900C94AD
:10171000CC09EF92FF920F931F93780189019A01F0
:10172000AB01BC0186E694E00E944A0B1F910F9129
:10173000FF90EF900895CF92DF92EF92FF920F9378
:101740001F93CF93DF93EC010E9425066B017C0170
:101750008E01025C1F4FF80180819181A281B381CB
:10176000A7019601281B390B4A0B5B0BCA01B90173
:10177000683E33E073078105910508F441C028EE07
:1017800033E040E050E00E943327C61AD70AE80A47
:10179000F90AF801C082D182E282F3828EA59FA568
:1017A000A8A9B9A969017A01CC0CDD1CEE1CFF1CAB
:1017B0008C159D05AE05BF0528F41EA61FA618AA08
:1017C00019AA08C0821B930BA40BB50B8EA79FA769
:1017D000A8ABB9AB8AA99BA9ACA9BDA98C159D05DD
:1017E000AE05BF0528F41AAA1BAA1CAA1DAA08C088
:1017F000821B930BA40BB50B8AAB9BABACABBDAB05
:101800008EA59FA5A8A9B9A9892B8A2B8B2B69F432
:10181000FE01EE5BFF4F8081833039F484E08083EA
:10182000CE010E94CC09019602C080E090E04AA956
:101830005BA96CA97DA9452B462B472B81F4FE01A2
:10184000EE5BFF4F2081233011F0211108C0108280
:10185000CE010E944D06CE010E94CC090396DF9175
:10186000CF911F910F91FF90EF90DF90CF9008954F
:1018700086E694E00C949B0BFA9AF99A08951F92CD
:101880000F920FB60F9211242F933F934F935F93B4
:101890006F937F938F939F93AF93BF93EF93FF9338
:1018A000E091980580915705E81720F0FB98109279
:1018B00054051AC0809155059091560592BD81BD81
:1018C00081E08E0F80939805F0E0E85AFA4F80810E
:1018D00080BD8091550590915605019690935605CF
:1018E000809355050E943C0CFF91EF91BF91AF9101
:1018F0009F918F917F916F915F914F913F912F9128
:101900000F900FBE0F901F90189520915405211134
:10191000FCCF909356058093550581E08093540544
:101920001092980540935705962FA8E5B5E0FB0166
:101930008E2F891B841718F481918D93F9CF789499
:10194000FB9A0895FB01861B970B50E0DC01AE0F5C
:10195000BF1F9F01261B370B2417350748F4F99941
:10196000FECFB2BDA1BD219120BDFA9AF99AEECF6A
:101970000895209154052111FCCFFB01861B970B84
:101980002E2F261B241748F49C012E0F3F1F32BD1B
:1019900021BDF89A20B52193F3CF08958091540585
:1019A00090E0089560E070E080E090E00E94FB0528
:1019B000219A29980895299A08952998089590932D
:1019C000AA048093A9041092AD041092AC04109262
:1019D000AB0460E070E080E090E00E94FB050C94B6
:1019E000DD0C8091A9049091AA04892B09F452C0BE
:1019F00080E090E00E94E205892B09F44BC08091C1
:101A0000AB04811134C02091AC043091AD04E0915D
:101A1000A904F091AA04E20FF31F80818032E9F05B
:101A20003CF481111DC01092AD041092AC040895D5
:101A30008D3239F08E32A1F40E94DB0C6AEF70E037
:101A400004C00E94DB0C6EEE72E080E090E00E9429
:101A5000FB0581E08093AB04089568EE73E00BC052
:101A60002F5F3F4F3093AD042093AC0408950E9444
:101A7000DD0C64E670E080E090E00E94FB051092CF
:101A8000AB048091AC049091AD0401969093AD04A9
:101A90008093AC04089585B18695817090E0089597
:101AA0008031910504F527E0289FA001299F500D62
:101AB0001124FA01EF54FB4F80818132A0F480E0C1
:101AC00090E020E0FA01E80FF91FEF54FB4F30815E
:101AD000230F019687309105A9F781E090E022233A
:101AE00021F080E0089580E090E008956F927F9269
:101AF0008F929F92AF92BF92CF92DF92EF92FF921E
:101B00000F931F93CF93DF930E94CE0C892BE1F7A5
:101B100001E215E0C0E8D0E0BE016F5C7B4F47E01A
:101B2000CE010E94B90CF80111928F012796C03F97
:101B3000D10591F741EBE42E44E0F42E8701C0E09B
:101B4000D0E0D12CB12C77247A94CE010E94500D94
:101B5000892B41F0F8018081871520F4BC2E782E66
:101B6000DD24D3942196095F1F4FC031D10569F759
:101B7000DD2009F46AC0B092B0047092AF04CB2D9E
:101B8000D0E08E010F5F1F4F872C2FE0A22E37E091
:101B9000932E6801FFE0CF22DD24C6010E94500D84
:101BA000892B61F4B092AE048E0101501109609747
:101BB00080E1A82EB12C97E0692E3AC09C9CF001E0
:101BC0009D9CF00D1124EF54FB4F4081242F30E0F9
:101BD000882D90E001968F7199272817390711F702
:101BE000C092B0044093AF04AA940F5F1F4FAA2085
:101BF000C9F2842ECECFF701208130E0872D90E00E
:101C00004F968F7199272817390731F5C092AE0486
:101C1000689CF001699CF00D1124EF54FB4F70801B
:101C200001501109F7E0EF0EF11C0C171D07A1F090
:101C3000C801B5010E941F276C014C019924C40101
:101C40000E94500D892BB9F607C08FE08093B00435
:101C50001092AF041092AE04DF91CF911F910F91BB
:101C6000FF90EF90DF90CF90BF90AF909F908F90BC
:101C70007F906F900895EF92FF921F93CF93DF9321
:101C80000E94CE0C892B39F5E1E2F5E0C0E0D0E00E
:101C900081918823E1F017E01C9FC0011D9F900DEA
:101CA00011249C012F543B4F790167E070E0C9017A
:101CB0000E94AF1CC19FC001112447E0B7018058AA
:101CC0009F4F0E94850CCF5DDA4F188204C0219689
:101CD000C031D105E9F6DF91CF911F91FF90EF90D0
:101CE0000895EF92FF921F93CF93DF93E1E2F5E027
:101CF000C0E0D0E081918823E1F017E01C9FC00193
:101D00001D9F900D11249C012F543B4F790167E0DA
:101D100070E0C9010E94AF1CC19FC001112447E0BF
:101D2000B70180589F4F0E94A20CCF5DDA4F1882F6
:101D300004C02196C031D105E9F6DF91CF911F9102
:101D4000FF90EF900895EF92FF920F931F93CF9320
:101D5000DF93E82EC091B004D0E02196CF70DD274C
:101D60008091AE0490E00E94500DF82E8091AF0457
:101D70008F5F813218F48093AF0402C01092AF04D9
:101D800087E08C9F80018D9F100D11240F541B4FF5
:101D90008091AF04F80180830E944F10F8016183A5
:101DA000728383839483E582C093B00467E070E01C
:101DB000C8010E94AF1CCF5DDA4F81E0888380911B
:101DC000B0049091AE04891308C0FF2031F090E078
:101DD00001968F7099278093AE04DF91CF911F9168
:101DE0000F91FF90EF900895E1EBF4E0A1E2B5E0F0
:101DF0008FEF4FEF5FEFBA0191E0808385834183DE
:101E00005283638374839D93379625E0E132F20712
:101E1000A1F78FE08093B0041092AE041092AF044B
:101E200008950F931F93CF93DF930091AE04C02FBB
:101E300010E0D0E0CE010E94500D892B29F02196B0
:101E4000CF701F5F0C13F5CF812FDF91CF911F91C2
:101E50000F910895AF92BF92CF92DF92EF92FF92CF
:101E60000F931F93CF93DF936B017C018A0159017C
:101E70000E94110F90E0A0E0B0E0C816D906EA0673
:101E8000FB06F8F48091AE0490E0C80ED91E8FE0F6
:101E9000C822DD2487E08C9DF0018D9DF00D11247A
:101EA000EF54FB4F81819281A381B481E801888343
:101EB0009983AA83BB838581F501808381E090E0CB
:101EC00002C080E090E0DF91CF911F910F91FF90D1
:101ED000EF90DF90CF90BF90AF9008954F925F92B8
:101EE0006F927F928F929F92AF92BF92CF92DF922A
:101EF000EF92FF920F931F93CF93DF93CDB7DEB78F
:101F0000CA57D1090FB6F894DEBF0FBECDBFF82E69
:101F10008091380190913901A0913A01B0913B0133
:101F2000E9968CAF9DAFAEAFBFAFE99783E00E945B
:101F30001E14882329F06BE770E083E00E9453149D
:101F400050E3E52E6E0101E4C00ED11C63E2462E83
:101F5000512C612C712CFF2009F482C0F6010E2D4A
:101F600011920A95E9F7F6014082518262827382EA
:101F70000BE710E09E012B583F4F40E350E0B601C5
:101F800083E00E942F15C09709F06AC00E942506C1
:101F90004B015C01F9EE8F0EF3E09F1EA11CB11CFA
:101FA0000E942506681579058A059B05C9F783E017
:101FB0000E942515009709F451C08E0107581F4F44
:101FC0009E012F583F4FAC01BE016F5F7F4F83E0F2
:101FD0000E94A215C09709F041C069A5862F90E024
:101FE000A0E0B0E0BA2FA92F982F88272AA5820F4A
:101FF000911DA11DB11DBA2FA92F982F88272BA5A0
:10200000820F911DA11DB11DBA2FA92F982F8827CE
:102010004CA550E060E070E04058534169417C4B72
:102020008A019B01080F191F2A1F3B1FC901B80114
:102030000E9422120E94751089EE93E00E947C1B80
:102040000E9425130E947C1B86EF93E00E947C1B5C
:1020500083E00E945B1481E090E007C0FA947BCF9C
:1020600083E00E945B1480E090E0C658DF4F0FB61B
:10207000F894DEBF0FBECDBFDF91CF911F910F91BE
:10208000FF90EF90DF90CF90BF90AF909F908F9098
:102090007F906F905F904F9008950C944E1B0C941E
:1020A0005E1B6093990570939A0580939B059093AE
:1020B0009C050C946A1B9C0160E971E00E940B274F
:1020C000892B79F0C90183709927892B61F4C901A3
:1020D00064E670E00E940B279C0181E0232B21F431
:1020E00002C081E0089580E008952F923F924F92C0
:1020F0005F926F927F928F929F92AF92BF92CF9298
:10210000DF92EF92FF920F931F93CF93DF93CDB7A0
:10211000DEB767970FB6F894DEBF0FBECDBF2CE0D9
:10212000ECE3F1E0AE014F5F5F4F1A01DA0101907D
:102130000D922A95E1F7DC012C91220F2056322FC7
:10214000330F330F230F11963C9111973153230F07
:102150002D8713962C911397022E000C330B2053CE
:1021600031096AE0629FA001639F500D112414960B
:10217000CC900C2C000CDD08B0E3CB1AD108C40EB7
:10218000D51E860101501109FC012681022E000C8A
:10219000330B20533109E8EEF3E02E9FA0012F9F6F
:1021A000500D3E9F500D1124DC0117962C9117976E
:1021B000022E000C330B2053310974E6729F70011C
:1021C000739FF00C1124E40EF51E18964C9118978D
:1021D000042E000C550B40535109649F9001659FDC
:1021E000300D1124E20EF31E19962C911997F70168
:1021F000E20FF11D27FDFA95AF0158507A011B96A9
:102200002C911B97220F2056322F330F330F230FA1
:102210001C963C911C973053230F298B1E962C91B2
:102220001E97220F2056322F330F330F230F1F9686
:102230003C911F973053230F2A8B51962C91519725
:10224000220F2056322F330F330F230F52968C91CB
:102250008053280F2B8BCA010E945B10882321F02A
:102260005D85523008F08601C70160E971E00E9487
:102270000B27FC01DB0120E839E540E650EF0E9426
:1022800090272B013C01CF0164E670E00E940B27F0
:10229000FC01DB0120E032EC47E15CEB0E9490277F
:1022A0004B015C01DF01B695A795B695A79520E88F
:1022B0003FE146E857E00E9490276B017C01DF0177
:1022C000A370BB2720E833E341EE51E00E94902742
:1022D0006C8B7D8B8E8B9F8BF1018E2F82199D8550
:1022E000891720F48191080F111DF7CFA9892A2F92
:1022F00030E0A0E1BEE00E9481276D877E878F8756
:10230000988BBA892B2F30E0ACE3B0E00E94812794
:102310002D853E854F855889260F371F481F591F29
:10232000DA01C9013B89830F911DA11DB11D480E22
:10233000591E6A1E7B1E840C951CA61CB71CC80C5B
:10234000D91CEA1CFB1C8C899D89AE89BF89C80EEB
:10235000D91EEA1EFB1ED80120E831E541E050E01D
:102360000E949027DC01CB018C0D9D1DAE1DBF1D71
:102370008093990590939A05A0939B05B0939C0533
:1023800067960FB6F894DEBF0FBECDBFDF91CF9139
:102390001F910F91FF90EF90DF90CF90BF90AF9083
:1023A0009F908F907F906F905F904F903F902F9075
:1023B0000C946A1BEF92FF920F931F93CF93DF93BE
:1023C000CDB7DEB768970FB6F894DEBF0FBECDBFAE
:1023D0007B012CE0ECE3F1E0DE011D9601900D9213
:1023E0002A95E1F78E010F5F1F4F2CE0F801119243
:1023F0002A95E9F70E945B108A83DE011D9680E032
:10240000F701408151819D91F80121918F0130E0C8
:10241000290F311D4217530740F0421B530BF701A0
:10242000518340838F5F8C3059F768960FB6F894CC
:10243000DEBF0FBECDBFDF91CF911F910F91FF90F7
:10244000EF9008954F925F926F927F928F929F923A
:10245000AF92BF92CF92DF92EF92FF92CF93DF9332
:1024600000D0CDB7DEB72B013C0181E090E0A0E0C9
:10247000B0E020E8421629E5520620E6620620EF89
:10248000720618F480E090E0DC0120E931E0829FE0
:102490005001839FB00C929FB00C112480E3A81AC6
:1024A00088EFB80AC12CD12C7601C39420E84216DB
:1024B00029E5520620E6620620EF720618F4C12CC8
:1024C000D12C7601A701960160E879E580E690EFCE
:1024D0000E94FB2673016201C61AD70AE80AF90AAC
:1024E00081E090E0A0E0B0E0C11422ECD20627E148
:1024F000E2062CEBF20618F480E090E0DC0144E602
:10250000489F9001499F300D1124A20EB31E21E077
:1025100030E040E050E0C11482ECD80687E1E806E4
:102520008CEBF80618F420E030E0A90160E072ECD2
:1025300087E19CEB0E94FB26A7019601261B370B27
:10254000480B590BCA01B90120E83FE146E857E0C2
:102550000E943327220F331F220F331FA20EB31EF8
:1025600020E833E341EE51E00E9433277501E20E8B
:10257000F31E20E831E541E050E00E9433274B0193
:102580005C013A832983BE016F5F7F4FC7010E94C0
:10259000DA11D82EC501B40120E13EE040E050E060
:1025A0000E94332729013A014B015C016CEF73E073
:1025B00084E191E00E94C5196D2D70E06F5F7F4F3F
:1025C00042E084E191E00E94D81969817A816F5FCD
:1025D0007F4F42E087E191E00E94D81944E0B701C3
:1025E0008AE191E00E94D81942E0B2018FE191E0C6
:1025F0000E94D819C501B4012CE330E040E050E05E
:102600000E94332749015A016B017C0142E0B40169
:1026100082E291E00E94D81942E0B60185E291E0A1
:102620000E94D81984E191E00F900F90DF91CF9133
:10263000FF90EF90DF90CF90BF90AF909F908F90E2
:102640007F906F905F904F9008950F931F930E941B
:102650005E1B0091990510919A0520919B05309180
:102660009C05600F711F821F931F1F910F910C9487
:102670002212EF92FF920F931F93CF93DF938C015F
:10268000EB017A01009721F0209711F0452B29F4F6
:1026900080E194E00E947C1BFFCF65E274E00E9421
:1026A000941C892B29F480E194E00E947C1B44C097
:1026B0006FE274E0CE010E94941C892BA1F368E3C1
:1026C00074E0C7010E94941C892B69F34CE050E030
:1026D000B80181EA95E00E9498191092AC054CE08F
:1026E00050E0BE018DEA95E00E9498191092B8055D
:1026F0004CE050E0B70189EB95E00E9498191092E8
:10270000C405F80180818E7F8093C9058181809303
:10271000CA0582818093CB0588818093CC0589810D
:102720008093CD058A818093CE05DF91CF911F9153
:102730000F91FF90EF900895FFCF0E94912588237D
:1027400061F00E9498258435C1F780E494E00E94EE
:102750007C1B8FEF90E00C9432040895EF92FF926F
:102760001F93CF93DF9300D000D000D0CDB7DEB75A
:10277000182F7A0186E0E8E4F1E0DE01119601907D
:102780000D928A95E1F7FB0181818F778C8382819D
:102790008D8383818E83812F0E94E421BE016F5F30
:1027A0007F4F812F0E94D621B701812F0E94F221F5
:1027B000B701812F0E94AD2162E8812F0E947E2106
:1027C00061E0812F0E94902181E026960FB6F89457
:1027D000DEBF0FBECDBFDF91CF911F91FF90EF9075
:1027E00008950E94A92191E0823209F090E0892F9A
:1027F00008950E94A921882341F08C3131F091E0A5
:102800008A3109F490E0892F089580E008950E94AC
:10281000A92191E0843109F090E0892F08950E9468
:10282000A92191E0873109F090E0892F08950E9455
:10283000A92191E0811190E0892F08950C9417143B
:10284000CF93C82F60E10E9490216FEF8C2FCF9122
:102850000C949B210F931F93CF93DF93C82FD62FF8
:102860008A010E9420146D2F8C2F0E947E21011559
:10287000110511F0B8010AC060913105709132055F
:102880006F5F7F4F70933205609331058C2F0E94EC
:10289000AD2161E08C2F0E94902181E0DF91CF91EA
:1028A0001F910F910895AB0162E00C942A14AB01C3
:1028B00061E00C942A140C942014CF93C82F0E942A
:1028C000A921833131F462E08C2F0E94902181E0B4
:1028D00001C080E0CF9108950F931F93CF93FB0128
:1028E00090819F3F51F491819F3F91F492819F3F4E
:1028F00079F493819F3F61F41DC0911109C09181CA
:10290000911106C09281911103C09381992399F08E
:102910004115510579F08A01BF01C82F0E94E421B9
:10292000B8018C2F0E94F22164E08C2F0E9490212C
:1029300091E001C090E0892FCF911F910F910895F0
:1029400068E00C949021CF92DF92EF92FF920F9368
:102950001F93CF93C82F7B018A014130584010F05C
:1029600000E018E08C2F0E946D226C018C2F0E94D9
:10297000A921873111F08C3121F4C016D10690F3D2
:1029800002C000E010E0A801B7018C2F0E940E23C6
:1029900060E28C2F0E9490218C2F0E94A02184FD48
:1029A0000BC08C2F0E94A9218111F6CF8C2F0E9481
:1029B000201480E090E005C060E18C2F0E949B21F4
:1029C000C801CF911F910F91FF90EF90DF90CF90B2
:1029D0000895CF92DF92EF92FF921F93CF93DF93F0
:1029E000182F6B017A010E945523EC01009789F49E
:1029F000812F0E94A9218431E9F08823D9F0C1E018
:102A0000D0E08C3111F4C0E0D0E0D195C195D1096E
:102A100011C0E816F9060CF4E7011C161D0654F463
:102A200020E0AE01B601812F0E94CF2360E4812F08
:102A30000E949021CE01DF91CF911F91FF90EF90E6
:102A4000DF90CF9008950C9455230C94552321E0EA
:102A500041E050E00E94CF2381E090E00895CF92C2
:102A6000DF92EF92FF920F931F93CF93F901908122
:102A7000911109C09181911106C09281911103C0F9
:102A800093819923A1F10115110589F17A01413052
:102A9000584018F0E12C98E0F92EE114F10439F1D6
:102AA0006B01C82FBF010E94E421B8018C2F0E9446
:102AB000F221A701B6018C2F0E940E2360E28C2F19
:102AC0000E9490218C2F0E94A02184FD0AC08C2F8F
:102AD0000E94A02183FFF6CF68E18C2F0E949B21EA
:102AE00006C060E18C2F0E949B21C70102C080E0DC
:102AF00090E0CF911F910F91FF90EF90DF90CF90DA
:102B00000895EF92FF921F93CF93DF9341155105E4
:102B100089F0EA017B01182F0E9455238C179D072D
:102B200008F4EC0120E0AE01B701812F0E94CF2311
:102B3000CE0102C080E090E0DF91CF911F91FF9025
:102B4000EF9008958F929F92BF92CF92DF92EF9273
:102B5000FF920F931F93CF93DF93CDB7DEB72897E4
:102B60000FB6F894DEBF0FBECDBF452B09F47EC073
:102B700049016B01B82E0E9482237C018B2D0E949B
:102B800083218770833059F1843009F445C0823045
:102B900009F065C028E030E0AE014F5F5F4FB7013C
:102BA0008B2D0E94222088E0E80EF11C8981F4011F
:102BB00080838A8181838B8182838C8183838D81D1
:102BC00090E0982F88272E81820F911DF801918324
:102BD00080830F8110E0102F002788851AC026E01F
:102BE00030E0AE014F5F5F4FB7018B2D0E94222076
:102BF000F6E0EF0EF11C8981F40180838A818183E4
:102C00008B8182838C8183830D8110E0102F0027BC
:102C10008E81080F111D16C022E030E0AE014F5F1B
:102C20005F4FB7018B2D0E942220F2E0EF0EF11CC6
:102C3000098110E0902F88270A8110E002501109C5
:102C4000080F191F9801A601B7018B2D0E942220A1
:102C5000B701600F711F8B2D0E94712302C000E02D
:102C600010E060E48B2D0E94902102C000E010E093
:102C7000C80128960FB6F894DEBF0FBECDBFDF9116
:102C8000CF911F910F91FF90EF90DF90CF90BF9069
:102C90009F908F9008951F93CF93DF93182FEA0191
:102CA0004130584018F42097F9F002C0C0E0D8E055
:102CB000AE01812F0E940E2360E2812F0E9490219D
:102CC000812F0E94A02184FD09C0812F0E94A02194
:102CD00083FFF6CF812F0E94201406C060E1812F70
:102CE0000E949B21CE0102C080E090E0DF91CF9155
:102CF0001F910895CF92DF92EF92FF921F93CF938F
:102D0000DF93182F7B016A01E9010E946D228C1765
:102D10009D0720F4812F0E946D22EC019E01A601E7
:102D2000B701812F0E94C322CE01DF91CF911F9165
:102D3000FF90EF90DF90CF9008951F93CF93DF9394
:102D4000182FEB01CB010E94CF19AC01BE01812FDE
:102D5000DF91CF911F910C94A314CF93DF931F9217
:102D6000CDB7DEB7698341E050E0BE016F5F7F4FB2
:102D70000E94A3140F90DF91CF9108950F931F939A
:102D8000CF93C82F8B0162E20E94AD16B8018C2F41
:102D90000E949D1662E28C2FCF911F910F910C948F
:102DA000AD16CF93C82FCB01BA010E942212FC01AD
:102DB0001286BC018C2FCF910C94BE16CF93DF935B
:102DC000D82FC62F70E084E0759567958A95E1F756
:102DD0006A3010F4605D01C0695C8D2F0E94AD16F1
:102DE0006C2F6F706A3010F0695C01C0605D8D2FD0
:102DF000DF91CF910C94AD16EF92FF920F931F933A
:102E0000CF93C82F7B0162E20E94AD16F70161915A
:102E10008F018C2F0E94DE16F6E0EF0EF11C6AE3A4
:102E20008C2F0E94AD16F80161918F018C2F0E94AA
:102E3000DE160E151F0599F762E28C2FCF911F91B8
:102E40000F91FF90EF900C94AD16CF93DF93C82FA6
:102E5000D62F672F0E94DE166D2F8C2FDF91CF911A
:102E60000C94DE162F923F924F925F926F927F9258
:102E70008F929F92AF92BF92CF92DF92EF92FF928A
:102E80000F931F93CF93DF93CDB7DEB762970FB643
:102E9000F894DEBF0FBECDBF782E7B0177FF08C050
:102EA000F194E194F10881E090E0998B888B02C065
:102EB000198A188AFE0131961F018E01055F1F4F86
:102EC0006F0188248394912CA12CB12CAAE0B0E04E
:102ED0009401A5010E9490276A8B472E582E692ED7
:102EE000B7010F2C000C880B990B2A89342D452D26
:102EF000562D0E9455279401A5010E945527F601E1
:102F000021936F01E21AF10827FDF3948A88942C2B
:102F1000A52CB62C0E171F07C9F688899989892B0D
:102F200021F06DE2872D0E94AD1680E090E0F8015F
:102F300062918F01611105C0009719F42E163F06AA
:102F400041F4605DF8016083872D0E94AD1681E039
:102F500090E02016310659F762960FB6F894DEBF5E
:102F60000FBECDBFDF91CF911F910F91FF90EF90DA
:102F7000DF90CF90BF90AF909F908F907F906F9099
:102F80005F904F903F902F9008950F931F93CF9392
:102F9000FB019081911109C09181911106C092812C
:102FA000911103C09381992379F04115510561F086
:102FB0008A01BF01C82F0E94E421B8018C2F0E9412
:102FC000F22181E090E002C080E090E0CF911F917B
:102FD0000F910895CF93C82F60E20E9490218C2F0B
:102FE0000E94A02184FD0CC08C2F0E94A02183FF91
:102FF000F6CF68E18C2F0E949B2180E090E006C014
:1030000060E18C2F0E949B2181E090E0CF91089598
:10301000EF92FF920F931F93CF93DF931F92CDB741
:10302000DEB7182FE12CF12C812F0E945523E816D2
:10303000F90688F401E0970141E050E0BE016F5FBE
:103040007F4F812F0E949A2389818A3031F08FEF40
:10305000E81AF80AE9CF80E001C081E00F90DF9123
:10306000CF911F910F91FF90EF9008951F93CF93F1
:10307000DF931F92CDB7DEB7182F0E945523892BFF
:1030800089F021E041E050E0BE016F5F7F4F812F6A
:103090000E94CF23998181E09D3029F09A3019F068
:1030A00080E001C081E00F90DF91CF911F910895E2
:1030B0008F929F92AF92BF92CF92DF92EF92FF9248
:1030C0000F931F93CF93DF931F92CDB7DEB7182FC7
:1030D0005B010E9455237C01C5010E94CF19E816AF
:1030E000F90668F175016701CA18DB084701F701A5
:1030F0008081882399F001E0960141E050E0BE0113
:103100006F5F7F4F812F0E949A238FEFE81AF80A92
:10311000F40190818981981731F311C0C114D10451
:1031200061F041E050E0BE016F5F7F4F812F0E9450
:10313000E914F1E0CF1AD108F1CF81E001C080E0BD
:103140000F90DF91CF911F910F91FF90EF90DF9043
:10315000CF90BF90AF909F908F9008951F93CF9383
:10316000DF931F92CDB7DEB7182F812F0E94552312
:10317000892BC1F141E050E0BE016F5F7F4F812F8D
:103180000E94E91489818D30D1F4812F0E9455234A
:10319000892B59F321E041E050E0BE016F5F7F4F82
:1031A000812F0E94CF2389818A30E1F441E050E0F1
:1031B000BE016F5F7F4F812F0E94E91413C08A30D8
:1031C000A1F6812F0E945523892B79F221E041E05D
:1031D00050E0BE016F5F7F4F812F0E94CF23898116
:1031E0008D3021F30F90DF91CF911F910895BF9201
:1031F000CF92DF92EF92FF920F931F93CF93DF93C3
:103200001F92CDB7DEB7C82E8B01FB011182108251
:103210000E945523892B09F451C0D12CEE24E3944C
:10322000F12C2AE0B22E8C2D0E945523892BB9F166
:1032300021E041E050E0BE016F5F7F4F8C2D0E9486
:10324000CF2389818D3231F4D11038C0EE24EA9435
:10325000FE2C1CC090ED980F9A3090F4F80140813C
:103260005181B49E9001B59E300D1124082E000CA2
:10327000990BC097820F931F91838083D39406C0CC
:103280008A3069F08D3059F0803249F041E050E0E9
:10329000BE016F5F7F4F8C2D0E94E914C4CFF801EF
:1032A000208131812E9DC0012F9D900D3E9D900D5E
:1032B00011249183808381E0D11001C080E00F90C0
:1032C000DF91CF911F910F91FF90EF90DF90CF9002
:1032D000BF9008959FB7F894229B2A9A229A259A24
:1032E000239A2D988CB580618CBD8CB580648CBD83
:1032F000109233059FBF08958091330508959091F2
:103300003305911109C09FB7F8948CBD6DBD81E064
:10331000809333059FBF2A9808958EBD00000DB499
:1033200007FEFDCF8EB508952A9A109233050895B1
:10333000FB01480F591F8417950729F02191DC01E3
:103340002D93CD01F8CF0895480F591F8417950785
:1033500021F0FC016193CF01F9CF0895FB01480FE3
:10336000591F8417950759F0DC013D91CD0121913A
:10337000321740F02317A8F781E090E0089580E02D
:1033800090E008958FEF9FEF0895FC01DB018D9190
:10339000BD01882311F08193F9CF10820895FC01BB
:1033A0009F01281B390B41914111FACFC9010895A2
:1033B0009F92AF92BF92CF92DF92EF92FF920F93C4
:1033C0001F93CF93DF9300D000D01F92CDB7DEB70D
:1033D000FC016B019E012F5F3F4F8E010A5F1F4F63
:1033E000EE24E394F12C9AE0992E9E9C50019F9C30
:1033F000B00C1124C601B5010E940B27B7010E9431
:103400000B27D9016D939D01C61AD10867FDD3948E
:103410007501A017B10749F760E070E084E090E023
:1034200050E0D8012E918D01211105C06115710563
:1034300011F4009741F4841795072CF4205D219333
:1034400061E070E004C0841795070CF43196019791
:1034500040F70F900F900F900F900F90DF91CF914A
:103460001F910F91FF90EF90DF90CF90BF90AF90A2
:103470009F90089588EC80937C0086E880937A0082
:10348000089580917A00829586958695837091E063
:103490008927817090E00895EAE7F0E080818064F8
:1034A00080830895809178002091790030E0322F58
:1034B0002227A901330F660B770B9A01AB01282B4A
:1034C000A5E6B0E00E94902724E630E040E050E01E
:1034D0000E945527DA01C90181519140A109B10922
:1034E000089508950F931F93E0913405F0913505E9
:1034F000E930F10508F09BC0E45CFF4F0C947427A1
:103500008417950764F08AE494E00E94DF0C86E05B
:103510000E94A30E86E090E00E94320425C00817A6
:1035200019070CF48EC08AE494E00E94DF0C88E056
:103530000E94A30E88E090E00E9432040BC0841722
:1035400095070CF7081719070CF47BC08AE494E080
:103550000E94DF0C86E090E065C084179507FCF2BE
:103560008AE494E00E94DF0C83E090E05BC0861761
:10357000970764F08CE494E00E94DF0C85E00E94E1
:10358000A30E85E090E00E94320412C084179507D4
:103590000CF057C080EE93E00E94DF0C82E090E0D8
:1035A00041C08617970794F38CE494E00E94DF0CE7
:1035B00085E090E037C0861797070CF042C08AE498
:1035C00094E00E94DF0C84E090E02CC028173907BB
:1035D00064F08CE494E00E94DF0C87E00E94A30E6C
:1035E00087E090E00E94320411C0081719074CF5DB
:1035F00080EE93E00E94DF0C81E090E013C028177A
:1036000039079CF38CE494E00E94DF0C88E090E0A2
:1036100009C028173907ACF48AE494E00E94DF0C53
:1036200087E090E090933505809334050AC01092AE
:1036300035051092340580EE93E01F910F910C94A4
:10364000DF0C1F910F9108951092350510923405EB
:1036500008951F920F920FB60F9211248F939F938C
:10366000AF93BF938091360590913705A0913805AF
:10367000B09139050196A11DB11D80933605909337
:103680003705A0933805B0933905BF91AF919F914D
:103690008F910F900FBE0F901F90189583E294EFBB
:1036A0009093890080938800109280008CE0809332
:1036B0008100789482E080936F0008952FB7F8948A
:1036C00060913605709137058091380590913905E4
:1036D0002FBF08958FB7F8941092360510923705D2
:1036E00010923805109239058FBF08950E94232447
:1036F000789408950C94E725CF93DF93EC0189919A
:10370000882319F00E94E725FACFDF91CF91089521
:10371000CF93C82F90E024E0959587952A95E1F7FF
:103720008A3010F4805D01C0895C0E94E7258C2FEF
:103730008F708A3010F0895C01C0805DCF910C944D
:10374000E725CF93C82F892F0E94881B8C2FCF91FC
:103750000C94881B2F923F924F925F926F927F92B0
:103760008F929F92AF92BF92CF92DF92EF92FF9291
:103770000F931F93CF93DF93CDB7DEB763970FB649
:10378000F894DEBF0FBECDBF6B017C0197FF0DC06B
:10379000F094E094D094C094C11CD11CE11CF11CA5
:1037A00081E090E09B8B8A8B02C01B8A1A8AFE0103
:1037B00031965F018E01055F1F4FF98BE88B662400
:1037C0006394712C812C912CAAE0B0E09301A401A8
:1037D0000E9490271B012C01C701B6019101A20193
:1037E0000E9455279301A4010E945527E889F98971
:1037F0002193F98BE88B822F220F990BAA0BBB0B1D
:10380000C81AD90AEA0AFB0A310142010E171F073A
:10381000D9F68A899B89892B19F08DE20E94E725C8
:1038200020E030E0F80182918F01811106C021155E
:10383000310519F4EA15FB0529F4805D0E94E7259E
:1038400021E030E00A151B0569F763960FB6F8947E
:10385000DEBF0FBECDBFDF91CF911F910F91FF90C3
:10386000EF90DF90CF90BF90AF909F908F907F9020
:103870006F905F904F903F902F9008950C94BD25CE
:103880000C94E425FF920F931F93CF93DF93EC01E9
:10389000062FF72E18820E94BD2510E08823D9F04C
:1038A0000E9491258823B9F00E949825803210F05B
:1038B00089931F5FE02FFF2D482F50E02191222395
:1038C00039F0022E000C330B42175307B9F702C030
:1038D0008D3051F71882812FDF91CF911F910F9179
:1038E000FF9008950F931F93CF93DF938C01EC010A
:1038F000699170E080E090E00E94AA1B0C5F1F4F6E
:103900008EE20E94E725699170E080E090E00E94DD
:10391000AA1BC017D107A1F783EE92E0DF91CF91E8
:103920001F910F910C947C1BDC01FB019D9199234D
:1039300041F08191891784F09817C4F78FEF9FEFBA
:10394000089581E090E02081211102C080E090E0A4
:10395000919581959109089581E090E00895DC01A9
:1039600090E020E061507109422F50E0FD01E40F2A
:10397000F51F4617570720F48081980F2F5FF4CF6B
:10398000919590830895611571058105910541F028
:1039900060932C0170932D0180932E0190932F0141
:1039A000211531054105510541F02093280130933F
:1039B000290140932A0150932B0108954F925F9261
:1039C0006F927F928F929F92AF92BF92CF92DF922F
:1039D000EF92FF92CF93DF9300D000D0CDB7DEB748
:1039E0002B013C0129833A834B835C83C0902801DF
:1039F000D0902901E0902A01F0902B01A7019601B7
:103A000044275527A9E6B0E90E9490276701EE24D4
:103A1000FF244B015C018C0C9D1CAE1CBF1C8092D2
:103A2000280190922901A0922A01B0922B01C09006
:103A30002C01D0902D01E0902E01F0902F01A701D4
:103A4000960144275527A0E5B6E40E949027670118
:103A5000EE24FF24C60ED71EE81EF91EC0922C01CC
:103A6000D0922D01E0922E01F0922F01D4019927DE
:103A70008827BC01CD016C0D7D1D8E1D9F1D2981E8
:103A80003A814B815C8124193509460957090E9406
:103A90003327CB01840D951D0F900F900F900F9041
:103AA000DF91CF91FF90EF90DF90CF90BF90AF90DC
:103AB0009F908F907F906F905F904F900895CF93DD
:103AC000DB01FC0120812D3221F401966FEF7FEFA5
:103AD00002C061E070E011961C921E92FC01CAE0E7
:103AE00020818D919C9111972223C1F0C89FA00144
:103AF000C99F500D112411965C934E93219180ED36
:103B0000820F8A30B8F4022E000C330B2053310997
:103B1000240F351F11963C932E93E2CF869F900180
:103B2000879F300D969F300D11242D933C9381E09B
:103B300090E002C080E090E0CF91089580919D05D3
:103B4000833561F480919E05853441F481E090E0F5
:103B500020919F05223521F080E002C080E090E0B6
:103B6000EDE9F5E020E03191230F35E0E53DF30785
:103B7000D1F7222311F080E090E00895CF93DF93F6
:103B8000CDB7DEB7E7970FB6F894DEBF0FBECDBF57
:103B900087E3EEE4F1E0DE01119601900D928A9543
:103BA000E1F767E370E0CE0101960E94AF1C47E3A6
:103BB000BE016F5F7F4F80E090E00E94850CE7962A
:103BC0000FB6F894DEBF0FBECDBFDF91CF91089541
:103BD0000E94CE0C892BE1F747E36DE975E080E0A8
:103BE00090E00E94B90C0E949E1D892B49F40E940E
:103BF000BE1D47E36DE975E080E090E00C94B90CE0
:103C00000895AF92BF92DF92EF92FF920F931F93AE
:103C1000CF93DF93EC01D62EE72E8A0180913A05EF
:103C20008333F9F4A62EB72E7E01E40EF51ECE15D1
:103C3000DF0509F45EC062E080E50E947F1980EF35
:103C40000E948D198D2F0E948D198C2F0E948D1925
:103C50002196F50181915F010E948D190E949419AE
:103C6000E6CF62E080E50E947F19C115F4E0DF072E
:103C700018F4FC2EC4E00DC0C11528E0D20758F49A
:103C8000FC2ED45033E0D695C7953A95E1F7C07E27
:103C9000CC6080E018C0CE019770892FFC2EC11532
:103CA000E0E6DE0740F426E0D695C7952A95E1F7D1
:103CB000C07EC46108C0D05696E0D695C7959A9547
:103CC000E1F7C07ECC610E948D198F2D0E948D1965
:103CD0008C2F0E948D19CD2DDE2D7E01E00EF11E60
:103CE000CE15DF0521F089910E948D19F9CF0E9430
:103CF0009419C801DF91CF911F910F91FF90EF9020
:103D0000DF90BF90AF900895CF93DF931F92CDB710
:103D1000DEB7698341E050E0BE016F5F7F4F0E94D4
:103D2000011E0F90DF91CF9108958F929F92AF92D5
:103D3000BF92CF92DF92EF92FF920F931F93CF9398
:103D4000DF93EC018B016A017901FA01608181E066
:103D500090E00E94841EF601618182E090E00E9462
:103D6000841EF601628183E090E00E94841EF601C9
:103D7000638184E090E00E94841E0E9425064B012E
:103D80005C01F2E08F0E911CA11CB11C0E94250663
:103D9000681579058A059B05C9F7688189E090E077
:103DA0000E94841E69818AE090E00E94841E6A81DC
:103DB0008BE090E00E94841E6B818CE090E00E947A
:103DC000841E6C818DE090E00E94841E6D818EE0E7
:103DD00090E00E94841E0E9425064B015C0122E0B7
:103DE000820E911CA11CB11C0E9425066815790544
:103DF0008A059B05C9F7F701608185E090E00E9484
:103E0000841EF701618186E090E00E94841EF70124
:103E1000628187E090E00E94841EF701638188E060
:103E200090E00E94841E0E9425066B017C01F2E056
:103E3000CF0ED11CE11CF11C0E9425066C157D05DE
:103E40008E059F05C9F7F80160818FE090E00E9420
:103E5000841EF801618180E190E00E94841EF801D7
:103E6000628181E190E00E94841EF801638182E119
:103E700090E00E94841E0E9425066B017C01F2E006
:103E8000CF0ED11CE11CF11C0E9425066C157D058E
:103E90008E059F05C9F765E58AE190E00E94841EC2
:103EA00065E58BE190E00E94841E80E0DF91CF9178
:103EB0001F910F91FF90EF90DF90CF90BF90AF9048
:103EC0009F908F900895AF92BF92DF92EF92FF92F2
:103ED0000F931F93CF93DF93EC01D62EE72E8A0129
:103EE00080913A05833301F5A62EB72E7E01E40EAC
:103EF000F51ECE15DF0509F460C062E080E50E9482
:103F00007F198FE00E948D198D2F0E948D198C2FA3
:103F10000E948D19219680E00E948D19F5018193F0
:103F20005F010E949419E5CF62E080E50E947F194D
:103F3000C115F4E0DF0718F4FC2EC0E00DC0C11578
:103F400028E0D20758F4FC2ED45033E0D695C7951C
:103F50003A95E1F7C07EC86080E018C0CE01977046
:103F6000892FFC2EC115E0E6DE0740F426E0D69549
:103F7000C7952A95E1F7C07EC06108C0D05696E08B
:103F8000D695C7959A95E1F7C07EC8610E948D19B4
:103F90008F2D0E948D198C2F0E948D19CD2DDE2D15
:103FA0007E01E00EF11ECE15DF0529F080E00E94B3
:103FB0008D198993F8CF0E949419C801DF91CF9190
:103FC0001F910F91FF90EF90DF90BF90AF900895F9
:103FD000CF93DF931F92CDB7DEB741E050E0BE0133
:103FE0006F5F7F4F0E94631F89810F90DF91CF9198
:103FF000089590E00496982F8827860F971F0C94B9
:10400000E81F9B0190E00496982F8827642F820F69
:10401000931F0E94841E0895FB01BA0190E004964C
:10402000982F8827A9018E0F9F1F0C94631FFB01F7
:10403000BA0190E00496982F8827A9018E0F9F1F40
:104040000C94011EAF92BF92CF92DF92EF92FF923B
:104050000F931F93CF93DF9300D0CDB7DEB77A8352
:104060006983BA01A901A981BA81B770E82FF0E08C
:10407000EE0FFF1FEB57FE4FE080F180CD018E0D5C
:104080009F1D9D01240F351F2130384080F06A01AB
:104090005B0100E018E00A1B1B0BA8010E94631FD4
:1040A000A601401B510BB501600F711FC7010F9096
:1040B0000F90DF91CF911F910F91FF90EF90DF90C4
:1040C000CF90BF90AF900C94631F682F80E090E07A
:1040D0000C94841E80E090E00C94E81FCF92DF9255
:1040E000EF92FF9283E380933A0560E880E090E0EE
:1040F0000E94841E0E9425066B017C0122E0C20EF4
:10410000D11CE11CF11C0E9425066C157D058E0555
:104110009F05C9F780E10E9465200E946A208031D6
:1041200021F010923A0580E00FC082E10E946520E4
:104130000E946A208231A9F780E00E9465200E94D7
:104140006A208111EECF81E0FF90EF90DF90CF9059
:104150000895CF92DF92EF92FF9287E380933A0522
:1041600060E880E090E00E94841E0E9425066B01BA
:104170007C0122E0C20ED11CE11CF11C0E9425062C
:104180006C157D058E059F05C9F788E00E946520A6
:104190000E946A20883021F010923A0580E00FC01A
:1041A00080E10E9465200E946A208031A9F780E0AA
:1041B0000E9465200E946A208111EECF81E0FF906D
:1041C000EF90DF90CF9008950E946E20811102C081
:1041D0000C94A920089544E050E0BC0181E090E0F7
:1041E0000C94011E44E050E0BC0181E090E00C948E
:1041F000631F44E050E0BC0185E090E00C94011E98
:1042000044E050E0BC0185E090E00C94631F46E080
:1042100050E0BC0189E090E00C94011E46E050E0C3
:10422000BC0189E090E00C94631F44E050E0BC01C5
:104230008FE090E00C94011E44E050E0BC018FE060
:1042400090E00C94631F682F85E190E00C94841E2D
:1042500085E190E00C94E81FCF93C82F692F87E188
:1042600090E00E94841E6C2F88E190E0CF910C9426
:10427000841ECF93DF9387E190E00E94E81FC82F50
:10428000D0E0DC2FCC2788E190E00E94E81F9E015F
:10429000280F311DC901DF91CF91089544E050E00E
:1042A000BC018AE290E00C94011E44E050E0BC01A5
:1042B0008AE290E00C94631FCF93C82F692F8EE29F
:1042C00090E00E94841E6C2F8FE290E0CF910C94BE
:1042D000841ECF93DF938EE290E00E94E81FC82FE8
:1042E000D0E0DC2FCC278FE290E00E94E81F9E01F7
:1042F000280F311DC901DF91CF910895462F60E04D
:1043000070E00C94012060E070E00C94F91F462FDF
:1043100061E070E00C94012061E070E00C94F91F02
:10432000CF93C82F0E9487218C2F0E948C2181114E
:10433000FBCFCF910895462F62E070E00C940120EE
:1043400062E070E00C94F91F462F63E070E00C947B
:10435000012063E070E00C94F91FCF93DF93C82F26
:10436000D62F472F64E070E00E9401204D2F65E0BA
:1043700070E08C2FDF91CF910C9401201F93CF938D
:10438000DF93182F64E070E00E94F91FC82FD0E07F
:1043900065E070E0812F0E94F91FDC2FCC279E0181
:1043A000282BC901DF91CF911F910895AB0126E021
:1043B00030E066E070E00C941720AB0126E030E0BE
:1043C00066E070E00C940C20AB0124E030E06CE07F
:1043D00070E00C941720AB0124E030E06CE070E05A
:1043E0000C940C20CF93DF93C82FD62F472F60E17A
:1043F00070E00E9401204D2F61E170E08C2FDF9171
:10440000CF910C9401201F93CF93DF93182F60E17D
:1044100070E00E94F91FC82FD0E061E170E0812FA9
:104420000E94F91FDC2FCC279E01282BC901DF91A8
:10443000CF911F910895CF93DF93C82FD62F472F89
:1044400062E170E00E9401204D2F63E170E08C2F4B
:10445000DF91CF910C9401201F93CF93DF93182FFE
:1044600062E170E00E94F91FC82FD0E063E170E0C4
:10447000812F0E94F91FDC2FCC279E01282BC90118
:10448000DF91CF911F910895CF93DF93C82FD62F3F
:10449000472F60E270E00E9401204D2F61E270E042
:1044A0008C2FDF91CF910C9401201F93CF93DF933A
:1044B000182F60E270E00E94F91FC82FD0E061E27F
:1044C00070E0812F0E94F91FDC2FCC279E01282B42
:1044D000C901DF91CF911F910895FF920F931F9310
:1044E000CF93DF93F82EC0E0D0E08F2D0E945522AD
:1044F0008C01892B21F08F2D0E945522EC01C017D1
:10450000D10799F7CE01DF91CF911F910F91FF90C5
:104510000895CF93DF93C82FD62F472F62E270E024
:104520000E9401204D2F63E270E08C2FDF91CF912C
:104530000C9401201F93CF93DF93182F62E270E059
:104540000E94F91FC82FD0E063E270E0812F0E9423
:10455000F91FDC2FCC279E01282BC901DF91CF91B9
:104560001F910895CF93DF93C82FD62F472F64E272
:1045700070E00E9401204D2F65E270E08C2FDF91EA
:10458000CF910C9401209F92AF92BF92CF92DF9275
:10459000EF92FF920F931F93CF93DF93982E7B019F
:1045A0006A0189010E949A22E80EF91E970137706C
:1045B000E92DF0E0EE0FFF1FE357FE4FA080B18022
:1045C000C9018A0D9B1DA901400F511F4130584060
:1045D00080F0C0E0D8E0C21BD30BAE01B6010E9450
:1045E000011EA8014C1B5D0BB6016C0F7D1FC501A0
:1045F00002C0A801B6010E94011EB701600F711F21
:10460000892DDF91CF911F910F91FF90EF90DF9057
:10461000CF90BF90AF909F900C94B2229A01AB01C3
:1046200060E070E00C94C3221F93CF93DF93182FA8
:1046300064E270E00E94F91FC82FD0E065E270E0EC
:10464000812F0E94F91FDC2FCC279E01282BC90146
:10465000DF91CF911F910895CF93DF93C82FD62F6D
:10466000472F66E270E00E9401204D2F67E270E064
:104670008C2FDF91CF910C9401201F93CF93DF9368
:10468000182F66E270E00E94F91FC82FD0E067E2A1
:1046900070E0812F0E94F91FDC2FCC279E01282B70
:1046A000C901DF91CF911F910895FF920F931F933E
:1046B000CF93DF93F82EC0E0D0E08F2D0E943D23F2
:1046C0008C01892B21F08F2D0E943D23EC01C01716
:1046D000D10799F7CE01DF91CF911F910F91FF90F4
:1046E0000895CF93DF93C82FD62F472F68E270E04D
:1046F0000E9401204D2F69E270E08C2FDF91CF9155
:104700000C9401201F93CF93DF93182F68E270E081
:104710000E94F91FC82FD0E069E270E0812F0E944B
:10472000F91FDC2FCC279E01282BC901DF91CF91E7
:104730001F910895CF92DF92EF92FF920F931F93F4
:10474000CF93DF93182F6B017A01E9010E94822336
:104750008C0F9D1FEC01D7709701A601BE01812F20
:104760000E942220011112C0BE016E0D7F1D812FFB
:104770000E94712360E4812FDF91CF911F910F91EF
:10478000FF90EF90DF90CF900C949021DF91CF912C
:104790001F910F91FF90EF90DF90CF9008950F93AE
:1047A000022F20E030E00E949A230F910895CF93CA
:1047B000DF93C82FD62F472F6AE270E00E940120B6
:1047C0004D2F6BE270E08C2FDF91CF910C94012084
:1047D0001F93CF93DF93182F6AE270E00E94F91FB6
:1047E000C82FD0E06BE270E0812F0E94F91FDC2F10
:1047F000CC279E01282BC901DF91CF911F910895ED
:104800001F920F920FB60F9211240E94DB0C82E0D0
:104810000E94A30E0E94710E0E945B05FBCF9FB702
:10482000F894A895E0E6F0E08081886180838FE4C9
:1048300080839FBF0895A8950895809160008B7034
:1048400080936000FFCF1092C00087E690E09093C5
:10485000C5008093C400E1ECF0E088E1808386E04D
:104860008093C2008081806A808308951F920F9296
:104870000FB60F9211242F933F938F939F93EF9333
:10488000FF9380914105882309F4F0C08091C60010
:1048900090914005992309F4E3C090EE980F9F355D
:1048A00018F08D3009F059C020913D0590913E05DA
:1048B00030E0291B3109215031092F733327232B75
:1048C00061F0E0913E05F0E0EC52FA4F8083909168
:1048D0003E059F5F9F7390933E0520913B0590910D
:1048E0003C0530E0291B3109215031092F73332752
:1048F000232B89F0E0913C05F0E0EC5EF94F8083DA
:1049000090913C059F5F9F7390933C059091C100EF
:1049100090629093C1008D3009F0C5C080913B0535
:1049200020913C0590E0821B910901978F73992794
:10493000892B69F0E0913C05F0E0EC5EF94F8AE0EC
:10494000808380913C058F5F8F7380933C058091BD
:104950003F058F5F80933F05A6C0883011F08F37E9
:10496000C1F580913E0520913D0590E0821B9109A3
:104970008F739927892B09F496C0E0913E05F0E0EA
:10498000EC52FA4F808180913E0581508F73809365
:104990003E0580913B0520913C0590E0821B9109EA
:1049A00001978F739927892B09F47DC0E0913C050D
:1049B000F0E0EC5EF94F8FE7808380913C058F5FDC
:1049C0008F7380933C058091C10080628093C10009
:1049D0006AC0843009F067C080913E0520913D0592
:1049E00090E0821B91098F739927892B31F1E09117
:1049F0003E05F0E0EC52FA4F80818D30F1F080916D
:104A00003D0520913E0590E0821B910901978F732F
:104A10009927892B91F0E0913E05F0E0EC52FA4F96
:104A20008DE0808380913E058F5F8F7380933E057C
:104A300080913F058F5F80933F0580913D052091D8
:104A40003E0590E0821B910901978F739927892B6E
:104A500051F1E0913E05F0E0EC52FA4F84E019C0CC
:104A6000833009F581E0809340051DC080913D05AC
:104A700020913E0590E0821B910901978F73992741
:104A8000892B79F0E0913E05F0E08091C600EC5270
:104A9000FA4F808380913E058F5F8F7380933E0530
:104AA00002C08091C600FF91EF919F918F913F913D
:104AB0002F910F900FBE0F901F9018951F920F927D
:104AC0000FB60F9211242F938F939F93EF93FF9321
:104AD00080913C0520913B0590E0821B91098F73EA
:104AE0009927892B79F0E0913B05F0E0EC5EF94FD6
:104AF00080818093C60080913B058F5F8F73809388
:104B00003B0505C08091C1008F7D8093C100FF915E
:104B1000EF919F918F912F910F900FBE0F901F904B
:104B2000189580913E0590913D05891B8F730895DE
:104B300080913E0520913D0590E0821B91098F7385
:104B40009927892BC1F0E0913D05F0E0EC52FA4F36
:104B5000808190913D059F5F9F7390933D0590915B
:104B60004105992349F08D3039F490913F059150DA
:104B700090933F05089580E0089581E0809341057A
:104B800080913E0520913D0590E0821B91098F7335
:104B90009927892BB1F0E0913D05F0E0EC52FA4FF6
:104BA0008081843071F410924005E0913D05F0E081
:104BB000EC52FA4F808180913D058F5F8F73809317
:104BC0003D0580914005089580913F0508950FB6F9
:104BD00007FE0EC020913B0590913C0530E0291B5B
:104BE0003109215031092F733327232B99F30DC03D
:104BF00020913B0590913C0530E0291B3109215063
:104C000031092F733327232B61F0E0913C05F0E04D
:104C1000EC5EF94F808380913C058F5F8F738093AA
:104C20003C058091C10080628093C10008951F936C
:104C3000CF93DF93EC0180E011E0180FFE01E80F45
:104C4000F11D8081882321F00E94E725812FF4CF78
:104C5000DF91CF911F9108951F93CF93DF93EC01C4
:104C600080E011E0180FFE01E80FF11D8491882308
:104C700021F00E94E725812FF4CFDF91CF911F9182
:104C80000895CF93DF9300D000D0CDB7DEB70E9458
:104C9000761B0E94D20C0E94E81D0E9428050E94EB
:104CA000760D0E944D100E946A190E943A1A0E94C5
:104CB000E4200E94711A0E94230442EB53E06AEB45
:104CC00073E088EC93E00E94391319821A821B82E8
:104CD0001C829E012F5F3F4FA901B90189EC95E02D
:104CE0000E94951E00EA1FE020E030E040E65AEE08
:104CF00060E070E089EC95E00E94890B892B91F3CC
:104D00008DEC93E00E947C1B0E943E060E94721C68
:104D10000E9441067C010E9444068C010E943E06CE
:104D20009701A801BC0189EC95E00E94951E83E0E3
:104D30000E94A30E85E00E946E0F84E00E94A30EE5
:104D40000E940F2480E00E94A30E80E090E00E9469
:104D500032040E949D130E944C1A68E873E181E0BE
:104D600090E00E94FB050E941B240E94F10C81E050
:104D700090E00E94E205892BC9F00E94521A00912E
:104D80004C0510914D0520914A0530914B054091FD
:104D900048055091490560914605709147050E946C
:104DA000721A0E944C1A68EE73E0D9CF80E00E941C
:104DB0001714882349F060E97FE180E00E945714CE
:104DC00080E00E945D14CFCF80E00E94231518166A
:104DD00019061CF40E940E01C6CF0E94CE0C892B2E
:104DE00011F40E943B0E0E94CE0C892B09F0BBCF20
:104DF0000E944305B8CFDB018F939F930E949027B9
:104E0000BF91AF91A29F800D911DA39F900DB29F66
:104E1000900D11240895AA1BBB1B51E107C0AA1FC6
:104E2000BB1FA617B70710F0A61BB70B881F991F4B
:104E30005A95A9F780959095BC01CD01089597FBEF
:104E4000072E16F4009407D077FD09D00E940B2797
:104E500007FC05D03EF4909581959F4F089570957D
:104E600061957F4F0895A1E21A2EAA1BBB1BFD017D
:104E70000DC0AA1FBB1FEE1FFF1FA217B307E40739
:104E8000F50720F0A21BB30BE40BF50B661F771F91
:104E9000881F991F1A9469F7609570958095909571
:104EA0009B01AC01BD01CF010895052E97FB1EF4B7
:104EB00000940E946C2757FD07D00E94332707FCFF
:104EC00003D04EF40C946C27509540953095219565
:104ED0003F4F4F4F5F4F0895909580957095619526
:104EE0007F4F8F4F9F4F0895EE0FFF1F0590F49156
:104EF000E02D09946927962769277827872778273F
:104F00000895A29FB001B39FC001A39F700D811DA2
:104F10001124911DB29F700D811D1124911D0895C2
:104F20000E948127A59F900DB49F900DA49F800D96
:0A4F3000911D11240895F894FFCF9D
:104F3A00030B443100802500002D00040B4430008F
:104F4A00802500002D0002060024F400010C617483
:084F5A006D6567613332380018
:104F62004B0041535500FF03FE030000010000C047
:104F7200A801640030302F30302F303030302030F4
:104F8200303A30303A303000E5559A15B53B121FB1
:104F9200EF010101FFFFFFFFC0A801011F1C1F1E3F
:104FA2001F1E1F1F1E1F1E1F01005E000000534513
:104FB200520053616E647900000000000000446FEB
:104FC20075676C617300000000005F554E415353DA
:104FD20049474E45440000000000444F5553414E9E
:104FE2005553410000006000480070007800400006
:104FF2004800500058485454502F312E312034303C
:10500200302042616420526571756573740A0043F1
:105012006F6E6E656374696F6E3A20636C6F736551
:105022000D0A00485454502F312E31203230302096
:105032004F4B0A0064657669636500435249545FC9
:105042004849005741524E5F484900435249545F14
:105052004C4F005741524E5F4C4F004E4F524D4104
:105062004C00474554005055540044454C45544566
:10507200002F636F6E6669673F0074637269745FC5
:1050820068693D005570646174696E67207463726B
:1050920069745F686920776974682076616C7565E8
:1050A2003A2000747761726E5F68693D00557064E2
:1050B2006174696E6720747761726E5F68692077C8
:1050C2006974682076616C75653A20007463726950
:1050D200745F6C6F3D005570646174696E67207413
:1050E200637269745F6C6F20776974682076616C93
:1050F20075653A2000747761726E5F6C6F3D005582
:1051020070646174696E6720747761726E5F6C6F30
:1051120020776974682076616C75653A20003F7269
:10512200657365743D002266616C736522002274AA
:1051320072756522002F6C6F670020485454502FFF
:10514200312E310D0A00436F6E74656E742D5479E1
:1051520070653A206170706C69636174696F6E2F5B
:10516200766E642E6170692B6A736F6E0D0A00761B
:105172007064003A7B006D6F64656C003A006D618B
:105182006E756661637475726572007365726961CA
:105192006C5F6E756D626572006D616E75666163DE
:1051A200747572655F64617465006D61635F6164EB
:1051B200647265737300636F756E7472795F636F87
:1051C2006465007D2C0074637269745F68690074A1
:1051D2007761726E5F68690074637269745F6C6F85
:1051E20000747761726E5F6C6F0074656D706572CA
:1051F2006174757265007374617465003A5B007462
:10520200696D657374616D70006576656E74005DBD
:105212007D006A6C736F6C697300536F6C697320E5
:1052220053616C617A6172004A6F7365006C6F63DF
:10523200616C2069703A20000D0A414C41524D3A8E
:10524200200057495A6E65740074696D6520737940
:105252006E63656420005554430D0A0030302F30D0
:10526200302F303030302030303A30303A30300069
:1052720050726F6A656374206E6F74207369676E13
:1052820065640D0A0066697273746E616D65006C07
:105292006173746E616D6500617375726974650026
:0E52A20054657374696E670D0A002D002E00AE
:00000001FF
