:100000000C9434000C9451000C9451000C94510049
:100010000C9451000C9451000C9451000C9451001C
:100020000C9451000C9451000C9451000C9451000C
:100030000C9451000C9451000C9451000C945100FC
:100040000C9451000C9451000C942B020C9453030B
:100050000C9451000C9451000C9451000C945100DC
:100060000C9451000C94510011241FBECFEFD8E026
:10007000DEBFCDBF11E0A0E0B1E0E0E9F9E002C0F1
:1000800005900D92A632B107D9F721E0A6E2B1E0C2
:1000900001C01D92AD3AB207E1F70E9436040C94FC
:1000A000B2040C940000ECE7F0E08081886C80835F
:1000B000EAE7F0E0808186688083089580917A0085
:1000C00086FB882780F991E0892790E00895EAE788
:1000D000F0E080818064808308950F931F932091C6
:1000E0007800022F220F110B220B330B4091790065
:1000F000042E000C550B942F8827092E000CAA0BF8
:10010000BB0BA9019801282B392B4A2B5B2BA5E6A9
:10011000B0E00E94760424E630E040E050E00E9427
:100120005704DA01C90181519140A109B1091F9118
:100130000F9108950E941802789408950C94DC039E
:10014000CF93DF93EC018991882319F00E94DC039F
:10015000FACFDF91CF910895CF93C82F90E024E09C
:10016000959587952A95E1F78A3010F4805D01C056
:10017000895C0E94DC038C2F8F708A3010F0895CC0
:1001800001C0805DCF910C94DC03CF93C82F892FE1
:100190000E94AC008C2FCF910C94AC002F923F9218
:1001A0004F925F926F927F928F929F92AF92BF9287
:1001B000CF92DF92EF92FF920F931F93CF93DF9333
:1001C000CDB7DEB763970FB6F894DEBF0FBECDBFD5
:1001D0006B017C0197FF0DC0F094E094D094C09423
:1001E000C11CD11CE11CF11C81E090E09B8B8A8B2F
:1001F00002C01B8A1A8AFE0131965F018E01055FDB
:100200001F4FF98BE88B66246394712C812C912C01
:10021000AAE0B0E09301A4010E9476041B012C0126
:10022000C701B6019101A2010E9457049301A401E4
:100230000E945704E889F9892193F98BE88B822F72
:10024000220F990BAA0BBB0BC81AD90AEA0AFB0AA0
:10025000310142010E171F07D9F68A899B89892B24
:1002600019F08DE20E94DC0320E030E0F801829179
:100270008F01811106C02115310519F4EA15FB051E
:1002800029F4805D0E94DC0321E030E00A151B05A3
:1002900069F763960FB6F894DEBF0FBECDBFDF914E
:1002A000CF911F910F91FF90EF90DF90CF90BF9073
:1002B000AF909F908F907F906F905F904F903F9006
:1002C0002F9008950C94B2030C94D903FF920F93CE
:1002D0001F93CF93DF93EC01062FF72E18820E9415
:1002E000B20310E08823D9F00E9486038823B9F076
:1002F0000E948D03803210F089931F5FE02FFF2D45
:10030000482F50E02191222339F0022E000C330BAC
:1003100042175307B9F702C08D3051F71882812F69
:10032000DF91CF911F910F91FF9008950F931F932D
:10033000CF93DF938C01EC01699170E080E090E055
:100340000E94CE000C5F1F4F8EE20E94DC03699179
:1003500070E080E090E00E94CE00C017D107A1F7C6
:1003600082E291E0DF91CF911F910F910C94A00058
:10037000CF93DF9300D000D0CDB7DEB71C821B82B5
:100380002B813C8128173907A8F41A821982298108
:100390003A81283E334038F429813A812F5F3F4F1C
:1003A0003A832983F4CF2B813C812F5F3F4F3C83DD
:1003B0002B83E6CF0F900F900F900F90DF91CF918E
:1003C0000895219A29980895299A089529980895B9
:1003D00085B18695817090E008950F931F93CF9318
:1003E000DF938C010E94E601E80189918823D9F00E
:1003F0008E3229F40E94E4018AEF90E006C08D322B
:1004000059F40E94E4018EEE92E00E94B8010E942D
:10041000E60184E690E004C0803239F788EE93E08C
:100420000E94B801E2CFDF91CF911F910F91089503
:100430001092C00087E690E09093C5008093C400BE
:10044000E1ECF0E088E1808386E08093C200808167
:10045000806A808308951F920F920FB60F92112425
:100460002F933F938F939F93EF93FF9380912C0152
:10047000882309F4F0C08091C60090912B01992344
:1004800009F4E3C090EE980F9F3518F08D3009F015
:1004900059C0209128019091290130E0291B310990
:1004A000215031092F733327232B61F0E09129016B
:1004B000F0E0E35DFE4F8083909129019F5F9F7381
:1004C00090932901209126019091270130E0291B6A
:1004D0003109215031092F733327232B89F0E09103
:1004E0002701F0E0E359FE4F8083909127019F5F41
:1004F0009F73909327019091C10090629093C100E7
:100500008D3009F0C5C0809126012091270190E02F
:10051000821B910901978F739927892B69F0E091CC
:100520002701F0E0E359FE4F8AE0808380912701A4
:100530008F5F8F738093270180912A018F5F809353
:100540002A01A6C0883011F08F37C1F580912901AA
:100550002091280190E0821B91098F739927892BA4
:1005600009F496C0E0912901F0E0E35DFE4F80813F
:100570008091290181508F738093290180912601F8
:100580002091270190E0821B910901978F73992791
:10059000892B09F47DC0E0912701F0E0E359FE4F7B
:1005A0008FE78083809127018F5F8F73809327016E
:1005B0008091C10080628093C1006AC0843009F0DC
:1005C00067C0809129012091280190E0821B910948
:1005D0008F739927892B31F1E0912901F0E0E35DD8
:1005E000FE4F80818D30F1F080912801209129010A
:1005F00090E0821B910901978F739927892B91F0C5
:10060000E0912901F0E0E35DFE4F8DE08083809171
:1006100029018F5F8F738093290180912A018F5F59
:1006200080932A01809128012091290190E0821B6A
:10063000910901978F739927892B51F1E091290135
:10064000F0E0E35DFE4F84E019C0833009F581E0FE
:1006500080932B011DC0809128012091290190E0F9
:10066000821B910901978F739927892B79F0E0916B
:100670002901F0E08091C600E35DFE4F8083809108
:1006800029018F5F8F738093290102C08091C6007A
:10069000FF91EF919F918F913F912F910F900FBEFE
:1006A0000F901F9018951F920F920FB60F92112462
:1006B0002F938F939F93EF93FF9380912701209126
:1006C000260190E0821B91098F739927892B79F07D
:1006D000E0912601F0E0E359FE4F80818093C6004F
:1006E000809126018F5F8F738093260105C08091D2
:1006F000C1008F7D8093C100FF91EF919F918F91F9
:100700002F910F900FBE0F901F9018958091290187
:1007100090912801891B8F73089580912901209160
:10072000280190E0821B91098F739927892BC1F0D2
:10073000E0912801F0E0E35DFE4F80819091280177
:100740009F5F9F739093280190912C01992349F00A
:100750008D3039F490912A01915090932A01089597
:1007600080E0089581E080932C01809129012091FF
:10077000280190E0821B91098F739927892BB1F092
:10078000E0912801F0E0E35DFE4F8081843071F458
:1007900010922B01E0912801F0E0E35DFE4F808193
:1007A000809128018F5F8F738093280180912B01A6
:1007B000089580912A0108950FB607FE0EC020917A
:1007C00026019091270130E0291B31092150310980
:1007D0002F733327232B99F30DC02091260190917D
:1007E000270130E0291B3109215031092F733327AC
:1007F000232B61F0E0912701F0E0E359FE4F808365
:10080000809127018F5F8F73809327018091C100B2
:1008100080628093C10008951F93CF93DF93EC0112
:1008200080E011E0180FFE01E80FF11D80818823A0
:1008300021F00E94DC03812FF4CFDF91CF911F9133
:1008400008951F93CF93DF93EC0180E011E0180F20
:10085000FE01E80FF11D8491882321F00E94DC0342
:10086000812FF4CFDF91CF911F9108950E949A00BC
:100870000E94E1010E94530082E091E00E94A000EA
:100880000E9467000E945E00892BE1F30E946D00C8
:10089000BC01990F880B990B0E94CE008FE191E06B
:1008A0000E94A00088EE93E00E94B801E9CF052ED7
:1008B00097FB1EF400940E946E0457FD07D00E941F
:1008C000810407FC03D04EF40C946E0450954095BF
:1008D000309521953F4F4F4F5F4F089590958095EC
:1008E000709561957F4F8F4F9F4F08950E94A3048D
:1008F000A59F900DB49F900DA49F800D911D112474
:100900000895A1E21A2EAA1BBB1BFD010DC0AA1F50
:10091000BB1FEE1FFF1FA217B307E407F50720F068
:10092000A21BB30BE40BF50B661F771F881F991FE3
:100930001A9469F760957095809590959B01AC012C
:10094000BD01CF010895A29FB001B39FC001A39F35
:10095000700D811D1124911DB29F700D811D1124F8
:08096000911D0895F894FFCFEA
:10096800030B443100802500002D00040B443000A7
:10097800802500002D0002060024F400010C61749B
:080988006D6567613332380030
:10099000240053455234383620485734204A6F7368
:1009A0006520536F6C69732053616C617A61720AC0
:0609B0000D000D0A00001D
:00000001FF
