:100000000C943D000C945A000C945A000C945A0025
:100010000C945A000C945A000C9465030C945A00EA
:100020000C945A000C945A000C945A000C94E30B54
:100030000C945A000C945A000C941D040C945A0011
:100040000C945A000C945A000C9465120C948D1365
:100050000C945A000C945A000C94EF040C945A001F
:100060000C945A000C945A0018014B017B01AB010F
:10007000DB0104021B024B02740211241FBECFEFEE
:10008000D8E0DEBFCDBF13E0A0E0B1E0EEE3FAE2DE
:1000900002C005900D92A23CB107D9F725E0A2EC71
:1000A000B3E001C01D92A83BB207E1F70E945C00DB
:1000B0000C9409150C9400000F931F93CF93DF93BA
:1000C0001F92CDB7DEB70E94D6030E9439120E945C
:1000D0001E080E9426060E9492030E94300C0E9475
:1000E00082050E94AC0B0E9455030E94A402198253
:1000F00080E391E00E94360C81E591E00E94360C8D
:1001000084E691E00E94360C80E00E9453070E9432
:10011000BE0B68E873E181E090E00E94A9040E94B0
:100120005E030E94A10581E090E00E949004892B6B
:1001300031F10E94C40B9093010180930001E09182
:10014000B004F091B1042091AE043091AF0440911D
:10015000AC045091AD046091AA047091AB048091FD
:100160000001909101018F010E94EC000E94BE0BE2
:1001700068EE73E081E090E00E94A904D0CF89810D
:10018000882359F40E94A90D882349F287E691E05B
:100190000E94360C81E08983C2CF0E94AB0D882378
:1001A00069F00E94EF0D0E94A90D882309F0B7CFD6
:1001B00080E891E00E94A10D1982B1CF0E947E05D6
:1001C000892B11F40E94EB060E947E05892B09F011
:1001D000A6CF0E94F103A3CF0F931F93CF93DF937A
:1001E000CDB7DEB72A970FB6F894DEBF0FBECDBFEE
:1001F0009A8389837C836B835E834D8338872F83C7
:100200001A8709878091C2039091C303CC01A0E0B3
:10021000B0E040E050E028E030E0841B950B281768
:10022000390708F479C18C5C9F4FFC010C94E914E8
:1002300029813A818D819E812817390794F083E0C6
:1002400090E09093C3038093C20386E090E00E9405
:10025000930386E00E94530782E991E00E948F0594
:100260005AC129813A8189859A85821793070CF4AE
:1002700052C186E090E09093C3038093C20388E06C
:1002800090E00E94930388E00E94530782E991E086
:100290000E948F0540C129813A818D819E81281756
:1002A000390794F083E090E09093C3038093C203F6
:1002B00086E090E00E94930386E00E94530782E963
:1002C00091E00E948F0528C129813A8189859A850C
:1002D000821793075CF086E090E09093C3038093CD
:1002E000C20382E991E00E948F0516C184E991E082
:1002F0000E948F0511C129813A8189859A858217CB
:10030000930794F086E090E09093C3038093C20338
:1003100088E090E00E94930388E00E94530782E9FE
:1003200091E00E948F05F8C029813A818D819E81DC
:10033000281739075CF083E090E09093C303809323
:10034000C20382E991E00E948F05E6C084E991E052
:100350000E948F05E1C029813A818B819C812817F9
:10036000390794F085E090E09093C3038093C20333
:1003700085E090E00E94930385E00E94530786E9A0
:1003800091E00E948F05C8C029813A818D819E81AC
:10039000281739075CF482E090E09093C3038093C0
:1003A000C20384E991E00E948F05B6C084E991E020
:1003B0000E948F05B1C029813A818B819C812817C9
:1003C00039075CF085E090E09093C3038093C2030B
:1003D00086E991E00E948F059FC029813A818D8135
:1003E0009E81281739075CF482E090E09093C30364
:1003F0008093C20384E991E00E948F058DC084E957
:1004000091E00E948F0588C029813A818B819C816F
:10041000281739075CF484E090E09093C30380933D
:10042000C20382E991E00E948F0576C086E991E0DF
:100430000E948F0571C029813A818F81988582172A
:10044000930794F088E090E09093C3038093C203F5
:1004500087E090E00E94930387E00E94530786E9BB
:1004600091E00E948F0558C029813A8189859A853B
:10047000821793075CF481E090E09093C30380932C
:10048000C20384E991E00E948F0546C082E991E0B1
:100490000E948F0541C029813A818F819885281754
:1004A00039075CF488E090E09093C3038093C20323
:1004B00086E991E00E948F052FC029813A818985C4
:1004C0009A85821793075CF482E090E09093C303CF
:1004D0008093C20384E991E00E948F051DC082E9E8
:1004E00091E00E948F0518C029813A818F819885FB
:1004F000821793075CF487E090E09093C3038093A6
:10050000C20382E991E00E948F0506C086E991E06E
:100510000E948F0501C0000000002A960FB6F894D3
:10052000DEBF0FBECDBFDF91CF911F910F91089518
:10053000CF93DF93CDB7DEB71092C3031092C203FF
:100540000000DF91CF910895CF93DF93CDB7DEB751
:100550001092C3031092C2030000DF91CF9108955F
:10056000CF93DF9300D0CDB7DEB79A8389832091F4
:10057000AC043091AD0489819A81281739072CF495
:1005800089819A81811594401CF081E090E00CC033
:1005900089819A819093AB048093AA040E94A50359
:1005A0000E94F10380E090E00F900F90DF91CF91D7
:1005B0000895CF93DF9300D0CDB7DEB79A838983B8
:1005C0002091B0043091B10489819A8182179307F8
:1005D0004CF02091AA043091AB0489819A812817AC
:1005E00039071CF481E090E00CC089819A819093D6
:1005F000AD048093AC040E94A5030E94F10380E047
:1006000090E00F900F90DF91CF910895CF93DF93FB
:1006100000D0CDB7DEB79A8389832091AE043091A4
:10062000AF0489819A81821793071CF081E090E0E2
:100630000AC089819A819093AF048093AE040E948E
:10064000A50380E090E00F900F90DF91CF91089587
:10065000CF93DF9300D0CDB7DEB79A838983209103
:10066000AE043091AF0489819A81281739074CF480
:100670002091AC043091AD0489819A81821793074F
:100680001CF081E090E00CC089819A819093B104C4
:100690008093B0040E94A5030E94F10380E090E0E3
:1006A0000F900F90DF91CF910895F894E0E6F0E07D
:1006B00088E180838FE4808378940895A8950895D5
:1006C0008091600010926000FFCF1F920F92009007
:1006D0005F000F9211242F933F934F935F936F937B
:1006E0007F938F939F93AF93BF93EF93FF93CF939A
:1006F000DF9300D0CDB7DEB70E948B0582E00E9469
:1007000053071A82198207C00E94210789819A81A2
:1007100001969A83898389819A814097ACF30E94DC
:100720000904FFCF0895CF93DF93EC018BED91E0A7
:100730000E94360CBE0180E090E00E94640C80E0D4
:1007400092E0DF91CF910C94360C81E08093C4034A
:1007500008958091A604813461F48091A7048335C3
:1007600041F481E090E02091A804253521F080E05B
:1007700002C080E090E0E6EAF4E020E03191230F4F
:1007800034E0E93BF307D1F7222311F080E090E059
:10079000089562E170E082E091E00E94001142E180
:1007A00062E071E080E490E00C9435050E947E05E3
:1007B000892BE1F742E166EA74E080E490E00E9470
:1007C00069050E94A903892B49F40E94C90342E1EB
:1007D00066EA74E080E490E00E9469051092C40328
:1007E00008950E947E05892B99F48091C403882383
:1007F00079F062E170E086EA94E00E94001142E143
:1008000066EA74E080E490E00E9435051092C4032B
:1008100008958091C403882379F062E170E086EA4C
:1008200094E00E94001142E166EA74E080E490E006
:100830000E9452051092C40308951F920F920FB6A2
:100840000F9211242F933F938F939F93AF93BF9356
:100850002091CF033091D0038091C7039091C803BA
:100860002817390749F08091CF039091D003019662
:100870009093D0038093CF032091D1033091D20382
:100880008091C9039091CA032817390749F08091D4
:10089000D1039091D20301969093D2038093D10318
:1008A0008091CB039091CC03A091CD03B091CE0366
:1008B0000196A11DB11D8093CB039093CC03A0930F
:1008C000CD03B093CE03BF91AF919F918F913F9194
:1008D0002F910F900FBE0F901F90189589EF87BD35
:1008E00082E084BD93E095BD789480936E00109271
:1008F000CB031092CC031092CD031092CE03089537
:100900008230910550F4F894880F991FFC01E1534F
:10091000FC4F808191817894089580E090E0089563
:100920008230910598F4880F991FFC01E153FC4F28
:1009300020813181FC01E953FC4F81E090E040814E
:1009400051814217530721F080E0089580E090E044
:1009500008950F931F93CF93DF93EC018B01809148
:10096000C5039091C603892B41F40E946E0481E077
:1009700090E09093C6038093C503C230D10570F414
:100980008FB7F894CC0FDD1FFE01E953FC4F1183A4
:100990000083C153DC4F198218828FBFDF91CF9142
:1009A0001F910F9108958091C5039091C603892BE3
:1009B00041F40E946E0481E090E09093C60380931E
:1009C000C503F8946091CB037091CC038091CD0363
:1009D0009091CE0378940895FA9AF99A08951F9207
:1009E0000F920FB60F9211242F933F934F935F9363
:1009F0006F937F938F939F93AF93BF93EF93FF93E7
:100A0000E091FC048091BB04E81720F0FB98109261
:100A1000B8041AC08091B9049091BA0492BD81BD06
:100A200081E08E0F8093FC04F0E0E454FB4F808162
:100A300080BD8091B9049091BA0401969093BA0454
:100A40008093B9040E94EC04FF91EF91BF91AF91A4
:100A50009F918F917F916F915F914F913F912F91D6
:100A60000F900FBE0F901F9018952091B804211180
:100A7000FCCF9093BA048093B90481E08093B804CA
:100A80001092FC044093BB04962FACEBB4E0FB0146
:100A90008E2F891B841718F481918D93F9CF789448
:100AA000FB9A0895FB01861B970B50E0DC01AE0F0B
:100AB000BF1F9F01261B370B2417350748F4F999F0
:100AC000FECFB2BDA1BD219120BDFA9AF99AEECF19
:100AD00008952091B8042111FCCFFB01861B970BD0
:100AE0002E2F261B241748F49C012E0F3F1F32BDCA
:100AF00021BDF89A20B52193F3CF08958091B804D1
:100B000090E0089560E070E080E090E00E94A90429
:100B1000219A29980895299A0895299808959093DB
:100B2000D4038093D3031092D7031092D60310926C
:100B3000D50360E070E080E090E00E94A9040C948E
:100B40008D058091D3039091D403892B09F452C071
:100B500080E090E00E949004892B09F44BC08091C2
:100B6000D503811134C02091D6033091D703E09191
:100B7000D303F091D403E20FF31F80818032E9F0B8
:100B80003CF481111DC01092D7031092D603089532
:100B90008D3239F08E32A1F40E948B056AEF70E03D
:100BA00004C00E948B056EEE72E080E090E00E942F
:100BB000A90481E08093D503089568EE73E00BC02B
:100BC0002F5F3F4F3093D7032093D60308950E94A1
:100BD0008D0564E670E080E090E00E94A904109228
:100BE000D5038091D6039091D70301969093D703B4
:100BF0008093D603089585B18695817090E008951D
:100C00008031910504F527E0289FA001299F500D10
:100C10001124FA01E552FC4F80818132A0F480E07A
:100C200090E020E0FA01E80FF91FE552FC4F308117
:100C3000230F019687309105A9F781E090E02223E8
:100C400021F080E0089580E090E008956F927F9217
:100C50008F929F92AF92BF92CF92DF92EF92FF92CC
:100C60000F931F93CF93DF930E947E05892BE1F7AB
:100C70000BE414E0C0E8D0E0BE01655A7C4F47E0C9
:100C8000CE010E946905F80111928F012796C03F9D
:100C9000D10591F74BEDE42E43E0F42E8701C0E03F
:100CA000D0E0D12CB12C77247A94CE010E9400069A
:100CB000892B41F0F8018081871520F4BC2E782E15
:100CC000DD24D3942196095F1F4FC031D10569F708
:100CD000DD2009F46AC0B092DA037092D903CB2DFB
:100CE000D0E08E010F5F1F4F872C2FE0A22E37E040
:100CF000932E6801FFE0CF22DD24C6010E9400068A
:100D0000892B61F4B092D8038E01015011096097CC
:100D100080E1A82EB12C97E0692E3AC09C9CF0018E
:100D20009D9CF00D1124E552FC4F4081242F30E0B2
:100D3000882D90E001968F7199272817390711F7B0
:100D4000C092DA034093D903AA940F5F1F4FAA20E1
:100D5000C9F2842ECECFF701208130E0872D90E0BC
:100D60004F968F7199272817390731F5C092D8030C
:100D7000689CF001699CF00D1124E552FC4F7080D5
:100D800001501109F7E0EF0EF11C0C171D07A1F03F
:100D9000C801B5010E9494146C014C019924C4014E
:100DA0000E940006892BB9F607C08FE08093DA0312
:100DB0001092D9031092D803DF91CF911F910F9118
:100DC000FF90EF90DF90CF90BF90AF909F908F906B
:100DD0007F906F900895EF92FF921F93CF93DF93D0
:100DE0000E947E05892B39F5EBE4F4E0C0E0D0E009
:100DF00081918823E1F017E01C9FC0011D9F900D99
:100E000011249C0125523C4F790167E070E0C90133
:100E10000E940011C19FC001112447E0B701805812
:100E20009F4F0E943505C55BDB4F188204C0219699
:100E3000C031D105E9F6DF91CF911F91FF90EF907E
:100E40000895EF92FF921F93CF93DF93EBE4F4E0CA
:100E5000C0E0D0E081918823E1F017E01C9FC00141
:100E60001D9F900D11249C0125523C4F790167E094
:100E700070E0C9010E940011C19FC001112447E028
:100E8000B70180589F4F0E945205C55BDB4F188207
:100E900004C02196C031D105E9F6DF91CF911F91B1
:100EA000FF90EF900895EF92FF920F931F93CF93CF
:100EB000DF93E82EC091DA03D0E02196CF70DD27D2
:100EC0008091D80390E00E940006F82E8091D9030B
:100ED0008F5F813218F48093D90302C01092D90336
:100EE00087E08C9F80018D9F100D112405521C4FAF
:100EF0008091D903F80180830E942008F801618362
:100F0000728383839483E582C093DA0367E070E0A1
:100F1000C8010E940011C55BDB4F81E0888380918E
:100F2000DA039091D803891308C0FF2031F090E0D4
:100F300001968F7099278093D803DF91CF911F91ED
:100F40000F91FF90EF900895EBEDF3E0ABE4B4E088
:100F50008FEF4FEF5FEFBA0191E08083858341838C
:100F60005283638374839D93379624E0EB34F207B6
:100F7000A1F78FE08093DA031092D8031092D9037F
:100F800008950F931F93CF93DF930091D803C02F41
:100F900010E0D0E0CE010E940006892B29F02196B6
:100FA000CF701F5F0C13F5CF812FDF91CF911F9171
:100FB0000F910895AF92BF92CF92DF92EF92FF927E
:100FC0000F931F93CF93DF936B017C018A0159012B
:100FD0000E94C10790E0A0E0B0E0C816D906EA067A
:100FE000FB06F8F48091D80390E0C80ED91E8FE07C
:100FF000C822DD2487E08C9DF0018D9DF00D112429
:10100000E552FC4F81819281A381B481E8018883FC
:101010009983AA83BB838581F501808381E090E079
:1010200002C080E090E0DF91CF911F910F91FF907F
:10103000EF90DF90CF90BF90AF9008950C94080C84
:101040000C94180C6093FD047093FE048093FF04CD
:10105000909300050C94240C9C0160E971E00E94BF
:101060008014892B79F0C90183709927892B61F449
:10107000C90164E670E00E9480149C0181E0232B8A
:1010800021F402C081E0089580E008952F923F92FC
:101090004F925F926F927F928F929F92AF92BF9288
:1010A000CF92DF92EF92FF920F931F93CF93DF9334
:1010B000CDB7DEB767970FB6F894DEBF0FBECDBFD2
:1010C0002CE0E8E9F1E0AE014F5F5F4F1A01DA0171
:1010D00001900D922A95E1F7DC012C91220F205608
:1010E000322F330F330F230F11963C911197315349
:1010F000230F2D8713962C911397022E000C330B80
:10110000205331096AE0629FA001639F500D1124B2
:101110001496CC900C2C000CDD08B0E3CB1AD1084F
:10112000C40ED51E860101501109FC012681022E34
:10113000000C330B20533109E8EEF3E02E9FA001A1
:101140002F9F500D3E9F500D1124DC0117962C91BE
:101150001797022E000C330B2053310974E6729F4F
:101160007001739FF00C1124E40EF51E18964C913B
:101170001897042E000C550B40535109649F9001A1
:10118000659F300D1124E20EF31E19962C911997CC
:10119000F701E20FF11D27FDFA95AF0158507A01D2
:1011A0001B962C911B97220F2056322F330F330F93
:1011B000230F1C963C911C973053230F298B1E96AE
:1011C0002C911E97220F2056322F330F330F230FEF
:1011D0001F963C911F973053230F2A8B51962C91C9
:1011E0005197220F2056322F330F330F230F529671
:1011F0008C918053280F2B8BCA010E942C088823C6
:1012000021F05D85523008F08601C70160E971E088
:101210000E948014FC01DB0120E839E540E650EF34
:101220000E94FE142B013C01CF0164E670E00E9495
:101230008014FC01DB0120E032EC47E15CEB0E9412
:10124000FE144B015C01DF01B695A795B695A795F5
:1012500020E83FE146E857E00E94FE146B017C0164
:10126000DF01A370BB2720E833E341EE51E00E9489
:10127000FE146C8B7D8B8E8B9F8BF1018E2F8219D0
:101280009D85891720F48191080F111DF7CFA98939
:101290002A2F30E0A0E1BEE00E94EF146D877E8728
:1012A0008F87988BBA892B2F30E0ACE3B0E00E9497
:1012B000EF142D853E854F855889260F371F481F0F
:1012C000591FDA01C9013B89830F911DA11DB11D71
:1012D000480E591E6A1E7B1E840C951CA61CB71C4A
:1012E000C80CD91CEA1CFB1C8C899D89AE89BF895E
:1012F000C80ED91EEA1EFB1ED80120E831E541E0E8
:1013000050E00E94FE14DC01CB018C0D9D1DAE1D32
:10131000BF1D8093FD049093FE04A093FF04B0933F
:10132000000567960FB6F894DEBF0FBECDBFDF9104
:10133000CF911F910F91FF90EF90DF90CF90BF90D2
:10134000AF909F908F907F906F905F904F903F9065
:101350002F900C94240CEF92FF920F931F93CF9336
:10136000DF93CDB7DEB768970FB6F894DEBF0FBE38
:10137000CDBF7B012CE0E8E9F1E0DE011D96019094
:101380000D922A95E1F78E010F5F1F4F2CE0F801B7
:1013900011922A95E9F70E942C088A83DE011D9696
:1013A00080E0F701408151819D91F80121918F01E9
:1013B00030E0290F311D4217530740F0421B530BF9
:1013C000F701518340838F5F8C3059F768960FB6D1
:1013D000F894DEBF0FBECDBFDF91CF911F910F916B
:1013E000FF90EF9008954F925F926F927F928F924D
:1013F0009F92AF92BF92CF92DF92EF92FF92CF93E4
:10140000DF9300D0CDB7DEB72B013C0181E090E047
:10141000A0E0B0E020E8421629E5520620E6620688
:1014200020EF720618F480E090E0DC0120E931E062
:10143000829F5001839FB00C929FB00C112480E3D7
:10144000A81A88EFB80AC12CD12C7601C39420E8E1
:10145000421629E5520620E6620620EF720618F4CD
:10146000C12CD12C7601A701960160E879E580E6D0
:1014700090EF0E94701473016201C61AD70AE80A3D
:10148000F90A81E090E0A0E0B0E0C11422ECD206BD
:1014900027E1E2062CEBF20618F480E090E0DC0194
:1014A00044E6489F9001499F300D1124A20EB31EBF
:1014B00021E030E040E050E0C11482ECD80687E142
:1014C000E8068CEBF80618F420E030E0A90160E0B3
:1014D00072EC87E19CEB0E947014A7019601261B19
:1014E000370B480B590BCA01B90120E83FE146E828
:1014F00057E00E94A814220F331F220F331FA20EA1
:10150000B31E20E833E341EE51E00E94A8147501B8
:10151000E20EF31E20E831E541E050E00E94A814FD
:101520004B015C013A832983BE016F5F7F4FC70186
:101530000E94AB09D82EC501B40120E13EE040E095
:1015400050E00E94A81429013A014B015C0165EEAC
:1015500071E084E191E00E94370B6D2D70E06F5FC8
:101560007F4F42E084E191E00E944A0B69817A81D9
:101570006F5F7F4F42E087E191E00E944A0B44E0B9
:10158000B7018AE191E00E944A0B42E0B2018FE18B
:1015900091E00E944A0BC501B4012CE330E040E029
:1015A00050E00E94A81449015A016B017C0142E0FD
:1015B000B40182E291E00E944A0B42E0B60185E26A
:1015C00091E00E944A0B84E191E00F900F90DF912F
:1015D000CF91FF90EF90DF90CF90BF90AF909F9012
:1015E0008F907F906F905F904F9008950F931F930F
:1015F0000E94180C0091FD041091FE042091FF043C
:1016000030910005600F711F821F931F1F910F9172
:101610000C94F309FB01480F591F8417950729F013
:101620002191DC012D93CD01F8CF0895480F591F6A
:101630008417950721F0FC016193CF01F9CF08953C
:10164000FB01480F591F8417950759F0DC013D91A4
:10165000CD012191321740F02317A8F781E090E0E7
:10166000089580E090E008958FEF9FEF0895FC01CA
:10167000DB018D91BD01882311F08193F9CF108298
:101680000895FC019F01281B390B41914111FACFAC
:10169000C90108959F92AF92BF92CF92DF92EF92CD
:1016A000FF920F931F93CF93DF9300D000D01F9230
:1016B000CDB7DEB7FC016B019E012F5F3F4F8E015E
:1016C0000A5F1F4FEE24E394F12C9AE0992E9E9C22
:1016D00050019F9CB00C1124C601B5010E948014DA
:1016E000B7010E948014D9016D939D01C61AD108DB
:1016F00067FDD3947501A017B10749F760E070E06A
:1017000084E090E050E0D8012E918D01211105C0B8
:101710006115710511F4009741F4841795072CF4B5
:10172000205D219361E070E004C0841795070CF4FC
:101730003196019740F70F900F900F900F900F90F8
:10174000DF91CF911F910F91FF90EF90DF90CF909D
:10175000BF90AF909F90089588EC80937C0086E8BE
:1017600080937A00089580917A0082958695869577
:10177000837091E08927817090E00895EAE7F0E0B6
:101780008081806480830895809178002091790021
:1017900030E0322F2227A901330F660B770B9A0115
:1017A000AB01282BA5E6B0E00E94FE1424E630E051
:1017B00040E050E00E94CA14DA01C9018151914011
:1017C000A109B10908951F920F920FB60F9211242B
:1017D0008F939F93AF93BF9380915B0490915C0430
:1017E000A0915D04B0915E040196A11DB11D80938E
:1017F0005B0490935C04A0935D04B0935E04BF917E
:10180000AF919F918F910F900FBE0F901F901895E1
:1018100083E294EF90938900809388001092800077
:101820008CE080938100789482E080936F0008952B
:101830002FB7F89460915B0470915C0480915D0413
:1018400090915E042FBF08958FB7F89410925B04B7
:1018500010925C0410925D0410925E048FBF089594
:101860000E945212789408950C941614CF93DF932B
:10187000EC018991882319F00E941614FACFDF91A8
:10188000CF910895CF93C82F90E024E09595879548
:101890002A95E1F78A3010F4805D01C0895C0E94CE
:1018A00016148C2F8F708A3010F0895C01C0805D17
:1018B000CF910C941614CF93C82F892F0E94420CFD
:1018C0008C2FCF910C94420C2F923F924F925F92AB
:1018D0006F927F928F929F92AF92BF92CF92DF9240
:1018E000EF92FF920F931F93CF93DF93CDB7DEB7A5
:1018F00063970FB6F894DEBF0FBECDBF6B017C01BE
:1019000097FF0DC0F094E094D094C094C11CD11CFA
:10191000E11CF11C81E090E09B8B8A8B02C01B8A4A
:101920001A8AFE0131965F018E01055F1F4FF98B08
:10193000E88B66246394712C812C912CAAE0B0E092
:101940009301A4010E94FE141B012C01C701B601E2
:101950009101A2010E94CA149301A4010E94CA1419
:10196000E889F9892193F98BE88B822F220F990B53
:10197000AA0BBB0BC81AD90AEA0AFB0A31014201B9
:101980000E171F07D9F68A899B89892B19F08DE2DA
:101990000E94161420E030E0F80182918F0181113D
:1019A00006C02115310519F4EA15FB0529F4805DFF
:1019B0000E94161421E030E00A151B0569F76396B2
:1019C0000FB6F894DEBF0FBECDBFDF91CF911F9150
:1019D0000F91FF90EF90DF90CF90BF90AF909F90CE
:1019E0008F907F906F905F904F903F902F900895D1
:1019F0000C94EC130C941314FF920F931F93CF933A
:101A0000DF93EC01062FF72E18820E94EC1310E0F2
:101A10008823D9F00E94C0138823B9F00E94C7130D
:101A2000803210F089931F5FE02FFF2D482F50E088
:101A30002191222339F0022E000C330B4217530759
:101A4000B9F702C08D3051F71882812FDF91CF9105
:101A50001F910F91FF9008950F931F93CF93DF93E2
:101A60008C01EC01699170E080E090E00E94640CD0
:101A70000C5F1F4F8EE20E941614699170E080E0A7
:101A800090E00E94640CC017D107A1F780E092E0BB
:101A9000DF91CF911F910F910C94360CCF93DF9370
:101AA000EC0182E20E94340CCE010E94360C82E2EC
:101AB000DF91CF910C94340C89EF91E00C94360CAB
:101AC000DC0180915F048D3229F48FEF9FEFE0E617
:101AD000F4E004C081E090E0EFE5F4E011961C92A0
:101AE0001E926AE040812D913C9111974423C1F0F0
:101AF000629FA001639F500D112411965C934E9339
:101B0000219130ED320F3A30B8F4022E000C330B35
:101B100020533109240F351F11963C932E93E2CFA9
:101B2000289FA001299F500D389F500D11244D93DF
:101B30005C9381E090E0089580E090E008950C943B
:101B4000340C0C94360C0C94420C0C945B0C0C94DE
:101B5000640C0C94EC130C941314FF920F931F93CA
:101B6000CF93DF93EC01062FF72E18820E94EC131F
:101B700010E08823D9F00E94C0138823B9F00E9496
:101B8000C713803210F089931F5FE02FFF2D482F7D
:101B900050E02191222339F0022E000C330B421722
:101BA0005307B9F702C08D3051F71882812FDF91AA
:101BB000CF911F910F91FF90089563E072E08FE540
:101BC00094E00E94AD0D882349F0E82FF0E0E25A3E
:101BD000FB4F80818F3289F3803279F308950F9320
:101BE0001F93CF93DF9300D000D01F92CDB7DEB705
:101BF00063E072E08FE594E00E94AD0D66E072E074
:101C00008FE594E00E94E510892B09F0BBC163E0E9
:101C100072E08FE594E00E94AD0D61E873E08FE51E
:101C200094E00E94E510892B09F081C263E072E024
:101C30008FE594E00E94AD0D6BE072E08FE594E0DB
:101C40000E94E510892B09F072C28EE193E00E9498
:101C5000360C80E092E00E94360C82E192E00E9415
:101C6000360C80E092E00E94360C8CE192E00E94FB
:101C7000360C85E095E00E944E0D8CE20E94340CFB
:101C800080E092E00E94360C89E292E00E94360CDD
:101C900081E195E00E944E0D8CE20E94340C80E0C0
:101CA00092E00E94360C8DE392E00E94360C8DE1AA
:101CB00095E00E944E0D8CE20E94340C80E092E090
:101CC0000E94360C82E592E00E94360C6091290554
:101CD00070912A0580912B0590912C050E94F309A3
:101CE0008C01FC01128682E20E94340CC8010E9421
:101CF000360C82E20E94340C8CE20E94340C80E0AC
:101D000092E00E94360C8AE692E00E94360C8091A6
:101D10002D050E94420C0EE215E08AE30E94340C6D
:101D2000F80181918F010E94420CF5E003331F07F7
:101D3000A1F78EE792E00E94360C80E092E00E94CC
:101D4000360C81E892E00E94360C83E395E00E9415
:101D50004E0D80E092E00E94360C81E493E00E94F8
:101D6000360C80E092E00E94360C85E992E00E94F9
:101D7000360C6091AA047091AB04072E000C880BFE
:101D8000990B0E94640C8CE20E94340C80E092E07B
:101D90000E94360C83EA92E00E94360C6091AC04FB
:101DA0007091AD04072E000C880B990B0E94640CF7
:101DB0008CE20E94340C80E092E00E94360C81EBB1
:101DC00092E00E94360C6091AE047091AF04072E31
:101DD000000C880B990B0E94640C8CE20E94340C5E
:101DE00080E092E00E94360C8FEB92E00E94360C6D
:101DF0006091B0047091B104072E000C880B990B10
:101E00000E94640C8CE20E94340C80E092E00E94FC
:101E1000360C8DEC92E00E94360C609100017091BE
:101E20000101072E000C880B990B0E94640C8CE2B8
:101E30000E94340C80E092E00E94360C8EED92E01D
:101E40000E94360C80910001909101012091AA041A
:101E50003091AB04821793071CF089EE92E020C00A
:101E60002091AC043091AD04821793071CF081EFF0
:101E700092E016C02091B0043091B10428173907C0
:101E80001CF489EF92E00CC02091AE043091AF04B5
:101E9000281739071CF480E093E002C088E093E043
:101EA0000E94360C8CE20E94340C80E092E00E948A
:101EB000360C80E193E00E94360C80E092E00E94B4
:101EC000360C10E00E94C107181708F048C0812F97
:101ED00090E0A0E0B0E09E012B5F3F4FAE014F5F6E
:101EE0005F4FBC01CD010E94DA07112339F08CE26B
:101EF0000E94340C80E092E00E94360C8AE193E06C
:101F00000E94360C80E092E00E94360C80E293E062
:101F10000E94360C82E20E94340C69817A818B81A6
:101F20009C810E94F3090E94360C82E20E94340CCC
:101F30008CE20E94340C83E393E00E94360C6D81A6
:101F400070E080E090E00E94640C80E092E00E94EB
:101F5000360C8FE393E00E94360C1F5FB3CF80E016
:101F600092E00E94360C85E493E00E94360C80E0FB
:101F700092E00E94360C83E493E00E94360C80E0ED
:101F800092E017C169E473E08FE594E00E94E510E8
:101F9000892B09F0D8C063E072E08FE594E00E94DD
:101FA000AD0D61E873E08FE594E00E94E510892BA8
:101FB00009F0BDC06EE473E08FE594E00E94AD0DC2
:101FC00062E573E08FE594E00E94E510892B89F5C6
:101FD0006AE573E08FE594E00E94AD0D6EE573E075
:101FE0008FE594E00E94E510892B09F0A0C063E022
:101FF00072E08FE594E00E94AD0D65E673E08FE539
:1020000094E00E94E510892B29F48DE693E00E946C
:10201000360C8FC064E773E08FE594E00E94E51012
:10202000892B09F084C08DE693E00E94360C0E9453
:1020300060036BE773E08FE594E00E94E510892B65
:1020400009F075C06EE473E08FE594E00E94AD0D79
:1020500063E873E08FE594E00E94E510892B09F0B6
:1020600066C06BE873E08FE594E00E94AD0D6EE80A
:1020700073E08FE594E00E94E510892B91F463E012
:1020800072E08FE594E00E94AD0DCE0101960E94B2
:10209000600D892B09F44BC089819A810E94B0029E
:1020A0004FC068E973E08FE594E00E94E510892B4A
:1020B00089F463E072E08FE594E00E94AD0DCE01FB
:1020C00001960E94600D892B91F189819A810E946D
:1020D000D90236C062EA73E08FE594E00E94E51011
:1020E000892B89F463E072E08FE594E00E94AD0DE6
:1020F000CE0101960E94600D892BC9F089819A81D9
:102100000E9406031DC06CEA73E08FE594E00E9414
:10211000E510892B61F463E072E08FE594E00E94A2
:10212000AD0DCE0101960E94600D892B29F40E940D
:102130005C0D0E94DD0D3FC089819A810E942803B9
:10214000892BA9F1F4CF66EB73E08FE594E00E9450
:10215000E510892B61F763E072E08FE594E00E945F
:10216000AD0D61E873E08FE594E00E94E510892BE6
:10217000F1F663E072E08FE594E00E94AD0D6BE74D
:1021800073E08FE594E00E94E510892B81F663E00F
:1021900072E08FE594E00E94AD0D6EEB73E08FE589
:1021A00094E00E94E510892B11F60E94A4078DE6A9
:1021B00093E00E94360C0F900F900F900F900F90AD
:1021C000DF91CF911F910F910895DC01FB019D914B
:1021D000992341F08191891784F09817C4F78FEF04
:1021E0009FEF089581E090E02081211102C080E0FE
:1021F00090E0919581959109089581E090E008958E
:10220000DC0190E020E061507109422F50E0FD01B7
:10221000E40FF51F4617570720F48081980F2F5FB2
:10222000F4CF91959083089561157105810591050D
:1022300041F060932C0170932D0180932E019093B7
:102240002F01211531054105510541F02093280149
:102250003093290140932A0150932B0108954F9206
:102260005F926F927F928F929F92AF92BF92CF9226
:10227000DF92EF92FF92CF93DF9300D000D0CDB7E3
:10228000DEB72B013C0129833A834B835C83C090EA
:102290002801D0902901E0902A01F0902B01A7019C
:1022A000960144275527A9E6B0E90E94FE1467016C
:1022B000EE24FF244B015C018C0C9D1CAE1CBF1C4A
:1022C0008092280190922901A0922A01B0922B01BC
:1022D000C0902C01D0902D01E0902E01F0902F01A4
:1022E000A701960144275527A0E5B6E40E94FE14F5
:1022F0006701EE24FF24C60ED71EE81EF91EC09209
:102300002C01D0922D01E0922E01F0922F01D401E8
:1023100099278827BC01CD016C0D7D1D8E1D9F1D49
:1023200029813A814B815C81241935094609570975
:102330000E94A814CB01840D951D0F900F900F9053
:102340000F90DF91CF91FF90EF90DF90CF90BF90F3
:10235000AF909F908F907F906F905F904F90089577
:10236000CF93DB01FC0120812D3221F401966FEF28
:102370007FEF02C061E070E011961C921E92FC019A
:10238000CAE020818D919C9111972223C1F0C89FB2
:10239000A001C99F500D112411965C934E93219179
:1023A00080ED820F8A30B8F4022E000C330B2053DC
:1023B0003109240F351F11963C932E93E2CF869F4F
:1023C0009001879F300D969F300D11242D933C93E3
:1023D00081E090E002C080E090E0CF91089580918C
:1023E0000105833561F480910205853441F481E073
:1023F00090E020910305223521F080E002C080E0CA
:1024000090E0E1E0F5E020E03191230F35E0E933A1
:10241000F307D1F7222311F080E090E00895CF93E5
:10242000DF93CDB7DEB7E7970FB6F894DEBF0FBEE8
:10243000CDBF87E3E4EAF1E0DE01119601900D9251
:102440008A95E1F767E370E0CE0101960E940011E2
:1024500047E3BE016F5F7F4F80E090E00E9435054B
:10246000E7960FB6F894DEBF0FBECDBFDF91CF91D8
:1024700008950E947E05892BE1F747E361E075E04E
:1024800080E090E00E9469050E94EF11892B49F4D9
:102490000E940F1247E361E075E080E090E00C9449
:1024A000690508951092C00087E690E09093C500FA
:1024B0008093C400E1ECF0E088E1808386E08093C3
:1024C000C2008081806A808308951F920F920FB6A8
:1024D0000F9211242F933F938F939F93EF93FF932A
:1024E0008091A504882309F4F0C08091C6009091E2
:1024F000A404992309F4E3C090EE980F9F3518F0D7
:102500008D3009F059C02091A1049091A20430E0CF
:10251000291B3109215031092F733327232B61F0F7
:10252000E091A204F0E0E85CFA4F80839091A2046D
:102530009F5F9F739093A20420919F049091A004A9
:1025400030E0291B3109215031092F733327232B08
:1025500089F0E091A004F0E0E858FA4F8083909170
:10256000A0049F5F9F739093A0049091C10090621C
:102570009093C1008D3009F0C5C080919F042091D7
:10258000A00490E0821B910901978F739927892BF2
:1025900069F0E091A004F0E0E858FA4F8AE0808307
:1025A0008091A0048F5F8F738093A0048091A30417
:1025B0008F5F8093A304A6C0883011F08F37C1F5D8
:1025C0008091A2042091A10490E0821B91098F7355
:1025D0009927892B09F496C0E091A204F0E0E85C09
:1025E000FA4F80818091A20481508F738093A2045E
:1025F00080919F042091A00490E0821B9109019793
:102600008F739927892B09F47DC0E091A004F0E035
:10261000E858FA4F8FE780838091A0048F5F8F7313
:102620008093A0048091C10080628093C1006AC041
:10263000843009F067C08091A2042091A10490E049
:10264000821B91098F739927892B31F1E091A204A4
:10265000F0E0E85CFA4F80818D30F1F08091A104C8
:102660002091A20490E0821B910901978F73992712
:10267000892B91F0E091A204F0E0E85CFA4F8DE044
:1026800080838091A2048F5F8F738093A2048091D6
:10269000A3048F5F8093A3048091A1042091A204DE
:1026A00090E0821B910901978F739927892B51F133
:1026B000E091A204F0E0E85CFA4F84E019C08330B6
:1026C00009F581E08093A4041DC08091A1042091AC
:1026D000A20490E0821B910901978F739927892B9F
:1026E00079F0E091A204F0E08091C600E85CFA4F36
:1026F00080838091A2048F5F8F738093A20402C0B5
:102700008091C600FF91EF919F918F913F912F9102
:102710000F900FBE0F901F9018951F920F920FB63B
:102720000F9211242F938F939F93EF93FF93809198
:10273000A00420919F0490E0821B91098F73992738
:10274000892B79F0E0919F04F0E0E858FA4F8081FE
:102750008093C60080919F048F5F8F7380939F0446
:1027600005C08091C1008F7D8093C100FF91EF91E2
:102770009F918F912F910F900FBE0F901F901895E2
:102780008091A2049091A104891B8F730895809178
:10279000A2042091A10490E0821B91098F739927D4
:1027A000892BC1F0E091A104F0E0E85CFA4F808150
:1027B0009091A1049F5F9F739093A1049091A504B1
:1027C000992349F08D3039F49091A304915090935E
:1027D000A304089580E0089581E08093A50480918A
:1027E000A2042091A10490E0821B91098F73992784
:1027F000892BB1F0E091A104F0E0E85CFA4F808110
:10280000843071F41092A404E091A104F0E0E85C3B
:10281000FA4F80818091A1048F5F8F738093A10410
:102820008091A40408958091A30408950FB607FE33
:102830000EC020919F049091A00430E0291B310923
:10284000215031092F733327232B99F30DC0209189
:102850009F049091A00430E0291B310921503109D7
:102860002F733327232B61F0E091A004F0E0E858A8
:10287000FA4F80838091A0048F5F8F738093A004B0
:102880008091C10080628093C10008951F93CF930F
:10289000DF93EC0180E011E0180FFE01E80FF11D5D
:1028A0008081882321F00E941614812FF4CFDF91BC
:1028B000CF911F9108951F93CF93DF93EC0180E098
:1028C00011E0180FFE01E80FF11D8491882321F01B
:1028D0000E941614812FF4CFDF91CF911F9108959C
:1028E000DB018F939F930E94FE14BF91AF91A29F33
:1028F000800D911DA39F900DB29F900D11240895FE
:10290000AA1BBB1B51E107C0AA1FBB1FA617B70715
:1029100010F0A61BB70B881F991F5A95A9F7809531
:102920009095BC01CD01089597FB072E16F40094F5
:1029300007D077FD09D00E94801407FC05D03EF433
:10294000909581959F4F0895709561957F4F08955B
:10295000A1E21A2EAA1BBB1BFD010DC0AA1FBB1FA3
:10296000EE1FFF1FA217B307E407F50720F0A21B15
:10297000B30BE40BF50B661F771F881F991F1A9482
:1029800069F760957095809590959B01AC01BD01AC
:10299000CF010895052E97FB1EF400940E94E114C8
:1029A00057FD07D00E94A81407FC03D04EF40C94E6
:1029B000E11450954095309521953F4F4F4F5F4F13
:1029C000089590958095709561957F4F8F4F9F4F9B
:1029D0000895EE0FFF1F0590F491E02D0994A29F3A
:1029E000B001B39FC001A39F700D811D1124911DE3
:1029F000B29F700D811D1124911D08950E94EF1446
:102A0000A59F900DB49F900DA49F800D911D112442
:062A10000895F894FFCFC9
:102A1600030B443100802500002D00040B443000D8
:102A2600802500002D0002060024F400010C6174CC
:082A36006D6567613332380061
:102A3E00580041535500FF03FE030000010000C083
:102A4E00A801640030302F30302F3030303020303D
:102A5E00303A30303A303000E5559A15B53B121FFA
:102A6E005345523438362050726F6A656374203382
:102A7E00202D20496E746567726174696F6E0D0A40
:102A8E00004A6F736520536F6C69732053616C61DC
:102A9E007A6172000D0A00436F6E6E656374696F22
:102AAE006E2045737461626C69736865640D0A000B
:102ABE00436F6E6E656374696F6E204C6F73740D29
:102ACE000A002D0020002E001F1C1F1E1F1E1F1F80
:102ADE001E1F1E1F5345520053616E647900000085
:102AEE0000000000446F75676C6173000000000009
:102AFE005F554E41535349474E4544000000000078
:102B0E00444F5553414E55534100000D0A414C411F
:102B1E00524D3A200030302F30302F3030303020B0
:102B2E0030303A30303A303000494E56414C4944FC
:102B3E000D0A002F20004745542000646576696316
:102B4E006500202022767064223A7B00202020200F
:102B5E00226D6F64656C223A0020202020226D6168
:102B6E006E756661637475726572223A002020205C
:102B7E00202273657269616C5F6E756D626572227B
:102B8E003A0020202020226D616E75666163747597
:102B9E0072655F64617465223A0020202020226DE8
:102BAE0061635F61646472657373223A2200222C42
:102BBE00002020202022636F756E7472795F636F20
:102BCE006465223A0020202274637269745F68691A
:102BDE00223A00202022747761726E5F6869223A71
:102BEE000020202274637269745F6C6F223A002099
:102BFE002022747761726E5F6C6F223A0020202261
:102C0E0074656D7065726174757265223A0020206C
:102C1E00227374617465223A00435249545F4849E5
:102C2E00005741524E5F4849004E4F524D414C00A5
:102C3E005741524E5F4C4F00435249545F4C4F0028
:102C4E002020226C6F67223A5B00202020207B0020
:102C5E002020202020202274696D657374616D70B0
:102C6E00223A00226576656E746E756D223A0020EA
:102C7E002020207D0020205D0050555420002F2064
:102C8E003F006465766963653F002F203D007265E5
:102C9E007365743D002266616C736522004F4B4173
:102CAE00590D0A0022747275652200646576696397
:102CBE00652F00636F6E6669673F003D2000746389
:102CCE007269745F68693D00747761726E5F6869DE
:102CDE003D0074637269745F6C6F3D00747761724E
:102CEE006E5F6C6F3D0044454C45544520006C6F43
:022CFE0067006D
:00000001FF
