:100000000C943D000C945A000C945A000C945A0025
:100010000C945A000C945A000C947A010C945A00D7
:100020000C945A000C945A000C945A000C94DE095B
:100030000C945A000C945A000C9418020C945A0018
:100040000C945A000C945A000C9460100C94881173
:100050000C945A000C945A000C94EA020C945A0026
:100060000C945A000C945A006A008B0095009E0074
:10007000B100B700BD00DA00EA0011241FBECFEFC7
:10008000D8E0DEBFCDBF13E0A0E0B1E0E2E3F7E2ED
:1000900002C005900D92A43BB107D9F725E0A4EB6F
:1000A000B3E001C01D92AA3AB207E1F70E946B12B9
:1000B0000C9483130C9400000F931F93E091B403EE
:1000C000F091B503E930F10508F093C0EC5CFF4F07
:1000D0000C9463138417950764F083E090E0909389
:1000E000B5038093B40386E090E00E948E0186E021
:1000F0000FC0081719070CF47CC086E090E09093BD
:10010000B5038093B40388E090E00E948E0188E0FC
:100110000E944E0568C084179507FCF6081719075A
:100120000CF445C086E090E05AC0081719072CF778
:1001300084179507E4F183E090E051C08617970794
:1001400054F085E090E09093B5038093B4030E944F
:100150008E0185E020C0841795074CF582E090E081
:1001600022C086179707BCF385E090E028C0861769
:1001700097074CF584E090E032C02817390774F0F7
:1001800088E090E09093B5038093B40387E090E01B
:100190000E948E0187E00E944E0515C008171907BE
:1001A00014F581E090E09093B5038093B40385EF5C
:1001B00091E01BC0821793074CF488E090E0909385
:1001C000B5038093B4038AEC91E00FC008171907B8
:1001D0002CF209C028173907B4F787E090E0909314
:1001E000B5038093B40388EC91E01F910F910C94B8
:1001F0008A031F910F9108951092B5031092B403D2
:1002000008951092B5031092B403089520919E04AE
:1002100030919F04281739077CF4811524E0920758
:100220005CF490939D0480939C040E94A0010E9422
:10023000EC0180E090E0089581E090E00895209145
:10024000A2043091A3048217930794F020919C0498
:1002500030919D04281739075CF090939F04809398
:100260009E040E94A0010E94EC0180E090E00895AD
:1002700081E090E008952091A0043091A1048217BC
:1002800093074CF49093A1048093A0040E94A001D2
:1002900080E090E0089581E090E008952091A0042E
:1002A0003091A1042817390794F420919E043091CD
:1002B0009F04821793075CF49093A3048093A20495
:1002C0000E94A0010E94EC0180E090E0089581E08E
:1002D00090E00895F894E0E6F0E088E180838FE410
:1002E000808378940895A895089580916000109275
:1002F0006000FFCF1F920F920FB60F9211240E9441
:10030000860382E00E944E05C0E1D0E00E941C05F9
:100310002197E1F70E940402FFCF0895CF93DF9366
:10032000EC018CEC91E00E94310ABE0180E090E08B
:100330000E945F0A81EF91E0DF91CF910C94310A26
:1003400081E08093B603089580919804813461F42C
:1003500080919904833541F481E090E020919A04E2
:10036000253521F080E002C080E090E0E8E9F4E08B
:1003700020E03191230F34E0EB3AF307D1F7222349
:1003800011F080E090E0089562E170E082E091E099
:100390000E94FB0E42E162E071E080E490E00C9488
:1003A00030030E947903892BE1F742E168E974E0A8
:1003B00080E490E00E9464030E94A401892B49F428
:1003C0000E94C40142E168E974E080E490E00E9488
:1003D00064031092B60308950E947903892B99F45F
:1003E0008091B603882379F062E170E088E994E0B7
:1003F0000E94FB0E42E168E974E080E490E00E9414
:1004000030031092B60308958091B603882379F0E3
:1004100062E170E088E994E00E94FB0E42E168E945
:1004200074E080E490E00E944D031092B6030895BA
:100430001F920F920FB60F9211242F933F938F9319
:100440009F93AF93BF932091C1033091C2038091DA
:10045000B9039091BA032817390749F08091C10375
:100460009091C20301969093C2038093C10320919F
:10047000C3033091C4038091BB039091BC03281740
:10048000390749F08091C3039091C403019690937A
:10049000C4038093C3038091BD039091BE03A091D8
:1004A000BF03B091C0030196A11DB11D8093BD0390
:1004B0009093BE03A093BF03B093C003BF91AF91CD
:1004C0009F918F913F912F910F900FBE0F901F9092
:1004D000189589EF87BD82E084BD93E095BD78943F
:1004E00080936E001092BD031092BE031092BF0362
:1004F0001092C00308958230910550F4F894880F4B
:10050000991FFC01EF53FC4F8081918178940895ED
:1005100080E090E008958230910598F4880F991F4B
:10052000FC01EF53FC4F20813181FC01E754FC4F6B
:1005300081E090E0408151814217530721F080E033
:10054000089580E090E008950F931F93CF93DF9379
:10055000EC018B018091B7039091B803892B41F492
:100560000E94690281E090E09093B8038093B70302
:10057000C230D10570F48FB7F894CC0FDD1FFE01A7
:10058000E754FC4F11830083CF53DC4F198218824C
:100590008FBFDF91CF911F910F9108958091B70385
:1005A0009091B803892B41F40E94690281E090E0A8
:1005B0009093B8038093B703F8946091BD03709152
:1005C000BE038091BF039091C00378940895FA9A76
:1005D000F99A08951F920F920FB60F9211242F933C
:1005E0003F934F935F936F937F938F939F93AF93BB
:1005F000BF93EF93FF93E091EE048091AD04E81771
:1006000020F0FB981092AA041AC08091AB0490913C
:10061000AC0492BD81BD81E08E0F8093EE04F0E0CA
:10062000E255FB4F808180BD8091AB049091AC047A
:1006300001969093AC048093AB040E94E702FF9173
:10064000EF91BF91AF919F918F917F916F915F914A
:100650004F913F912F910F900FBE0F901F901895C3
:100660002091AA042111FCCF9093AC048093AB0499
:1006700081E08093AA041092EE044093AD04962F7B
:10068000AEEAB4E0FB018E2F891B841718F4819128
:100690008D93F9CF7894FB9A0895FB01861B970BF5
:1006A00050E0DC01AE0FBF1F9F01261B370B241744
:1006B000350748F4F999FECFB2BDA1BD219120BD07
:1006C000FA9AF99AEECF08952091AA042111FCCF4D
:1006D000FB01861B970B2E2F261B241748F49C0129
:1006E0002E0F3F1F32BD21BDF89A20B52193F3CFC5
:1006F00008958091AA0490E0089560E070E080E0A1
:1007000090E00E94A402219A29980895299A0895B8
:10071000299808959093C6038093C5031092C90346
:100720001092C8031092C70360E070E080E090E090
:100730000E94A4020C9488038091C5039091C60383
:10074000892B09F452C080E090E00E948B02892B33
:1007500009F44BC08091C703811134C02091C803B4
:100760003091C903E091C503F091C603E20FF31F76
:1007700080818032E9F03CF481111DC01092C903E0
:100780001092C80308958D3239F08E32A1F40E9480
:1007900086036AEF70E004C00E9486036EEE72E08A
:1007A00080E090E00E94A40281E08093C703089556
:1007B00068EE73E00BC02F5F3F4F3093C903209367
:1007C000C80308950E94880364E670E080E090E02A
:1007D0000E94A4021092C7038091C8039091C9039C
:1007E00001969093C9038093C803089585B18695B7
:1007F000817090E008958031910504F527E0289FED
:10080000A001299F500D1124FA01E353FC4F808170
:100810008132A0F480E090E020E0FA01E80FF91FB7
:10082000E353FC4F3081230F019687309105A9F7E0
:1008300081E090E0222321F080E0089580E090E0C4
:1008400008956F927F928F929F92AF92BF92CF92B4
:10085000DF92EF92FF920F931F93CF93DF930E944B
:100860007903892BE1F70DE314E0C0E8D0E0BE0185
:10087000635B7C4F47E0CE010E946403F801119254
:100880008F012796C03FD10591F74DECE42E43E050
:10089000F42E8701C0E0D0E0D12CB12C77247A94DB
:1008A000CE010E94FB03892B41F0F801808187155E
:1008B00020F4BC2E782EDD24D3942196095F1F4F9F
:1008C000C031D10569F7DD2009F46AC0B092CC03CC
:1008D0007092CB03CB2DD0E08E010F5F1F4F872C82
:1008E0002FE0A22E37E0932E6801FFE0CF22DD2417
:1008F000C6010E94FB03892B61F4B092CA038E01EA
:1009000001501109609780E1A82EB12C97E0692E63
:100910003AC09C9CF0019D9CF00D1124E353FC4FC8
:100920004081242F30E0882D90E001968F71992727
:100930002817390711F7C092CC034093CB03AA9430
:100940000F5F1F4FAA20C9F2842ECECFF70120815E
:1009500030E0872D90E04F968F719927281739073F
:1009600031F5C092CA03689CF001699CF00D112416
:10097000E353FC4F708001501109F7E0EF0EF11CBA
:100980000C171D07A1F0C801B5010E940E136C01E0
:100990004C019924C4010E94FB03892BB9F607C0BE
:1009A0008FE08093CC031092CB031092CA03DF91A7
:1009B000CF911F910F91FF90EF90DF90CF90BF905C
:1009C000AF909F908F907F906F900895EF92FF92DD
:1009D0001F93CF93DF930E947903892B39F5EDE3C1
:1009E000F4E0C0E0D0E081918823E1F017E01C9FA3
:1009F000C0011D9F900D11249C0123533C4F790190
:100A000067E070E0C9010E94FB0EC19FC001112484
:100A100047E0B70180589F4F0E943003C35CDB4F13
:100A2000188204C02196C031D105E9F6DF91CF913B
:100A30001F91FF90EF900895EF92FF921F93CF9335
:100A4000DF93EDE3F4E0C0E0D0E081918823E1F0B2
:100A500017E01C9FC0011D9F900D11249C01235382
:100A60003C4F790167E070E0C9010E94FB0EC19F15
:100A7000C001112447E0B70180589F4F0E944D03E9
:100A8000C35CDB4F188204C02196C031D105E9F662
:100A9000DF91CF911F91FF90EF900895EF92FF9219
:100AA0000F931F93CF93DF93E82EC091CC03D0E038
:100AB0002196CF70DD278091CA0390E00E94FB034E
:100AC000F82E8091CB038F5F813218F48093CB0393
:100AD00002C01092CB0387E08C9F80018D9F100D88
:100AE000112403531C4F8091CB03F80180830E9493
:100AF0001B06F8016183728383839483E582C0932C
:100B0000CC0367E070E0C8010E94FB0EC35CDB4FC2
:100B100081E088838091CC039091CA03891308C037
:100B2000FF2031F090E001968F7099278093CA03DF
:100B3000DF91CF911F910F91FF90EF900895EDEC11
:100B4000F3E0ADE3B4E08FEF4FEF5FEFBA0191E078
:100B50008083858341835283638374839D93379617
:100B600024E0ED33F207A1F78FE08093CC031092DD
:100B7000CA031092CB0308950F931F93CF93DF9373
:100B80000091CA03C02F10E0D0E0CE010E94FB0309
:100B9000892B29F02196CF701F5F0C13F5CF812F81
:100BA000DF91CF911F910F910895AF92BF92CF9295
:100BB000DF92EF92FF920F931F93CF93DF936B011E
:100BC0007C018A0159010E94BC0590E0A0E0B0E0E0
:100BD000C816D906EA06FB06F8F48091CA0390E02D
:100BE000C80ED91E8FE0C822DD2487E08C9DF0015D
:100BF0008D9DF00D1124E353FC4F81819281A381DF
:100C0000B481E80188839983AA83BB838581F50138
:100C1000808381E090E002C080E090E0DF91CF919E
:100C20001F910F91FF90EF90DF90CF90BF90AF900A
:100C300008950C94030A0C94130A6093EF047093C4
:100C4000F0048093F1049093F2040C941F0A9C0129
:100C500060E971E00E94FA12892B79F0C901837072
:100C60009927892B61F4C90164E670E00E94FA12A9
:100C70009C0181E0232B21F402C081E0089580E0F3
:100C800008952F923F924F925F926F927F928F9230
:100C90009F92AF92BF92CF92DF92EF92FF920F930B
:100CA0001F93CF93DF93CDB7DEB767970FB6F89456
:100CB000DEBF0FBECDBF2CE0E0E3F1E0AE014F5F41
:100CC0005F4F1A01DA0101900D922A95E1F7DC01DC
:100CD0002C91220F2056322F330F330F230F1196F2
:100CE0003C9111973153230F2D8713962C91139715
:100CF000022E000C330B205331096AE0629FA001E1
:100D0000639F500D11241496CC900C2C000CDD0820
:100D1000B0E3CB1AD108C40ED51E860101501109CB
:100D2000FC012681022E000C330B20533109E8EE22
:100D3000F3E02E9FA0012F9F500D3E9F500D1124D8
:100D4000DC0117962C911797022E000C330B2053C1
:100D5000310974E6729F7001739FF00C1124E40E48
:100D6000F51E18964C911897042E000C550B405305
:100D70005109649F9001659F300D1124E20EF31E0E
:100D800019962C911997F701E20FF11D27FDFA959D
:100D9000AF0158507A011B962C911B97220F2056B9
:100DA000322F330F330F230F1C963C911C97305377
:100DB000230F298B1E962C911E97220F2056322F1F
:100DC000330F330F230F1F963C911F973053230F80
:100DD0002A8B51962C915197220F2056322F330F88
:100DE000330F230F52968C918053280F2B8BCA01FF
:100DF0000E942706882321F05D85523008F0860185
:100E0000C70160E971E00E94FA12FC01DB0120E8F1
:100E100039E540E650EF0E9478132B013C01CF01E9
:100E200064E670E00E94FA12FC01DB0120E032EC83
:100E300047E15CEB0E9478134B015C01DF01B69542
:100E4000A795B695A79520E83FE146E857E00E94B0
:100E500078136B017C01DF01A370BB2720E833E32B
:100E600041EE51E00E9478136C8B7D8B8E8B9F8BB3
:100E7000F1018E2F82199D85891720F48191080F29
:100E8000111DF7CFA9892A2F30E0A0E1BEE00E9412
:100E900069136D877E878F87988BBA892B2F30E0F7
:100EA000ACE3B0E00E9469132D853E854F855889DB
:100EB000260F371F481F591FDA01C9013B89830FCD
:100EC000911DA11DB11D480E591E6A1E7B1E840C6A
:100ED000951CA61CB71CC80CD91CEA1CFB1C8C89D1
:100EE0009D89AE89BF89C80ED91EEA1EFB1ED80196
:100EF00020E831E541E050E00E947813DC01CB01AD
:100F00008C0D9D1DAE1DBF1D8093EF049093F004CA
:100F1000A093F104B093F20467960FB6F894DEBF85
:100F20000FBECDBFDF91CF911F910F91FF90EF903A
:100F3000DF90CF90BF90AF909F908F907F906F90F9
:100F40005F904F903F902F900C941F0AEF92FF926A
:100F50000F931F93CF93DF93CDB7DEB768970FB68C
:100F6000F894DEBF0FBECDBF7B012CE0E0E3F1E0E3
:100F7000DE011D9601900D922A95E1F78E010F5F1B
:100F80001F4F2CE0F80111922A95E9F70E942706DD
:100F90008A83DE011D9680E0F701408151819D9199
:100FA000F80121918F0130E0290F311D42175307BD
:100FB00040F0421B530BF701518340838F5F8C300D
:100FC00059F768960FB6F894DEBF0FBECDBFDF911C
:100FD000CF911F910F91FF90EF9008954F925F92E4
:100FE0006F927F928F929F92AF92BF92CF92DF9239
:100FF000EF92FF92CF93DF9300D0CDB7DEB72B01F6
:101000003C0181E090E0A0E0B0E020E8421629E554
:10101000520620E6620620EF720618F480E090E0A7
:10102000DC0120E931E0829F5001839FB00C929F48
:10103000B00C112480E3A81A88EFB80AC12CD12C77
:101040007601C39420E8421629E5520620E662069E
:1010500020EF720618F4C12CD12C7601A70196015D
:1010600060E879E580E690EF0E94EA127301620180
:10107000C61AD70AE80AF90A81E090E0A0E0B0E0D9
:10108000C11422ECD20627E1E2062CEBF20618F49A
:1010900080E090E0DC0144E6489F9001499F300DDC
:1010A0001124A20EB31E21E030E040E050E0C11454
:1010B00082ECD80687E1E8068CEBF80618F420E00D
:1010C00030E0A90160E072EC87E19CEB0E94EA123B
:1010D000A7019601261B370B480B590BCA01B90112
:1010E00020E83FE146E857E00E942213220F331F19
:1010F000220F331FA20EB31E20E833E341EE51E06E
:101100000E9422137501E20EF31E20E831E541E052
:1011100050E00E9422134B015C013A832983BE01F7
:101120006F5F7F4FC7010E94A607D82EC501B4018B
:1011300020E13EE040E050E00E94221329013A0104
:101140004B015C0166ED71E084E191E00E9432099F
:101150006D2D70E06F5F7F4F42E084E191E00E946F
:10116000450969817A816F5F7F4F42E087E191E0B5
:101170000E94450944E0B7018AE191E00E944509D7
:1011800042E0B2018FE191E00E944509C501B4013E
:101190002CE330E040E050E00E94221349015A0164
:1011A0006B017C0142E0B40182E291E00E944509BA
:1011B00042E0B60185E291E00E94450984E191E0B8
:1011C0000F900F90DF91CF91FF90EF90DF90CF9035
:1011D000BF90AF909F908F907F906F905F904F9057
:1011E00008950F931F930E94130A0091EF0410912A
:1011F000F0042091F1043091F204600F711F821FFE
:10120000931F1F910F910C94EE07FB01480F591F7C
:101210008417950729F02191DC012D93CD01F8CF9A
:101220000895480F591F8417950721F0FC01619319
:10123000CF01F9CF0895FB01480F591F8417950777
:1012400059F0DC013D91CD012191321740F0231777
:10125000A8F781E090E0089580E090E008958FEF96
:101260009FEF0895FC01DB018D91BD01882311F0F2
:101270008193F9CF10820895FC019F01281B390B3F
:1012800041914111FACFC90108959F92AF92BF9247
:10129000CF92DF92EF92FF920F931F93CF93DF9342
:1012A00000D000D01F92CDB7DEB7FC016B019E01CC
:1012B0002F5F3F4F8E010A5F1F4FEE24E394F12C06
:1012C0009AE0992E9E9C50019F9CB00C1124C6015F
:1012D000B5010E94FA12B7010E94FA12D9016D936A
:1012E0009D01C61AD10867FDD3947501A017B107F7
:1012F00049F760E070E084E090E050E0D8012E9182
:101300008D01211105C06115710511F4009741F49B
:10131000841795072CF4205D219361E070E004C0F0
:10132000841795070CF43196019740F70F900F90B2
:101330000F900F900F90DF91CF911F910F91FF9021
:10134000EF90DF90CF90BF90AF909F90089588EC82
:1013500080937C0086E880937A00089580917A00DB
:10136000829586958695837091E08927817090E0BB
:101370000895EAE7F0E08081806480830895809199
:1013800078002091790030E0322F2227A901330F15
:10139000660B770B9A01AB01282BA5E6B0E00E9403
:1013A000781324E630E040E050E00E944413DA0174
:1013B000C90181519140A109B10908951F920F926D
:1013C0000FB60F9211248F939F93AF93BF93809189
:1013D0004D0490914E04A0914F04B0915004019699
:1013E000A11DB11D80934D0490934E04A0934F0412
:1013F000B0935004BF91AF919F918F910F900FBE0A
:101400000F901F90189583E294EF9093890080933A
:101410008800109280008CE080938100789482E0B4
:1014200080936F0008952FB7F89460914D047091E8
:101430004E0480914F04909150042FBF08958FB7B0
:10144000F89410924D0410924E0410924F04109292
:1014500050048FBF08950E944D10789408950C9405
:101460001112CF93DF93EC018991882319F00E9428
:101470001112FACFDF91CF910895CF93C82F90E04A
:1014800024E0959587952A95E1F78A3010F4805DE0
:1014900001C0895C0E9411128C2F8F708A3010F06D
:1014A000895C01C0805DCF910C941112CF93C82F3D
:1014B000892F0E943D0A8C2FCF910C943D0A2F92C8
:1014C0003F924F925F926F927F928F929F92AF92D4
:1014D000BF92CF92DF92EF92FF920F931F93CF9321
:1014E000DF93CDB7DEB763970FB6F894DEBF0FBEBC
:1014F000CDBF6B017C0197FF0DC0F094E094D094B8
:10150000C094C11CD11CE11CF11C81E090E09B8BBC
:101510008A8B02C01B8A1A8AFE0131965F018E01F6
:10152000055F1F4FF98BE88B66246394712C812C27
:10153000912CAAE0B0E09301A4010E9478131B0152
:101540002C01C701B6019101A2010E94441393012D
:10155000A4010E944413E889F9892193F98BE88B4F
:10156000822F220F990BAA0BBB0BC81AD90AEA0AC1
:10157000FB0A310142010E171F07D9F68A899B89A0
:10158000892B19F08DE20E94111220E030E0F80161
:1015900082918F01811106C02115310519F4EA15D8
:1015A000FB0529F4805D0E94111221E030E00A154C
:1015B0001B0569F763960FB6F894DEBF0FBECDBF6B
:1015C000DF91CF911F910F91FF90EF90DF90CF901F
:1015D000BF90AF909F908F907F906F905F904F9053
:1015E0003F902F9008950C94E7110C940E12FF92E7
:1015F0000F931F93CF93DF93EC01062FF72E1882E2
:101600000E94E71110E08823D9F00E94BB118823C3
:10161000B9F00E94C211803210F089931F5FE02F51
:10162000FF2D482F50E02191222339F0022E000C8B
:10163000330B42175307B9F702C08D3051F71882A8
:10164000812FDF91CF911F910F91FF9008950F93FC
:101650001F93CF93DF938C01EC01699170E080E0E0
:1016600090E00E945F0A0C5F1F4F8EE20E941112F1
:10167000699170E080E090E00E945F0AC017D10796
:10168000A1F781EF91E0DF91CF911F910F910C9421
:10169000310ACF93DF93EC0182E20E942F0ACE0140
:1016A0000E94310A82E2DF91CF910C942F0A8AEED8
:1016B00091E00C94310ADC01809151048D3229F4BF
:1016C0008FEF9FEFE2E5F4E004C081E090E0E1E518
:1016D000F4E011961C921E926AE040812D913C919B
:1016E00011974423C1F0629FA001639F500D112404
:1016F00011965C934E93219130ED320F3A30B8F44D
:10170000022E000C330B20533109240F351F119684
:101710003C932E93E2CF289FA001299F500D389F24
:10172000500D11244D935C9381E090E0089580E08A
:1017300090E008950C942F0A0C94310A0C943D0A01
:101740000C94560A0C945F0A0C94E7110C940E1238
:10175000FF920F931F93CF93DF93EC01062FF72E89
:1017600018820E94E71110E08823D9F00E94BB1173
:101770008823B9F00E94C211803210F089931F5F54
:10178000E02FFF2D482F50E02191222339F0022E27
:10179000000C330B42175307B9F702C08D3051F7D5
:1017A0001882812FDF91CF911F910F91FF900895A3
:1017B00064EF71E081E594E00E94A80B882349F072
:1017C000E82FF0E0E05BFB4F80818F3289F38032BD
:1017D00079F308950F931F93CF93DF9300D000D038
:1017E0001F92CDB7DEB764EF71E081E594E00E940F
:1017F000A80B67EF71E081E594E00E94E00E892B71
:1018000009F0BBC164EF71E081E594E00E94A80B90
:1018100062E773E081E594E00E94E00E892B09F015
:1018200081C264EF71E081E594E00E94A80B6CEF47
:1018300071E081E594E00E94E00E892B09F072C20C
:101840008FE093E00E94310A81EF91E00E94310A1B
:1018500083E092E00E94310A81EF91E00E94310A18
:101860008DE092E00E94310A87EF94E00E94490BDC
:101870008CE20E942F0A81EF91E00E94310A8AE1F6
:1018800092E00E94310A83E095E00E94490B8CE2CD
:101890000E942F0A81EF91E00E94310A8EE292E0CD
:1018A0000E94310A8FE095E00E94490B8CE20E9471
:1018B0002F0A81EF91E00E94310A83E492E00E94B6
:1018C000310A60911B0570911C0580911D05909156
:1018D0001E050E94EE078C01FC01128682E20E9426
:1018E0002F0AC8010E94310A82E20E942F0A8CE26C
:1018F0000E942F0A81EF91E00E94310A8BE592E06D
:101900000E94310A80911F050E943D0A00E215E005
:101910008AE30E942F0AF80181918F010E943D0AFB
:10192000F5E005321F07A1F78FE692E00E94310A29
:1019300081EF91E00E94310A82E792E00E94310A31
:1019400085E295E00E94490B81EF91E00E94310A07
:1019500082E393E00E94310A81EF91E00E94310A14
:1019600086E892E00E94310A60919C0470919D0487
:10197000072E000C880B990B0E945F0A8CE20E94D4
:101980002F0A81EF91E00E94310A84E992E00E94DF
:10199000310A60919E0470919F04072E000C880B01
:1019A000990B0E945F0A8CE20E942F0A81EF91E05E
:1019B0000E94310A82EA92E00E94310A6091A004FA
:1019C0007091A104072E000C880B990B0E945F0AEE
:1019D0008CE20E942F0A81EF91E00E94310A80EB95
:1019E00092E00E94310A6091A2047091A304072E34
:1019F000000C880B990B0E945F0A8CE20E942F0A50
:101A000081EF91E00E94310A8EEB92E00E94310A50
:101A10006091000170910101072E000C880B990B59
:101A20000E945F0A8CE20E942F0A81EF91E00E94DF
:101A3000310A8FEC92E00E94310A8091000190916E
:101A4000010120919C0430919D04821793071CF0A2
:101A50008AED92E020C020919E0430919F0482176D
:101A600093071CF082EE92E016C02091A204309100
:101A7000A304281739071CF48AEE92E00CC02091C9
:101A8000A0043091A104281739071CF481EF92E0DB
:101A900002C089EF92E00E94310A8CE20E942F0A74
:101AA00081EF91E00E94310A81E093E00E94310AC7
:101AB00081EF91E00E94310A10E00E94BC051817E6
:101AC00008F048C0812F90E0A0E0B0E09E012B5FBD
:101AD0003F4FAE014F5F5F4FBC01CD010E94D50566
:101AE000112339F08CE20E942F0A81EF91E00E94CD
:101AF000310A8BE093E00E94310A81EF91E00E946D
:101B0000310A81E193E00E94310A82E20E942F0AA9
:101B100069817A818B819C810E94EE070E94310A43
:101B200082E20E942F0A8CE20E942F0A84E293E054
:101B30000E94310A6D8170E080E090E00E945F0AAF
:101B400081EF91E00E94310A80E393E00E94310A24
:101B50001F5FB3CF81EF91E00E94310A86E393E0EB
:101B60000E94310A81EF91E00E94310A84E393E000
:101B70000E94310A81EF91E017C16AE373E081E5C9
:101B800094E00E94E00E892B09F0D8C064EF71E068
:101B900081E594E00E94A80B62E773E081E594E0A0
:101BA0000E94E00E892B09F0BDC06FE373E081E570
:101BB00094E00E94A80B63E473E081E594E00E9446
:101BC000E00E892B89F56BE473E081E594E00E94D7
:101BD000A80B6FE473E081E594E00E94E00E892B8E
:101BE00009F0A0C064EF71E081E594E00E94A80BC9
:101BF00066E573E081E594E00E94E00E892B29F40C
:101C00008EE593E00E94310A8FC065E673E081E5BE
:101C100094E00E94E00E892B09F084C08EE593E0E9
:101C20000E94310A0E9475016CE673E081E594E040
:101C30000E94E00E892B09F075C06FE373E081E527
:101C400094E00E94A80B64E773E081E594E00E94B1
:101C5000E00E892B09F066C06CE773E081E594E043
:101C60000E94A80B6FE773E081E594E00E94E00E0C
:101C7000892B91F464EF71E081E594E00E94A80B58
:101C8000CE0101960E945B0B892B09F44BC0898120
:101C90009A810E9406014FC069E873E081E594E0F3
:101CA0000E94E00E892B89F464EF71E081E594E0F5
:101CB0000E94A80BCE0101960E945B0B892B91F12B
:101CC00089819A810E941F0136C063E973E081E532
:101CD00094E00E94E00E892B89F464EF71E081E5C5
:101CE00094E00E94A80BCE0101960E945B0B892B09
:101CF000C9F089819A810E943B011DC06DE973E0A2
:101D000081E594E00E94E00E892B61F464EF71E0BC
:101D100081E594E00E94A80BCE0101960E945B0B26
:101D2000892B29F40E94570B0E94D80B3FC0898150
:101D30009A810E944E01892BA9F1F4CF67EA73E0E2
:101D400081E594E00E94E00E892B61F764EF71E079
:101D500081E594E00E94A80B62E773E081E594E0DE
:101D60000E94E00E892BF1F664EF71E081E594E0CA
:101D70000E94A80B6CE673E081E594E00E94E00EFF
:101D8000892B81F664EF71E081E594E00E94A80B55
:101D90006FEA73E081E594E00E94E00E892B11F672
:101DA0000E949F058EE593E00E94310A0F900F90EC
:101DB0000F900F900F90DF91CF911F910F91089589
:101DC000DC01FB019D91992341F08191891784F0F9
:101DD0009817C4F78FEF9FEF089581E090E020817E
:101DE000211102C080E090E09195819591090895BC
:101DF00081E090E00895DC0190E020E061507109FD
:101E0000422F50E0FD01E40FF51F4617570720F45D
:101E10008081980F2F5FF4CF91959083089561157D
:101E200071058105910541F060932C0170932D019E
:101E300080932E0190932F01211531054105510505
:101E400041F0209328013093290140932A015093B7
:101E50002B0108954F925F926F927F928F929F9283
:101E6000AF92BF92CF92DF92EF92FF92CF93DF9328
:101E700000D000D0CDB7DEB72B013C0129833A83D7
:101E80004B835C83C0902801D0902901E0902A0107
:101E9000F0902B01A701960144275527A9E6B0E948
:101EA0000E9478136701EE24FF244B015C018C0C27
:101EB0009D1CAE1CBF1C8092280190922901A0920B
:101EC0002A01B0922B01C0902C01D0902D01E090FE
:101ED0002E01F0902F01A701960144275527A0E578
:101EE000B6E40E9478136701EE24FF24C60ED71EC5
:101EF000E81EF91EC0922C01D0922D01E0922E0115
:101F0000F0922F01D40199278827BC01CD016C0DD7
:101F10007D1D8E1D9F1D29813A814B815C81241975
:101F20003509460957090E942213CB01840D951DDE
:101F30000F900F900F900F90DF91CF91FF90EF9047
:101F4000DF90CF90BF90AF909F908F907F906F90D9
:101F50005F904F900895CF93DB01FC0120812D32DB
:101F600021F401966FEF7FEF02C061E070E01196FF
:101F70001C921E92FC01CAE020818D919C911197C8
:101F80002223C1F0C89FA001C99F500D11241196B2
:101F90005C934E93219180ED820F8A30B8F4022E2B
:101FA000000C330B20533109240F351F11963C933D
:101FB0002E93E2CF869F9001879F300D969F300D24
:101FC00011242D933C9381E090E002C080E090E0EA
:101FD000CF9108958091F304833561F48091F404E6
:101FE000853441F481E090E02091F504223521F020
:101FF00080E002C080E090E0E3EFF4E020E0319187
:10200000230F35E0EB32F307D1F7222311F080E004
:1020100090E00895CF93DF93CDB7DEB7E7970FB683
:10202000F894DEBF0FBECDBF87E3ECE3F1E0DE0145
:10203000119601900D928A95E1F767E370E0CE0169
:1020400001960E94FB0E47E3BE016F5F7F4F80E069
:1020500090E00E943003E7960FB6F894DEBF0FBE03
:10206000CDBFDF91CF9108950E947903892BE1F7CD
:1020700047E363EF74E080E090E00E9464030E9415
:10208000EA0F892B49F40E940A1047E363EF74E0DA
:1020900080E090E00C94640308951092C00087E6FD
:1020A00090E09093C5008093C400E1ECF0E088E1FB
:1020B000808386E08093C2008081806A8083089557
:1020C0001F920F920FB60F9211242F933F938F936D
:1020D0009F93EF93FF9380919704882309F4F0C0B6
:1020E0008091C60090919604992309F4E3C090EE84
:1020F000980F9F3518F08D3009F059C02091930446
:102100009091940430E0291B3109215031092F733B
:102110003327232B61F0E0919404F0E0E65DFA4F61
:102120008083909194049F5F9F7390939404209177
:1021300091049091920430E0291B3109215031091A
:102140002F733327232B89F0E0919204F0E0E659B6
:10215000FA4F8083909192049F5F9F7390939204B3
:102160009091C10090629093C1008D3009F0C5C07C
:10217000809191042091920490E0821B9109019733
:102180008F739927892B69F0E0919204F0E0E6596A
:10219000FA4F8AE08083809192048F5F8F738093DF
:1021A0009204809195048F5F80939504A6C0883037
:1021B00011F08F37C1F5809194042091930490E041
:1021C000821B91098F739927892B09F496C0E0919E
:1021D0009404F0E0E65DFA4F808180919404815090
:1021E0008F7380939404809191042091920490E0E5
:1021F000821B910901978F739927892B09F47DC060
:10220000E0919204F0E0E659FA4F8FE780838091E5
:1022100092048F5F8F73809392048091C1008062DB
:102220008093C1006AC0843009F067C08091940433
:102230002091930490E0821B91098F739927892B39
:1022400031F1E0919404F0E0E65DFA4F80818D3049
:10225000F1F0809193042091940490E0821B910905
:1022600001978F739927892B91F0E0919404F0E006
:10227000E65DFA4F8DE08083809194048F5F8F73C9
:1022800080939404809195048F5F8093950480914E
:1022900093042091940490E0821B910901978F731D
:1022A0009927892B51F1E0919404F0E0E65DFA4F13
:1022B00084E019C0833009F581E0809396041DC045
:1022C000809193042091940490E0821B91090197DE
:1022D0008F739927892B79F0E0919404F0E0809135
:1022E000C600E65DFA4F8083809194048F5F8F7300
:1022F0008093940402C08091C600FF91EF919F915A
:102300008F913F912F910F900FBE0F901F901895B6
:102310001F920F920FB60F9211242F938F939F93BA
:10232000EF93FF93809192042091910490E0821B9F
:1023300091098F739927892B79F0E0919104F0E04E
:10234000E659FA4F80818093C600809191048F5F97
:102350008F738093910405C08091C1008F7D80931D
:10236000C100FF91EF919F918F912F910F900FBE20
:102370000F901F9018958091940490919304891B5D
:102380008F730895809194042091930490E0821BB0
:1023900091098F739927892BC1F0E0919304F0E0A4
:1023A000E65DFA4F8081909193049F5F9F739093B5
:1023B000930490919704992349F08D3039F49091CA
:1023C0009504915090939504089580E0089581E0DC
:1023D00080939704809194042091930490E0821B51
:1023E00091098F739927892BB1F0E0919304F0E064
:1023F000E65DFA4F8081843071F410929604E0918A
:102400009304F0E0E65DFA4F8081809193048F5F42
:102410008F7380939304809196040895809195041E
:1024200008950FB607FE0EC020919104909192047A
:1024300030E0291B3109215031092F733327232B19
:1024400099F30DC0209191049091920430E0291BE2
:102450003109215031092F733327232B61F0E0918B
:102460009204F0E0E659FA4F8083809192048F5FE6
:102470008F73809392048091C10080628093C10029
:1024800008951F93CF93DF93EC0180E011E0180FC4
:10249000FE01E80FF11D8081882321F00E941112B6
:1024A000812FF4CFDF91CF911F9108951F93CF9388
:1024B000DF93EC0180E011E0180FFE01E80FF11D41
:1024C0008491882321F00E941112812FF4CFDF9193
:1024D000CF911F9108950E94D1010E9434100E9453
:1024E00019060E9421040E948D010E942B0A0E945D
:1024F0007D030E94A7090E946A010E94010183E7EF
:1025000091E00E94310A84E991E00E94310A81EF52
:1025100091E00E94310A80E00E944E050E94B909B4
:1025200068E873E181E090E00E94A402C0E00E94AC
:1025300073010E949C0381E090E00E948B02892B32
:1025400009F10E94BF09909301018093000100915D
:10255000A2041091A3042091A0043091A104409101
:102560009E0450919F0460919C0470919D040E9470
:102570005C000E94B90968EE73E081E090E00E947F
:10258000A402D5CFC11109C00E94A40B882379F2FF
:102590008DE991E00E94310A1BC00E94A60B88239E
:1025A00059F00E94EA0B0E94A40B811111C086EB26
:1025B00091E00E949C0BBACF0E947903892B11F401
:1025C0000E94E6040E947903892B11F40E94EC0119
:1025D000C1E0ADCFDB018F939F930E947813BF9131
:1025E000AF91A29F800D911DA39F900DB29F900D62
:1025F00011240895AA1BBB1B51E107C0AA1FBB1FD2
:10260000A617B70710F0A61BB70B881F991F5A957E
:10261000A9F780959095BC01CD01089597FB072EF1
:1026200016F4009407D077FD09D00E94FA1207FC37
:1026300005D03EF4909581959F4F089570956195D2
:102640007F4F0895A1E21A2EAA1BBB1BFD010DC0EE
:10265000AA1FBB1FEE1FFF1FA217B307E407F50752
:1026600020F0A21BB30BE40BF50B661F771F881F2E
:10267000991F1A9469F760957095809590959B01C4
:10268000AC01BD01CF010895052E97FB1EF4009407
:102690000E945B1357FD07D00E94221307FC03D052
:1026A0004EF40C945B1350954095309521953F4F17
:1026B0004F4F5F4F089590958095709561957F4F2E
:1026C0008F4F9F4F0895EE0FFF1F0590F491E02D5F
:1026D0000994A29FB001B39FC001A39F700D811DFB
:1026E0001124911DB29F700D811D1124911D08951B
:1026F0000E946913A59F900DB49F900DA49F800D1B
:0A270000911D11240895F894FFCFF5
:10270A00030B443100802500002D00040B443000E7
:10271A00802500002D0002060024F400010C6174DB
:08272A006D6567613332380070
:10273200580041535500FF03FE030000010000C092
:10274200A801640030302F30302F3030303020304C
:10275200303A30303A303000E5559A15B53B121F09
:102762001F1C1F1E1F1E1F1F1E1F1E1F5345520010
:1027720053616E647900000000000000446F7567C9
:102782006C617300000000005F554E41535349478E
:102792004E45440000000000444F5553414E5553EE
:1027A2004100005345523438362050726F6A6563D7
:1027B200742033202D20496E746567726174696FCD
:1027C2006E0D0A00594F55524E414D4500436F6EF2
:1027D2006E656374696F6E2045737461626C6973B0
:1027E2006865640D0A00436F6E6E656374696F6E8F
:1027F200204C6F73740D0A002D002E000D0A414CFF
:1028020041524D3A200030302F30302F30303030AE
:102812002030303A30303A303000494E56414C493F
:10282200440D0A002F200047455420006465766954
:10283200636500202022767064223A7B00202020EB
:1028420020226D6F64656C223A0020202020226DC8
:10285200616E756661637475726572223A0020203A
:1028620020202273657269616C5F6E756D6265729C
:10287200223A0020202020226D616E756661637409
:102882007572655F64617465223A002020202022FF
:102892006D61635F61646472657373223A22002220
:1028A2002C002020202022636F756E7472795F6382
:1028B2006F6465223A0020202274637269745F6833
:1028C20069223A00202022747761726E5F68692261
:1028D2003A0020202274637269745F6C6F223A009E
:1028E200202022747761726E5F6C6F223A00202082
:1028F2002274656D7065726174757265223A00208A
:1029020020227374617465223A00435249545F482D
:1029120049005741524E5F4849004E4F524D414C7B
:10292200005741524E5F4C4F00435249545F4C4F47
:10293200002020226C6F67223A5B00202020207B3F
:10294200002020202020202274696D657374616D3F
:1029520070223A00226576656E746E756D223A00B9
:10296200202020207D0020205D0050555420002F83
:10297200203F006465766963653F002F203D007249
:10298200657365743D002266616C736522004F4B6E
:1029920041590D0A002274727565220064657669D8
:1029A20063652F00636F6E6669673F003D200074A8
:1029B200637269745F68693D00747761726E5F6803
:1029C200693D0074637269745F6C6F3D0074776176
:1029D200726E5F6C6F3D0044454C45544520006C5F
:0429E2006F6700001B
:00000001FF
