:100000000C9445000C9462000C9462000C94620005
:100010000C9462000C9462000C9430260C946200E4
:100020000C9462000C9462000C9462000C94591DB4
:100030000C9462000C9462000C949F070C94620074
:100040000C9462000C9462000C9466260C948E272B
:100050000C9462000C9462000C946F0E0C9462007D
:100060000C9462000C946200A704ED044405F904AA
:100070000B051D052F055505B01CCF1CDD1CE71C0D
:10008000011D0B1D161D2F1D391D11241FBECFEF85
:10009000D8E0DEBFCDBF14E0A0E0B1E0EEE4F2E5D1
:1000A00002C005900D92AC35B107D9F726E0ACE55A
:1000B000B4E001C01D92A236B207E1F70E94940598
:1000C0000C9411290C940000CF93DF9300D0CDB78E
:1000D000DEB79A838983209156053091570589812F
:1000E0009A81281739076CF489819A819093550574
:1000F000809354050E9427070E94730780E090E0D8
:1001000002C081E090E00F900F90DF91CF910895B1
:10011000CF93DF9300D0CDB7DEB79A838983209148
:1001200054053091550589819A8182179307B4F45B
:1001300020915A0530915B0589819A8128173907EA
:100140006CF489819A8190935705809356050E949B
:1001500027070E94730780E090E002C081E090E0F2
:100160000F900F90DF91CF910895CF93DF9300D040
:10017000CDB7DEB79A83898320915A0530915B050C
:1001800089819A81821793076CF489819A8190936F
:100190005905809358050E9427070E94730780E045
:1001A00090E002C081E090E00F900F90DF91CF913E
:1001B0000895CF93DF9300D0CDB7DEB79A838983BC
:1001C000209158053091590589819A81281739075E
:1001D000B4F4209156053091570589819A81821790
:1001E00093076CF489819A8190935B0580935A05FB
:1001F0000E9427070E94730780E090E002C081E020
:1002000090E00F900F90DF91CF910895CF93DF93FF
:1002100000D0CDB7DEB70E94821C9A8389832091DB
:1002200054053091550589819A81821793071CF0F6
:1002300080E391E026C020915605309157058981D1
:100240009A81821793071CF088E391E01AC02091ED
:1002500058053091590589819A81281739071CF072
:1002600080E491E00EC020915A0530915B058981B0
:100270009A81281739071CF088E491E002C080E5D4
:1002800091E00F900F90DF91CF910895CF93DF937E
:10029000CDB7DEB727970FB6F894DEBF0FBECDBF40
:1002A00067E571E080E00E94CD1868E671E080E0CB
:1002B0000E94CD1861E971E080E00E94CD1865EAE6
:1002C00071E080E00E94CD1868EA71E080E00E9451
:1002D000CD186AEA71E080E00E94EE186EEA71E0E3
:1002E00080E00E94CD1861EB71E080E00E94EE1882
:1002F00067EB71E080E00E94CD186FEA75E080E066
:100300000E94EE1869EB71E080E00E94CD186BEB63
:1003100071E080E00E94EE1867EB71E080E00E94DF
:10032000CD186BEB75E080E00E94EE1869EB71E090
:1003300080E00E94CD1868EC71E080E00E94EE1829
:1003400067EB71E080E00E94CD1867EC75E080E01B
:100350000E94EE1869EB71E080E00E94CD1866ED16
:1003600071E080E00E94EE1867EB71E080E00E948F
:10037000CD188091D3059091D405A091D505B09169
:10038000D605AC01BD0180E00E94011969EB71E066
:1003900080E00E94CD1867EE71E080E00E94EE18C8
:1003A00067EB71E080E00E94CD1867ED75E080E0BA
:1003B0000E942C1969EB71E080E00E94CD1863EF78
:1003C00071E080E00E94EE1867EB71E080E00E942F
:1003D000CD186DED75E080E00E94EE1860E072E0EF
:1003E00080E00E94CD1863E072E080E00E94EE1889
:1003F00067EB71E080E00E94CD18809154059091E8
:100400005505BC0180E00E94621969EB71E080E053
:100410000E94CD186CE072E080E00E94EE1867EB5D
:1004200071E080E00E94CD188091560590915705AB
:10043000BC0180E00E94621969EB71E080E00E94DB
:10044000CD1865E172E080E00E94EE1867EB71E084
:1004500080E00E94CD188091580590915905BC010B
:1004600080E00E94621969EB71E080E00E94CD1883
:100470006EE172E080E00E94EE1867EB71E080E0D0
:100480000E94CD1880915A0590915B05BC0180E0D7
:100490000E94621969EB71E080E00E94CD1867E26A
:1004A00072E080E00E94EE1867EB71E080E00E944D
:1004B000CD180E94821CBC0180E00E94621969EB89
:1004C00071E080E00E94CD1863E372E080E00E945A
:1004D000EE1867EB71E080E00E94CD180E940601E3
:1004E000BC0180E00E94EE1869EB71E080E00E94A0
:1004F000CD1869E372E080E00E94EE186DE372E0CF
:1005000080E00E94CD181A8219825CC089819A818C
:10051000092E000CAA0BBB0B9E01295F3F4FAE01B9
:100520004D5F5F4FBC01CD010E945A1168EA71E036
:1005300080E00E94CD1860E472E080E00E94EE1836
:1005400067EB71E080E00E94CD188B819C81AD81CA
:10055000BE81BC01CD010E945214BC0180E00E940A
:10056000EE1869EB71E080E00E94CD186AE472E059
:1005700080E00E94EE1867EB71E080E00E94CD18E9
:100580008F81882F90E0BC0180E00E94621960E5B5
:1005900072E080E00E94CD180E944111882F90E007
:1005A0009C012150310989819A812817390729F046
:1005B00069EB71E080E00E94CD1889819A810196F3
:1005C0009A8389830E944111282F30E089819A8182
:1005D000821793070CF49ACF62E572E080E00E94E4
:1005E000CD1865EA71E080E00E94CD1880E00E949D
:1005F000D016000027960FB6F894DEBF0FBECDBF11
:10060000DF91CF910895CF93DF93CDB7DEB767E544
:1006100071E080E00E94CD1861E971E080E00E9405
:10062000CD1865EA71E080E00E94CD1880E00E945C
:10063000D0160000DF91CF910895CF93DF93CDB70F
:10064000DEB765E572E080E00E94CD1861E971E0F7
:1006500080E00E94CD1865EA71E080E00E94CD182C
:1006600080E00E94D0160000DF91CF910895CF93D3
:10067000DF9300D01F92CDB7DEB78EE18A83198257
:100680000EC0CE01039641E050E0BC0180E00E9424
:1006900019178B818F3241F089818F5F898399810E
:1006A0008A81981770F301C0000099818A81981798
:1006B00010F080E00AC06FE672E080E00E94881AC5
:1006C000882311F480E001C081E00F900F900F901B
:1006D000DF91CF910895CF93DF93CDB7DEB70E941E
:1006E0003703DF91CF910895CF93DF93CDB7DEB776
:1006F0000E943703882311F480E08CC066E772E023
:1007000080E00E94881A882309F463C06FE772E0D2
:1007100080E00E94881A882349F089E892E00E94CC
:10072000AC1D10925F0410925E0438C068EA72E05B
:1007300080E00E94881A882359F082EB92E00E94A0
:10074000AC1D81E090E090935F0480935E0426C02E
:1007500061ED72E080E00E94881A882359F08BEDE9
:1007600092E00E94AC1D82E090E090935F04809341
:100770005E0414C06AEF72E080E00E94881A882349
:1007800059F084E093E00E94AC1D83E090E09093E8
:100790005F0480935E0402C080E03CC060E674E0C9
:1007A00080E00E94271B882311F480E033C08091F1
:1007B000600490916104092E000CAA0BBB0BBC01D4
:1007C000CD010E94DA1D85EA91E00E94AC1D81E016
:1007D00021C063E273E080E00E94881A8823C9F098
:1007E0006BE273E080E00E94881A882319F010926F
:1007F00062040DC063E373E080E00E94881A8823DE
:1008000021F081E08093620402C080E003C081E0B7
:1008100001C080E0DF91CF910895CF93DF9300D0A6
:10082000CDB7DEB70E943703882311F480E017C0EC
:100830006AE373E080E00E94881A882311F480E064
:100840000EC0CE010196BC0180E00E94571789813D
:10085000803211F080E003C00E94241181E00F90EB
:100860000F90DF91CF910895CF93DF93CDB7DEB78F
:1008700080916204882329F00E9403030E944D2680
:1008800048C080915E0490915F0481309105B9F079
:100890008130910530F082309105F9F0039759F1DC
:1008A00038C080916004909161040E946400892B9B
:1008B00019F40E9403032DC00E941D032AC08091D9
:1008C0006004909161040E948800892B19F40E94B1
:1008D00003031FC00E941D031CC0809160049091FF
:1008E00061040E94B500892B19F40E94030311C012
:1008F0000E941D030EC080916004909161040E94CB
:10090000D900892B19F40E94030302C00E941D0321
:1009100000000000DF91CF910895CF93DF93CDB712
:10092000DEB780915C0490915D04CC01A0E0B0E062
:1009300040E050E027E030E0841B950B2817390792
:1009400008F4D2C08C5C9F4FFC010C94EA286FE342
:1009500073E080E00E94881A882369F083E090E0C9
:10096000909364048093630483E090E090935D042B
:1009700080935C04B9C063E473E080E00E94881A4D
:10098000882369F084E090E090936404809363048A
:1009900084E090E090935D0480935C04A5C067E4DC
:1009A00073E080E00E94881A882369F085E090E077
:1009B000909364048093630485E090E090935D04D9
:1009C00080935C0491C081E090E090935D048093FB
:1009D0005C048AC080E00E94DE1A80E00E94531707
:1009E000892BC1F70E941D0310925D0410925C04D4
:1009F0007BC00E946B03882339F481E090E09093E0
:100A00005D0480935C0470C086E090E090935D0488
:100A100080935C0469C00E947403882339F481E0E8
:100A200090E090935D0480935C045EC086E090E06B
:100A300090935D0480935C0457C00E940D0488234A
:100A400039F481E090E090935D0480935C044CC0A5
:100A500086E090E090935D0480935C0445C06EE472
:100A600073E080E00E94881A882339F481E090E0E6
:100A700090935D0480935C0437C082E090E0909393
:100A80005D0480935C0430C080E00E94661A882375
:100A900021F480E00E94DE1AF7CF000087E090E0AA
:100AA00090935D0480935C041FC0809163049091D7
:100AB0006404039719F40E94460111C080916304F5
:100AC00090916404049719F40E94340408C0809142
:100AD000630490916404059711F40E94030310923B
:100AE0005D0410925C0400000000DF91CF91089536
:100AF000CF93DF93CDB7DEB710925D0410925C0404
:100B0000109262040000DF91CF910895CF93DF939C
:100B1000CDB7DEB781E090E090935D0480935C04F4
:100B20000000DF91CF910895EF92FF920F931F93F2
:100B3000CF93DF9300D000D000D0CDB7DEB70E94B6
:100B4000A61D0E94020F0E9418200E9458070E94B2
:100B5000A60F0E947D120E949A1B0E946A1C0E948E
:100B600014230E94A11C0E9478054AE553E062E626
:100B700073E080E793E00E9469151B821C821D824E
:100B80001E829E012D5F3F4FAE014D5F5F4FCE0134
:100B90000396BC0187ED95E00E94C520000000EAA5
:100BA0001FE020E030E040E65AEE60E070E087EDC4
:100BB00095E00E94B90D892B91F385E793E00E949F
:100BC000AC1D0E946E080E94A21E0E9471087C014A
:100BD0000E9474088C010E946E089701A801BC0154
:100BE00087ED95E00E94C52083E00E94D31085E048
:100BF0000E949E1184E00E94D3100E943F2680E054
:100C00000E94D31080E090E00E9462060E94CD1501
:100C10000E947C1C68E873E181E090E00E942B0850
:100C20000E944B260E94210F81E090E00E94120852
:100C3000892B11F10E94821C9A838983E0915A05C5
:100C4000F0915B052091580530915905409156056A
:100C500050915705609154057091550589819A818D
:100C60008F010E94A21C0E947C1C68EE73E081E050
:100C700090E00E942B08D4CF80E00E944716882382
:100C800049F060E97FE180E00E94871680E00E94E1
:100C90008D16C6CF80E00E945317181619061CF453
:100CA0000E948D04BDCF0E94FE0E892B11F40E947C
:100CB0006B100E94FE0E892B09F0B2CF0E947307C1
:100CC000AFCF08958F929F92AF92BF92EF92FF9213
:100CD0000F931F93CF93DF9300D000D01F92CDB717
:100CE000DEB77C018091800390918103A091820303
:100CF000B091830389839A83AB83BC8348EB52E230
:100D0000BE016F5F7F4F83E00E94DE1548EB52E229
:100D1000BE016F5F7F4F83E00E94F5190E94551559
:100D20000E94FF1B8C010E9455159801AC0160E0E8
:100D300070E083E00E94AA180E9455150E94FF1BD4
:100D40008C0121E030E04DEE53E0BC0183E00E94D5
:100D5000AA180F5F1F4F87EC95E00E94FF1B9C01B4
:100D600047EC55E0B80183E00E94AA1887EC95E0B3
:100D70000E94FF1B080F191F21E030E04DEE53E0E9
:100D8000B80183E00E94AA18B8016F5F7F4FC701C6
:100D900024E0969587952A95E1F78A30910510F021
:100DA000895C01C0805D8D8321E030E0AE014B5F46
:100DB0005F4F83E00E94AA18B8016E5F7F4F8E2DAF
:100DC0008F7097012F7033272A30310510F0895C1E
:100DD00001C0805D8D8321E030E0AE014B5F5F4F4D
:100DE00083E00E94AA1883E00E941A1A0E94550804
:100DF0004B015C0125EF820E21E0921EA11CB11C6B
:100E00000E945508681579058A059B05C9F783E096
:100E10000E948B1685EE93E00E94AC1DB70180E026
:100E200090E00E94DA1D86E094E00E94AC1D0F90D5
:100E30000F900F900F900F90DF91CF911F910F9116
:100E4000FF90EF90BF90AF909F908F90089581E0BA
:100E500080936504089580915005813461F48091F8
:100E60005105833541F481E090E02091520525350C
:100E700021F080E002C080E090E0E0E5F5E020E0D5
:100E80003191230F35E0E336F307D1F7222311F038
:100E900080E090E0089562E170E082E091E00E94DD
:100EA000DF1E42E162E071E080E490E00C94B50E58
:100EB0000E94FE0E892BE1F742E160E575E080E4D7
:100EC00090E00E94E90E0E942B07892B49F40E94B2
:100ED0004B0742E160E575E080E490E00E94E90E96
:100EE0001092650408950E94FE0E892B99F480915A
:100EF0006504882379F062E170E080E595E00E9466
:100F0000DF1E42E160E575E080E490E00E94B50EEE
:100F100010926504089580916504882379F062E158
:100F200070E080E595E00E94DF1E42E160E575E03B
:100F300080E490E00E94D20E1092650408951F9202
:100F40000F920FB60F9211242F933F938F939F937D
:100F5000AF93BF9320917004309171048091680425
:100F6000909169042817390749F080917004909195
:100F7000710401969093710480937004209172041F
:100F80003091730480916A0490916B04281739079B
:100F900049F08091720490917304019690937304C8
:100FA0008093720480916C0490916D04A0916E0402
:100FB000B0916F040196A11DB11D80936C049093B4
:100FC0006D04A0936E04B0936F04BF91AF919F9195
:100FD0008F913F912F910F900FBE0F901F901895FA
:100FE00089EF87BD82E084BD93E095BD78948093BE
:100FF0006E0010926C0410926D0410926E041092A8
:101000006F0408958230910550F4F894880F991F69
:10101000FC01E059FB4F808191817894089580E034
:1010200090E008958230910598F4880F991FFC0193
:10103000E059FB4F20813181FC01E859FB4F81E0F1
:1010400090E0408151814217530721F080E00895DC
:1010500080E090E008950F931F93CF93DF93EC010E
:101060008B018091660490916704892B41F40E9462
:10107000F00781E090E09093670480936604C230AB
:10108000D10570F48FB7F894CC0FDD1FFE01E8593D
:10109000FB4F11830083C059DB4F198218828FBF29
:1010A000DF91CF911F910F910895809166049091E7
:1010B0006704892B41F40E94F00781E090E090934F
:1010C000670480936604F89460916C0470916D04D9
:1010D00080916E0490916F047894089582E894E072
:1010E000089586E894E008958AE894E008958EE8EB
:1010F00094E0089582E994E0089544E150E060E0CE
:101100000E960C94D41B08952F923F924F925F92AB
:101110006F927F928F929F92AF92BF92CF92DF9207
:10112000EF92FF920F931F93CF93DF93CDB7DEB76C
:10113000E6970FB6F894DEBF0FBECDBF8C012A0133
:101140003B0119011AAA19AA0E9455084B015C011A
:1011500082E00E945517892BF9F40E945508DC01A2
:10116000CB0188199909AA09BB09481659066A06CC
:101170007B0608F4A7C00E9455086B017C0123E39D
:10118000C20ED11CE11CF11C0E9455086C157D0596
:101190008E059F05C9F7DCCF48E050E0BE016D5DCC
:1011A0007F4F82E00E94B117FFA08BA18BA78CA17B
:1011B0008CA78DA18DA78EA18EA7E8A442E250E056
:1011C000BE016F5F7F4F82E00E94B117898182303C
:1011D00009F076C08F2D90E0982F88278E0D911DF5
:1011E0008334910509F06CC06D817E818F81988573
:1011F0000E94F028F101608371838283938346E02B
:1012000050E0B801685F7F4FCE014D960E94DE1B13
:10121000892B09F059C0F10180819181A281B381AC
:10122000F801408151816281738184179507A60777
:10123000B70708F449C04481558166817781481712
:1012400059076A077B0708F43FC044E050E0BE013D
:101250006F5E7F4FC8010E960E94C81B8EECE82E71
:10126000F12C41E050E0BE01615D7F4F82E00E94C1
:10127000B117F1E0EF1AF108A1F7C80182969CAB13
:101280008BABF801B696FEABEDAB1801FAE22F0E70
:10129000311C08976C012E019BE2490E511C38014C
:1012A000E2E16E0E711C5801F6E1AF0EB11C48016F
:1012B0002EE1820E911C82E00E945517892B31F499
:1012C0008AA924C18FEF22C180E020C141E050E013
:1012D000BE01605D7F4F82E00E94B11788A9833311
:1012E00009F4E0C0D0F48130B9F128F3833009F477
:1012F00042C0863009F0F5C041E050E0BE016F5CAD
:101300007F4F82E00E94B11744E050E0B40182E0D8
:101310000E94B117E12CF12C51C08A3309F48DC021
:1013200030F4853359F0863309F45BC0DAC08B336F
:1013300009F49EC08F3F09F4BECFD3C041E050E016
:10134000BE016F5C7F4F82E00E94B11741E050E028
:10135000BE016E5C7F4F0BC041E050E0BE016F5C90
:101360007F4F82E00E94B11744E050E0B30182E079
:101370000E94B117A0CF41E050E0BE016F5C7F4FEB
:1013800082E00E94B11744E050E0B50182E00E9483
:10139000B117E12CF12C89A990E00497E816F90621
:1013A0000CF089CF41E050E0BE01615D7F4F82E0EB
:1013B0000E94B1178FEFE81AF80AEDCF89A990E0E3
:1013C0000497E816F9060CF076CF41E050E0BE0134
:1013D000615D7F4F82E00E94B1179FEFE91AF90A21
:1013E000EDCF41E050E0BE016F5C7F4F82E00E9494
:1013F000B117F801828D811109C0838D811106C05A
:10140000848D811103C0858D882319F04C145D04EF
:1014100021F444E050E0B601AACF89A99FEF980FCC
:1014200099AB882309F447CF41E050E0BE01615DEC
:101430007F4F82E00E94B117F0CF41E050E0BE0143
:101440006F5C7F4F82E00E94B11744E050E06DA9CD
:101450007EA982E00E94B117F80166A177A180A55C
:1014600091A50E94F02866A377A380A791A723CF18
:1014700041E050E0BE016F5C7F4F82E00E94B117F7
:1014800044E050E0B10182E00E94B117F80162A58A
:1014900073A584A595A50E94F02862A773A784A7C9
:1014A00095A709CF41E050E0BE016F5C7F4F82E01D
:1014B0000E94B11744E050E06BA97CA982E00E9431
:1014C000B117F80162A173A184A195A10E94F0282F
:1014D00062A373A384A395A366A777A780AB91AB00
:1014E000EACE41E050E0BE016F5C7F4F82E00E9497
:1014F000B11789A99FEF980F99AB882309F4DBCE28
:1015000041E050E0BE01615D7F4FF0CFE6960FB63F
:10151000F894DEBF0FBECDBFDF91CF911F910F9129
:10152000FF90EF90DF90CF90BF90AF909F908F9003
:101530007F906F905F904F903F902F9008950E9600
:10154000089542960895469608954A9608954E96AF
:10155000089580E3FB0180833296842F82958F70FB
:1015600090E1899F401911244A3014F4405D01C074
:10157000495C4293482F8111F0CF0895AF92BF92FA
:10158000DF92EF92FF920F931F93CF93DF93CDB72C
:10159000DEB7AA970FB6F894DEBF0FBECDBF8C01A1
:1015A000D62EF42EE52E40E250E060E0CE0101960A
:1015B0000E94D41B8091840390918503A09186039F
:1015C000B09187038DA39EA3AFA3B8A743E450E0D7
:1015D000BE016B5D7F4F82E00E94F519892B09F4F3
:1015E000FBC081E089838A8386E08B831C82F801BB
:1015F00064817581868197810E94F02869A37AA30E
:101600008BA39CA344E050E0BE016F5D7F4FCE01F1
:1016100005960E94C81BE986FA8680E890E09AA7A2
:1016200089A742E050E0BE01675D7F4FCE010B9677
:101630000E94C81B2CE130E0AE014F5F5F4F60E0BD
:1016400070E082E00E94AA1840E250E060E0CE0123
:1016500001960E94D41B5801F8E0AF0EB11C46E081
:1016600050E0B501CE0101960E94C81B20E130E098
:10167000AE014F5F5F4F6CE170E082E00E94AA18FC
:1016800040E250E060E0CE0101960E94D41B8CE263
:10169000E82EF12C20E230E0AE014F5F5F4FB70142
:1016A00082E00E94AA1880E2E80EF11CECEEEE1631
:1016B000F10481F783E6898392E89A8393E59B831B
:1016C0008C8385E38D8381E08E83DF829DE3988721
:1016D00097E099878A8746E050E0B501CE010B96E6
:1016E0000E94C81B8CE0898B8FEE93E00E94FF1B49
:1016F0008A5F8A8B6FEE73E0CE0143960E94F51BE2
:10170000F8014385BE01675E7F4FC8010E94A90AA8
:10171000F8014485BE01655E7F4FC8010E94A90A99
:10172000F8014585BE01635E7F4FC8010E94A90A8A
:101730002EE130E0AE014F5F5F4F6CEE70E082E073
:101740000E94AA18F3E0DF1227C082E3898384E0B5
:101750008A83F80196859B8397859C8390899D83D6
:1017600091899E8396E39F838887828D8987838D65
:101770008A87848D8B87858D8C872CE030E0AE0145
:101780004F5F5F4F6AE071E082E00E94AA1866E155
:1017900071E080E090E004C06AE071E080E090E0F9
:1017A00027E3298326E02A8331E03B8333E03C832F
:1017B0002D832FE02E832AE32F832BE328872FEF1F
:1017C000298729E030E0AE014F5F5F4F82E00E9441
:1017D000AA1882E00E941A1AAA960FB6F894DEBFE1
:1017E0000FBECDBFDF91CF911F910F91FF90EF9072
:1017F000DF90BF90AF9008952F923F924F925F92EB
:101800006F927F928F929F92AF92BF92CF92DF9210
:10181000EF92FF920F931F93CF93DF9300D000D0EE
:10182000CDB7DEB78C0120ED37E040E050E061E05D
:1018300070E080E090E00E940E1FA0E0B0E0F801B0
:1018400084839583A683B78380839183A283B383A4
:1018500082E00E948B1664E470E082E00E948316AE
:10186000882309F42EC10E9455084B015C01212CEC
:10187000312C7801F2E4EF0EF11C48EE442E43E0E7
:10188000542E612C712C52E0C52ED7018C918330DF
:1018900009F4FEC081111FC0F80184819581A681E1
:1018A000B7810196A11DB11D84839583A683B7835B
:1018B0000E945508681979098A099B09A3019201B8
:1018C0000E94A928A90161E0C8010E94BE0A81E026
:1018D000D7018C93C5C08430F1F4F80184819581DF
:1018E000A681B7810196A11DB11D84839583A6832E
:1018F000B7830E945508681979098A099B09A301D1
:1019000092010E94A928A90163E0C8010E94BE0AB1
:10191000D701CC92A5C0813051F5F80142AD53AD4D
:1019200064AD75AD9E012F5F3F4FC8010E948408D2
:10193000D82EF2E08F138FC089819A81AB81BC8150
:10194000F80184839583A683B7830E94550868199C
:1019500079098A099B09A30192010E94A928A9017A
:1019600063E0C8010E94BE0AD701DC9279C08230D0
:1019700009F076C0F80142AD53AD64AD75AD9E017E
:101980002F5F3F4FC8010E948408D82EF5E08F13C7
:101990005CC0E3E0D701EC93F80182A193A1A4A17C
:1019A000B5A1892B8A2B8B2B41F484E893E0A0E02E
:1019B000B0E082A393A3A4A3B5A3F80186A197A145
:1019C000A0A5B1A5892B8A2B8B2B61F482A193A1B1
:1019D000A4A1B5A1B695A7959795879586A397A33A
:1019E000A0A7B1A7F80182A593A5A4A5B5A5892BA9
:1019F0008A2B8B2BA9F482A193A1A4A1B5A1AC0140
:101A0000BD0123E076956795579547952A95D1F7BF
:101A1000841B950BA60BB70B82A793A7A4A7B5A70A
:101A2000F80186A197A1A0A5B1A586A797A7A0AB0D
:101A3000B1AB82A593A5A4A5B5A582AB93ABA4AB8E
:101A4000B5AB22242394312C0BC0F6E08F1303C0D6
:101A5000D7011C9205C0BFEFDB1202C0F701108254
:101A6000F1E02F16310409F410CF0E945508DC0173
:101A7000CB0188199909AA09BB09F80126A937A938
:101A800040AD51AD281739074A075B0708F0FDCE76
:101A900082E00E948B16F80184819581A681B7812E
:101AA0000196A11DB11D84839583A683B7830E94EF
:101AB0005508F801FE966083718382839383C10188
:101AC00002C080E090E00F900F900F900F90DF9198
:101AD000CF911F910F91FF90EF90DF90CF90BF902B
:101AE000AF909F908F907F906F905F904F903F90BE
:101AF0002F900895CF92DF92EF92FF920F931F9352
:101B0000CF93DF93EC016B011AA21BA21CA21DA2B2
:101B10001EA21FA218A619A61AA61BA61CA61DA6C1
:101B20002EAB3FAB48AF59AFEAAEFBAE0CAF1DAF2B
:101B30008C01085F1F4F46E050E060E0C8010E9442
:101B4000D41BCE010E947D0846E050E0B601C801DA
:101B50000E94C81BFE01EE5BFF4F1082CE01DF9199
:101B6000CF911F910F91FF90EF90DF90CF900C9449
:101B7000FC0BEF92FF920F931F93780189019A015A
:101B8000AB01BC0184E794E00E947A0D1F910F9194
:101B9000FF90EF900895CF92DF92EF92FF920F9314
:101BA0001F93CF93DF93EC010E9455086B017C01DA
:101BB0008E01025C1F4FF80180819181A281B38167
:101BC000A7019601281B390B4A0B5B0BCA01B9010F
:101BD000683E33E073078105910508F441C028EEA3
:101BE00033E040E050E00E94A928C61AD70AE80A6C
:101BF000F90AF801C082D182E282F3828EA59FA504
:101C0000A8A9B9A969017A01CC0CDD1CEE1CFF1C46
:101C10008C159D05AE05BF0528F41EA61FA618AAA3
:101C200019AA08C0821B930BA40BB50B8EA79FA704
:101C3000A8ABB9AB8AA99BA9ACA9BDA98C159D0578
:101C4000AE05BF0528F41AAA1BAA1CAA1DAA08C023
:101C5000821B930BA40BB50B8AAB9BABACABBDABA0
:101C60008EA59FA5A8A9B9A9892B8A2B8B2B69F4CE
:101C7000FE01EE5BFF4F8081833039F484E0808386
:101C8000CE010E94FC0B019602C080E090E04AA9C0
:101C90005BA96CA97DA9452B462B472B81F4FE013E
:101CA000EE5BFF4F2081233011F0211108C010821C
:101CB000CE010E947D08CE010E94FC0B0396DF91AD
:101CC000CF911F910F91FF90EF90DF90CF900895EB
:101CD00084E794E00C94CB0DFA9AF99A08951F9238
:101CE0000F920FB60F9211242F933F934F935F9350
:101CF0006F937F938F939F93AF93BF93EF93FF93D4
:101D0000E091A60580916505E81720F0FB981092F8
:101D100062051AC0809163059091640592BD81BDF2
:101D200081E08E0F8093A605F0E0EA59FA4F80819A
:101D300080BD809163059091640501969093640540
:101D4000809363050E946C0EFF91EF91BF91AF915C
:101D50009F918F917F916F915F914F913F912F91C3
:101D60000F900FBE0F901F901895209162052111C2
:101D7000FCCF909364058093630581E080936205B6
:101D80001092A60540936505962FA6E6B5E0FB01E7
:101D90008E2F891B841718F481918D93F9CF789435
:101DA000FB9A0895FB01861B970B50E0DC01AE0FF8
:101DB000BF1F9F01261B370B2417350748F4F999DD
:101DC000FECFB2BDA1BD219120BDFA9AF99AEECF06
:101DD0000895209162052111FCCFFB01861B970B12
:101DE0002E2F261B241748F49C012E0F3F1F32BDB7
:101DF00021BDF89A20B52193F3CF08958091620513
:101E000090E0089560E070E080E090E00E942B0890
:101E1000219A29980895299A0895299808959093C8
:101E2000B8048093B7041092BB041092BA041092C5
:101E3000B90460E070E080E090E00E942B080C9410
:101E40000D0F8091B7049091B804892B09F452C00A
:101E500080E090E00E941208892B09F44BC0809129
:101E6000B904811134C02091BA043091BB04E091CF
:101E7000B704F091B804E20FF31F80818032E9F0DB
:101E80003CF481111DC01092BB041092BA04089555
:101E90008D3239F08E32A1F40E940B0F6AEF70E0A0
:101EA00004C00E940B0F6EEE72E080E090E00E9492
:101EB0002B0881E08093B904089568EE73E00BC0AD
:101EC0002F5F3F4F3093BB042093BA0408950E94C4
:101ED0000D0F64E670E080E090E00E942B08109205
:101EE000B9048091BA049091BB0401969093BB040D
:101EF0008093BA04089585B18695817090E0089525
:101F00008031910504F527E0289FA001299F500DFD
:101F10001124FA01E154FB4F80818132A0F480E06A
:101F200090E020E0FA01E80FF91FE154FB4F308107
:101F3000230F019687309105A9F781E090E02223D5
:101F400021F080E0089580E090E008956F927F9204
:101F50008F929F92AF92BF92CF92DF92EF92FF92B9
:101F60000F931F93CF93DF930E94FE0E892BE1F70F
:101F70000FE215E0C0E8D0E0BE01615C7B4F47E0B6
:101F8000CE010E94E90EF80111928F012796C03F01
:101F9000D10591F74FEBE42E44E0F42E8701C0E029
:101FA000D0E0D12CB12C77247A94CE010E94800FFE
:101FB000892B41F0F8018081871520F4BC2E782E02
:101FC000DD24D3942196095F1F4FC031D10569F7F5
:101FD000DD2009F46AC0B092BE047092BD04CB2D1E
:101FE000D0E08E010F5F1F4F872C2FE0A22E37E02D
:101FF000932E6801FFE0CF22DD24C6010E94800FEE
:10200000892B61F4B092BC048E01015011096097D4
:1020100080E1A82EB12C97E0692E3AC09C9CF0017B
:102020009D9CF00D1124E154FB4F4081242F30E0A2
:10203000882D90E001968F7199272817390711F79D
:10204000C092BE044093BD04AA940F5F1F4FAA2004
:10205000C9F2842ECECFF701208130E0872D90E0A9
:102060004F968F7199272817390731F5C092BC0414
:10207000689CF001699CF00D1124E154FB4F7080C5
:1020800001501109F7E0EF0EF11C0C171D07A1F02C
:10209000C801B5010E9495286C014C019924C40126
:1020A0000E94800F892BB9F607C08FE08093BE0491
:1020B0001092BD041092BC04DF91CF911F910F913B
:1020C000FF90EF90DF90CF90BF90AF909F908F9058
:1020D0007F906F900895EF92FF921F93CF93DF93BD
:1020E0000E94FE0E892B39F5EFE2F5E0C0E0D0E06A
:1020F00081918823E1F017E01C9FC0011D9F900D86
:1021000011249C0121543B4F790167E070E0C90123
:102110000E94DF1EC19FC001112447E0B701805813
:102120009F4F0E94B50EC15DDA4F188204C0219600
:10213000C031D105E9F6DF91CF911F91FF90EF906B
:102140000895EF92FF921F93CF93DF93EFE2F5E0B4
:10215000C0E0D0E081918823E1F017E01C9FC0012E
:102160001D9F900D11249C0121543B4F790167E084
:1021700070E0C9010E94DF1EC19FC001112447E029
:10218000B70180589F4F0E94D20EC15DDA4F18826E
:1021900004C02196C031D105E9F6DF91CF911F919E
:1021A000FF90EF900895EF92FF920F931F93CF93BC
:1021B000DF93E82EC091BE04D0E02196CF70DD27DA
:1021C0008091BC0490E00E94800FF82E8091BD04A5
:1021D0008F5F813218F48093BD0402C01092BD0459
:1021E00087E08C9F80018D9F100D112401541B4F9F
:1021F0008091BD04F80180830E947F12F801618301
:10220000728383839483E582C093BE0467E070E0A9
:10221000C8010E94DF1EC15DDA4F81E08883809192
:10222000BE049091BC04891308C0FF2031F090E0F7
:1022300001968F7099278093BC04DF91CF911F91F5
:102240000F91FF90EF900895EFEBF4E0AFE2B5E06F
:102250008FEF4FEF5FEFBA0191E080838583418379
:102260005283638374839D93379625E0EF32F207A0
:10227000A1F78FE08093BE041092BC041092BD04BD
:1022800008950F931F93CF93DF930091BC04C02F49
:1022900010E0D0E0CE010E94800F892B29F021961A
:1022A000CF701F5F0C13F5CF812FDF91CF911F915E
:1022B0000F910895AF92BF92CF92DF92EF92FF926B
:1022C0000F931F93CF93DF936B017C018A01590118
:1022D0000E94411190E0A0E0B0E0C816D906EA06DD
:1022E000FB06F8F48091BC0490E0C80ED91E8FE084
:1022F000C822DD2487E08C9DF0018D9DF00D112416
:10230000E154FB4F81819281A381B481E8018883EC
:102310009983AA83BB838581F501808381E090E066
:1023200002C080E090E0DF91CF911F910F91FF906C
:10233000EF90DF90CF90BF90AF9008954F925F9253
:102340006F927F928F929F92AF92BF92CF92DF92C5
:10235000EF92FF920F931F93CF93DF93CDB7DEB72A
:10236000CA57D1090FB6F894DEBF0FBECDBFF82E05
:102370008091880390918903A0918A03B0918B0387
:10238000E9968CAF9DAFAEAFBFAFE99783E00E94F7
:102390004E16882329F06BE770E083E00E948316D5
:1023A00050E3E52E6E0101E4C00ED11C63E2462E1F
:1023B000512C612C712CFF2009F482C0F6010E2DE6
:1023C00011920A95E9F7F601408251826282738286
:1023D0000BE710E09E012B583F4F40E350E0B60161
:1023E00083E00E945F17C09709F06AC00E945508F9
:1023F0004B015C01F9EE8F0EF3E09F1EA11CB11C96
:102400000E945508681579058A059B05C9F783E080
:102410000E945517009709F451C08E0107581F4FAD
:102420009E012F583F4FAC01BE016F5F7F4F83E08D
:102430000E94D217C09709F041C069A5862F90E08D
:10244000A0E0B0E0BA2FA92F982F88272AA5820FE5
:10245000911DA11DB11DBA2FA92F982F88272BA53B
:10246000820F911DA11DB11DBA2FA92F982F88276A
:102470004CA550E060E070E04058534169417C4B0E
:102480008A019B01080F191F2A1F3B1FC901B801B0
:102490000E9452140E94A51286EF93E00E94AC1D88
:1024A0000E9455150E94AC1D83E094E00E94AC1D73
:1024B00083E00E948B1681E090E007C0FA947BCF06
:1024C00083E00E948B1680E090E0C658DF4F0FB685
:1024D000F894DEBF0FBECDBFDF91CF911F910F915A
:1024E000FF90EF90DF90CF90BF90AF909F908F9034
:1024F0007F906F905F904F9008950C947E1D0C9488
:102500008E1D6093A7057093A8058093A9059093ED
:10251000AA050C949A1D9C0160E971E00E94812833
:10252000892B79F0C90183709927892B61F4C9013E
:1025300064E670E00E9481289C0181E0232B21F455
:1025400002C081E0089580E008952F923F924F925B
:102550005F926F927F928F929F92AF92BF92CF9233
:10256000DF92EF92FF920F931F93CF93DF93CDB73C
:10257000DEB767970FB6F894DEBF0FBECDBF2CE075
:10258000ECE8F3E0AE014F5F5F4F1A01DA01019012
:102590000D922A95E1F7DC012C91220F2056322F63
:1025A000330F330F230F11963C9111973153230FA3
:1025B0002D8713962C911397022E000C330B20536A
:1025C00031096AE0629FA001639F500D11241496A7
:1025D000CC900C2C000CDD08B0E3CB1AD108C40E53
:1025E000D51E860101501109FC012681022E000C26
:1025F000330B20533109E8EEF3E02E9FA0012F9F0B
:10260000500D3E9F500D1124DC0117962C91179709
:10261000022E000C330B2053310974E6729F7001B7
:10262000739FF00C1124E40EF51E18964C91189728
:10263000042E000C550B40535109649F9001659F77
:10264000300D1124E20EF31E19962C911997F70103
:10265000E20FF11D27FDFA95AF0158507A011B9644
:102660002C911B97220F2056322F330F330F230F3D
:102670001C963C911C973053230F298B1E962C914E
:102680001E97220F2056322F330F330F230F1F9622
:102690003C911F973053230F2A8B51962C915197C1
:1026A000220F2056322F330F330F230F52968C9167
:1026B0008053280F2B8BCA010E948B12882321F094
:1026C0005D85523008F08601C70160E971E00E9423
:1026D0008128FC01DB0120E839E540E650EF0E944B
:1026E00006292B013C01CF0164E670E00E9481289D
:1026F000FC01DB0120E032EC47E15CEB0E940629A3
:102700004B015C01DF01B695A795B695A79520E82A
:102710003FE146E857E00E9406296B017C01DF019A
:10272000A370BB2720E833E341EE51E00E94062965
:102730006C8B7D8B8E8B9F8BF1018E2F82199D85EB
:10274000891720F48191080F111DF7CFA9892A2F2D
:1027500030E0A0E1BEE00E94F7286D877E878F877A
:10276000988BBA892B2F30E0ACE3B0E00E94F728B9
:102770002D853E854F855889260F371F481F591FC5
:10278000DA01C9013B89830F911DA11DB11D480EBE
:10279000591E6A1E7B1E840C951CA61CB71CC80CF7
:1027A000D91CEA1CFB1C8C899D89AE89BF89C80E87
:1027B000D91EEA1EFB1ED80120E831E541E050E0B9
:1027C0000E940629DC01CB018C0D9D1DAE1DBF1D95
:1027D0008093A7059093A805A093A905B093AA0597
:1027E00067960FB6F894DEBF0FBECDBFDF91CF91D5
:1027F0001F910F91FF90EF90DF90CF90BF90AF901F
:102800009F908F907F906F905F904F903F902F9010
:102810000C949A1DEF92FF920F931F93CF93DF9327
:10282000CDB7DEB768970FB6F894DEBF0FBECDBF49
:102830007B012CE0ECE8F3E0DE011D9601900D92A7
:102840002A95E1F78E010F5F1F4F2CE0F8011192DE
:102850002A95E9F70E948B128A83DE011D9680E09B
:10286000F701408151819D91F80121918F0130E064
:10287000290F311D4217530740F0421B530BF7013C
:10288000518340838F5F8C3059F768960FB6F89468
:10289000DEBF0FBECDBFDF91CF911F910F91FF9093
:1028A000EF9008954F925F926F927F928F929F92D6
:1028B000AF92BF92CF92DF92EF92FF92CF93DF93CE
:1028C00000D0CDB7DEB72B013C0181E090E0A0E065
:1028D000B0E020E8421629E5520620E6620620EF25
:1028E000720618F480E090E0DC0120E931E0829F7C
:1028F0005001839FB00C929FB00C112480E3A81A62
:1029000088EFB80AC12CD12C7601C39420E8421676
:1029100029E5520620E6620620EF720618F4C12C63
:10292000D12C7601A701960160E879E580E690EF69
:102930000E94712873016201C61AD70AE80AF90ACF
:1029400081E090E0A0E0B0E0C11422ECD20627E1E3
:10295000E2062CEBF20618F480E090E0DC0144E69D
:10296000489F9001499F300D1124A20EB31E21E013
:1029700030E040E050E0C11482ECD80687E1E80680
:102980008CEBF80618F420E030E0A90160E072EC6E
:1029900087E19CEB0E947128A7019601261B370B4B
:1029A000480B590BCA01B90120E83FE146E857E05E
:1029B0000E94A928220F331F220F331FA20EB31E1D
:1029C00020E833E341EE51E00E94A9287501E20EB0
:1029D000F31E20E831E541E050E00E94A9284B01B8
:1029E0005C013A832983BE016F5F7F4FC7010E945C
:1029F0000A14D82EC501B40120E13EE040E050E0C9
:102A00000E94A92829013A014B015C0169E074E0A8
:102A100084E191E00E94F51B6D2D70E06F5F7F4FA8
:102A200042E084E191E00E94081C69817A816F5F35
:102A30007F4F42E087E191E00E94081C44E0B7012B
:102A40008AE191E00E94081C42E0B2018FE191E02E
:102A50000E94081CC501B4012CE330E040E050E0C6
:102A60000E94A92849015A016B017C0142E0B4018E
:102A700082E291E00E94081C42E0B60185E291E00A
:102A80000E94081C84E191E00F900F90DF91CF919C
:102A9000FF90EF90DF90CF90BF90AF909F908F907E
:102AA0007F906F905F904F9008950F931F930E94B7
:102AB0008E1D0091A7051091A8052091A9053091C0
:102AC000AA05600F711F821F931F1F910F910C9415
:102AD0005214EF92FF920F931F93CF93DF938C01C9
:102AE000EB017A01009721F0209711F0452B29F492
:102AF0008DE194E00E94AC1DFFCF62E374E00E9480
:102B0000C41E892B29F48DE194E00E94AC1D44C0C1
:102B10006CE374E0CE010E94C41E892BA1F365E42E
:102B200074E0C7010E94C41E892B69F34CE050E099
:102B3000B8018FEA95E00E94C81B1092BA054CE0DC
:102B400050E0BE018BEB95E00E94C81B1092C605B9
:102B50004CE050E0B70187EC95E00E94C81B109252
:102B6000D205F80180818E7F8093D7058181809383
:102B7000D80582818093D90588818093DA0589817F
:102B80008093DB058A818093DC05DF91CF911F91D3
:102B90000F91FF90EF900895FFCF0E94C1278823E7
:102BA00061F00E94C8278435C1F78DE494E00E944B
:102BB000AC1D8FEF90E00C9462060895EF92FF92A7
:102BC0001F93CF93DF9300D000D000D0CDB7DEB7F6
:102BD000182F7A0186E0E8E9F3E0DE011196019012
:102BE0000D928A95E1F7FB0181818F778C83828139
:102BF0008D8383818E83812F0E941424BE016F5F99
:102C00007F4F812F0E940624B701812F0E9422242A
:102C1000B701812F0E94DD2362E8812F0E94AE233D
:102C200061E0812F0E94C02381E026960FB6F894C0
:102C3000DEBF0FBECDBFDF91CF911F91FF90EF9010
:102C400008950E94D92391E0823209F090E0892F03
:102C500008950E94D923882341F08C3131F091E00E
:102C60008A3109F490E0892F089580E008950E9448
:102C7000D92391E0843109F090E0892F08950E94D2
:102C8000D92391E0873109F090E0892F08950E94BF
:102C9000D92391E0811190E0892F08950C94471673
:102CA000CF93C82F60E10E94C0236FEF8C2FCF918C
:102CB0000C94CB230F931F93CF93DF93C82FD62F62
:102CC0008A010E9450166D2F8C2F0E94AE23011591
:102CD000110511F0B8010AC060913F0570914005DF
:102CE0006F5F7F4F7093400560933F058C2F0E946C
:102CF000DD2361E08C2F0E94C02381E0DF91CF9122
:102D00001F910F910895AB0162E00C945A16AB012C
:102D100061E00C945A160C945016CF93C82F0E9461
:102D2000D923833131F462E08C2F0E94C02381E0EB
:102D300001C080E0CF9108950F931F93CF93FB01C3
:102D400090819F3F51F491819F3F91F492819F3FE9
:102D500079F493819F3F61F41DC0911109C0918165
:102D6000911106C09281911103C09381992399F02A
:102D70004115510579F08A01BF01C82F0E94142422
:102D8000B8018C2F0E94222464E08C2F0E94C02363
:102D900091E001C090E0892FCF911F910F9108958C
:102DA00068E00C94C023CF92DF92EF92FF920F93D2
:102DB0001F93CF93C82F7B018A014130584010F0F8
:102DC00000E018E08C2F0E949D246C018C2F0E9443
:102DD000D923873111F08C3121F4C016D10690F33C
:102DE00002C000E010E0A801B7018C2F0E943E2530
:102DF00060E28C2F0E94C0238C2F0E94D02384FD80
:102E00000BC08C2F0E94D9238111F6CF8C2F0E94EA
:102E1000501680E090E005C060E18C2F0E94CB232B
:102E2000C801CF911F910F91FF90EF90DF90CF904D
:102E30000895CF92DF92EF92FF921F93CF93DF938B
:102E4000182F6B017A010E948525EC01009789F407
:102E5000812F0E94D9238431E9F08823D9F0C1E081
:102E6000D0E08C3111F4C0E0D0E0D195C195D1090A
:102E700011C0E816F9060CF4E7011C161D0654F4FF
:102E800020E0AE01B601812F0E94FF2560E4812F72
:102E90000E94C023CE01DF91CF911F91FF90EF9050
:102EA000DF90CF9008950C9485250C94852521E022
:102EB00041E050E00E94FF2581E090E00895CF922C
:102EC000DF92EF92FF920F931F93CF93F9019081BE
:102ED000911109C09181911106C09281911103C095
:102EE00093819923A1F10115110589F17A014130EE
:102EF000584018F0E12C98E0F92EE114F10439F172
:102F00006B01C82FBF010E941424B8018C2F0E94AE
:102F10002224A701B6018C2F0E943E2560E28C2F4F
:102F20000E94C0238C2F0E94D02384FD0AC08C2FC6
:102F30000E94D02383FFF6CF68E18C2F0E94CB2321
:102F400006C060E18C2F0E94CB23C70102C080E045
:102F500090E0CF911F910F91FF90EF90DF90CF9075
:102F60000895EF92FF921F93CF93DF934115510580
:102F700089F0EA017B01182F0E9485258C179D0797
:102F800008F4EC0120E0AE01B701812F0E94FF257B
:102F9000CE0102C080E090E0DF91CF911F91FF90C1
:102FA000EF9008958F929F92BF92CF92DF92EF920F
:102FB000FF920F931F93CF93DF93CDB7DEB7289780
:102FC0000FB6F894DEBF0FBECDBF452B09F47EC00F
:102FD00049016B01B82E0E94B2257C018B2D0E9405
:102FE000B3238770833059F1843009F445C08230AF
:102FF00009F065C028E030E0AE014F5F5F4FB701D8
:103000008B2D0E94522288E0E80EF11C8981F40188
:1030100080838A8181838B8182838C8183838D816C
:1030200090E0982F88272E81820F911DF8019183BF
:1030300080830F8110E0102F002788851AC026E0BA
:1030400030E0AE014F5F5F4FB7018B2D0E945222DF
:10305000F6E0EF0EF11C8981F40180838A8181837F
:103060008B8182838C8183830D8110E0102F002758
:103070008E81080F111D16C022E030E0AE014F5FB7
:103080005F4FB7018B2D0E945222F2E0EF0EF11C30
:10309000098110E0902F88270A8110E00250110961
:1030A000080F191F9801A601B7018B2D0E9452220B
:1030B000B701600F711F8B2D0E94A12502C000E097
:1030C00010E060E48B2D0E94C02302C000E010E0FD
:1030D000C80128960FB6F894DEBF0FBECDBFDF91B2
:1030E000CF911F910F91FF90EF90DF90CF90BF9005
:1030F0009F908F9008951F93CF93DF93182FEA012D
:103100004130584018F42097F9F002C0C0E0D8E0F0
:10311000AE01812F0E943E2560E2812F0E94C023D4
:10312000812F0E94D02384FD09C0812F0E94D023CB
:1031300083FFF6CF812F0E94501606C060E1812FD9
:103140000E94CB23CE0102C080E090E0DF91CF91BE
:103150001F910895CF92DF92EF92FF921F93CF932A
:10316000DF93182F7B016A01E9010E949D248C17CF
:103170009D0720F4812F0E949D24EC019E01A60151
:10318000B701812F0E94F324CE01DF91CF911F91CF
:10319000FF90EF90DF90CF9008951F93CF93DF9330
:1031A000182FEB01CB010E94FF1BAC01BE01812F48
:1031B000DF91CF911F910C94D316CF93DF931F9281
:1031C000CDB7DEB7698341E050E0BE016F5F7F4F4E
:1031D0000E94D3160F90DF91CF9108950F931F9304
:1031E000CF93C82F8B0162E20E94DD18B8018C2FAB
:1031F0000E94CD1862E28C2FCF911F910F910C94F9
:10320000DD18CF93C82FCB01BA010E945214FC01E4
:103210001286BC018C2FCF910C94EE18CF93DF93C4
:10322000D82FC62F70E084E0759567958A95E1F7F1
:103230006A3010F4605D01C0695C8D2F0E94DD185A
:103240006C2F6F706A3010F0695C01C0605D8D2F6B
:10325000DF91CF910C94DD18EF92FF920F931F93A3
:10326000CF93C82F7B0162E20E94DD18F7016191C4
:103270008F018C2F0E940E19F6E0EF0EF11C6AE30D
:103280008C2F0E94DD18F80161918F018C2F0E9414
:103290000E190E151F0599F762E28C2FCF911F9121
:1032A0000F91FF90EF900C94DD18CF93DF93C82F10
:1032B000D62F672F0E940E196D2F8C2FDF91CF9183
:1032C0000C940E192F923F924F925F926F927F92C1
:1032D0008F929F92AF92BF92CF92DF92EF92FF9226
:1032E0000F931F93CF93DF93CDB7DEB762970FB6DF
:1032F000F894DEBF0FBECDBF782E7B0177FF08C0EC
:10330000F194E194F10881E090E0998B888B02C000
:10331000198A188AFE0131961F018E01055F1F4F21
:103320006F0188248394912CA12CB12CAAE0B0E0E9
:103330009401A5010E9406296A8B472E582E692EFA
:10334000B7010F2C000C880B990B2A89342D452DC1
:10335000562D0E94CB289401A5010E94CB28F6018E
:1033600021936F01E21AF10827FDF3948A88942CC7
:10337000A52CB62C0E171F07C9F688899989892BA9
:1033800021F06DE2872D0E94DD1880E090E0F801C9
:1033900062918F01611105C0009719F42E163F0646
:1033A00041F4605DF8016083872D0E94DD1881E0A3
:1033B00090E02016310659F762960FB6F894DEBFFA
:1033C0000FBECDBFDF91CF911F910F91FF90EF9076
:1033D000DF90CF90BF90AF909F908F907F906F9035
:1033E0005F904F903F902F9008950F931F93CF932E
:1033F000FB019081911109C09181911106C09281C8
:10340000911103C09381992379F04115510561F021
:103410008A01BF01C82F0E941424B8018C2F0E947A
:10342000222481E090E002C080E090E0CF911F91E3
:103430000F910895CF93C82F60E20E94C0238C2F74
:103440000E94D02384FD0CC08C2F0E94D02383FFC8
:10345000F6CF68E18C2F0E94CB2380E090E006C07D
:1034600060E18C2F0E94CB2381E090E0CF91089502
:10347000EF92FF920F931F93CF93DF931F92CDB7DD
:10348000DEB7182FE12CF12C812F0E948525E8163C
:10349000F90688F401E0970141E050E0BE016F5F5A
:1034A0007F4F812F0E94CA2589818A3031F08FEFAA
:1034B000E81AF80AE9CF80E001C081E00F90DF91BF
:1034C000CF911F910F91FF90EF9008951F93CF938D
:1034D000DF931F92CDB7DEB7182F0E948525892B69
:1034E00089F021E041E050E0BE016F5F7F4F812F06
:1034F0000E94FF25998181E09D3029F09A3019F0D2
:1035000080E001C081E00F90DF91CF911F9108957D
:103510008F929F92AF92BF92CF92DF92EF92FF92E3
:103520000F931F93CF93DF931F92CDB7DEB7182F62
:103530005B010E9485257C01C5010E94FF1BE816E6
:10354000F90668F175016701CA18DB084701F70140
:103550008081882399F001E0960141E050E0BE01AE
:103560006F5F7F4F812F0E94CA258FEFE81AF80AFC
:10357000F40190818981981731F311C0C114D104ED
:1035800061F041E050E0BE016F5F7F4F812F0E94EC
:103590001917F1E0CF1AD108F1CF81E001C080E026
:1035A0000F90DF91CF911F910F91FF90EF90DF90DF
:1035B000CF90BF90AF909F908F9008951F93CF931F
:1035C000DF931F92CDB7DEB7182F812F0E9485257C
:1035D000892BC1F141E050E0BE016F5F7F4F812F29
:1035E0000E94191789818D30D1F4812F0E94852581
:1035F000892B59F321E041E050E0BE016F5F7F4F1E
:10360000812F0E94FF2589818A30E1F441E050E05A
:10361000BE016F5F7F4F812F0E94191713C08A3040
:10362000A1F6812F0E948525892B79F221E041E0C6
:1036300050E0BE016F5F7F4F812F0E94FF2589817F
:103640008D3021F30F90DF91CF911F910895BF929C
:10365000CF92DF92EF92FF920F931F93CF93DF935E
:103660001F92CDB7DEB7C82E8B01FB0111821082ED
:103670000E948525892B09F451C0D12CEE24E394B6
:10368000F12C2AE0B22E8C2D0E948525892BB9F1D0
:1036900021E041E050E0BE016F5F7F4F8C2D0E9422
:1036A000FF2589818D3231F4D11038C0EE24EA949F
:1036B000FE2C1CC090ED980F9A3090F4F8014081D8
:1036C0005181B49E9001B59E300D1124082E000C3E
:1036D000990BC097820F931F91838083D39406C068
:1036E0008A3069F08D3059F0803249F041E050E085
:1036F000BE016F5F7F4F8C2D0E941917C4CFF80158
:10370000208131812E9DC0012F9D900D3E9D900DF9
:1037100011249183808381E0D11001C080E00F905B
:10372000DF91CF911F910F91FF90EF90DF90CF909D
:10373000BF9008959FB7F894229B2A9A229A259ABF
:10374000239A2D988CB580618CBD8CB580648CBD1E
:10375000109241059FBF0895809141050895909171
:103760004105911109C09FB7F8948CBD6DBD81E0F2
:10377000809341059FBF2A9808958EBD00000DB427
:1037800007FEFDCF8EB508952A9A1092410508953F
:10379000FB01480F591F8417950729F02191DC017F
:1037A0002D93CD01F8CF0895480F591F8417950721
:1037B00021F0FC016193CF01F9CF0895FB01480F7F
:1037C000591F8417950759F0DC013D91CD012191D6
:1037D000321740F02317A8F781E090E0089580E0C9
:1037E00090E008958FEF9FEF0895FC01DB018D912C
:1037F000BD01882311F08193F9CF10820895FC0157
:103800009F01281B390B41914111FACFC90108953D
:103810009F92AF92BF92CF92DF92EF92FF920F935F
:103820001F93CF93DF9300D000D01F92CDB7DEB7A8
:10383000FC016B019E012F5F3F4F8E010A5F1F4FFE
:10384000EE24E394F12C9AE0992E9E9C50019F9CCB
:10385000B00C1124C601B5010E948128B7010E9455
:103860008128D9016D939D01C61AD10867FDD394B3
:103870007501A017B10749F760E070E084E090E0BF
:1038800050E0D8012E918D01211105C061157105FF
:1038900011F4009741F4841795072CF4205D2193CF
:1038A00061E070E004C0841795070CF4319601972D
:1038B00040F70F900F900F900F900F90DF91CF91E6
:1038C0001F910F91FF90EF90DF90CF90BF90AF903E
:1038D0009F90089588EC80937C0086E880937A001E
:1038E000089580917A00829586958695837091E0FF
:1038F0008927817090E00895EAE7F0E08081806494
:1039000080830895809178002091790030E0322FF3
:103910002227A901330F660B770B9A01AB01282BE5
:10392000A5E6B0E00E94062924E630E040E050E041
:103930000E94CB28DA01C90181519140A109B10946
:10394000089508950F931F93E0914205F091430568
:10395000E930F10508F09BC0E45CFF4F0C94EA28C5
:103960008417950764F087E594E00E940F0F86E0C6
:103970000E94D31086E090E00E94620625C00817DE
:1039800019070CF48EC087E594E00E940F0F88E0C1
:103990000E94D31088E090E00E9462060BC084175A
:1039A00095070CF7081719070CF47BC087E594E01E
:1039B0000E940F0F86E090E065C084179507FCF227
:1039C00087E594E00E940F0F83E090E05BC08617CC
:1039D000970764F089E594E00E940F0F85E00E944C
:1039E000D31085E090E00E94620612C0841795070C
:1039F0000CF057C08DEE93E00E940F0F82E090E034
:103A000041C08617970794F389E594E00E940F0F51
:103A100085E090E037C0861797070CF042C087E535
:103A200094E00E940F0F84E090E02CC02817390723
:103A300064F089E594E00E940F0F87E00E94D310A4
:103A400087E090E00E94620611C0081719074CF544
:103A50008DEE93E00E940F0F81E090E013C02817D5
:103A600039079CF389E594E00E940F0F88E090E00D
:103A700009C028173907ACF487E594E00E940F0FBE
:103A800087E090E090934305809342050AC010922E
:103A90004305109242058DEE93E01F910F910C9417
:103AA0000F0F1F910F910895109243051092420538
:103AB00008951F920F920FB60F9211248F939F9328
:103AC000AF93BF938091440590914505A091460521
:103AD000B09147050196A11DB11D809344059093B7
:103AE0004505A0934605B0934705BF91AF919F91BF
:103AF0008F910F900FBE0F901F90189583E294EF57
:103B00009093890080938800109280008CE08093CD
:103B10008100789482E080936F0008952FB7F89425
:103B20006091440570914505809146059091470547
:103B30002FBF08958FB7F894109244051092450551
:103B400010924605109247058FBF08950E94532694
:103B5000789408950C941728CF93DF93EC01899102
:103B6000882319F00E941728FACFDF91CF9108958A
:103B7000CF93C82F90E024E0959587952A95E1F79B
:103B80008A3010F4805D01C0895C0E9417288C2F58
:103B90008F708A3010F0895C01C0805DCF910C94E9
:103BA0001728CF93C82F892F0E94B81D8C2FCF9133
:103BB0000C94B81D2F923F924F925F926F927F921A
:103BC0008F929F92AF92BF92CF92DF92EF92FF922D
:103BD0000F931F93CF93DF93CDB7DEB763970FB6E5
:103BE000F894DEBF0FBECDBF6B017C0197FF0DC007
:103BF000F094E094D094C094C11CD11CE11CF11C41
:103C000081E090E09B8B8A8B02C01B8A1A8AFE019E
:103C100031965F018E01055F1F4FF98BE88B66249B
:103C20006394712C812C912CAAE0B0E09301A40143
:103C30000E9406291B012C01C701B6019101A201B6
:103C40000E94CB289301A4010E94CB28E889F9891E
:103C50002193F98BE88B822F220F990BAA0BBB0BB8
:103C6000C81AD90AEA0AFB0A310142010E171F07D6
:103C7000D9F68A899B89892B19F08DE20E94172831
:103C800020E030E0F80182918F01811106C02115FA
:103C9000310519F4EA15FB0529F4805D0E94172807
:103CA00021E030E00A151B0569F763960FB6F8941A
:103CB000DEBF0FBECDBFDF91CF911F910F91FF905F
:103CC000EF90DF90CF90BF90AF909F908F907F90BC
:103CD0006F905F904F903F902F9008950C94ED2738
:103CE0000C941428FF920F931F93CF93DF93EC0152
:103CF000062FF72E18820E94ED2710E08823D9F0B6
:103D00000E94C1278823B9F00E94C827803210F092
:103D100089931F5FE02FFF2D482F50E02191222330
:103D200039F0022E000C330B42175307B9F702C0CB
:103D30008D3051F71882812FDF91CF911F910F9114
:103D4000FF9008950F931F93CF93DF938C01EC01A5
:103D5000699170E080E090E00E94DA1D0C5F1F4FD7
:103D60008EE20E941728699170E080E090E00E9446
:103D7000DA1DC017D107A1F786E094E0DF91CF915B
:103D80001F910F910C94AC1DDC01FB019D919923B7
:103D900041F08191891784F09817C4F78FEF9FEF56
:103DA000089581E090E02081211102C080E090E040
:103DB000919581959109089581E090E00895DC0145
:103DC00090E020E061507109422F50E0FD01E40FC6
:103DD000F51F4617570720F48081980F2F5FF4CF07
:103DE000919590830895611571058105910541F0C4
:103DF00060932C0170932D0180932E0190932F01DD
:103E0000211531054105510541F0209328013093DA
:103E1000290140932A0150932B0108954F925F92FC
:103E20006F927F928F929F92AF92BF92CF92DF92CA
:103E3000EF92FF92CF93DF9300D000D0CDB7DEB7E3
:103E40002B013C0129833A834B835C83C09028017A
:103E5000D0902901E0902A01F0902B01A701960152
:103E600044275527A9E6B0E90E9406296701EE24F8
:103E7000FF244B015C018C0C9D1CAE1CBF1C80926E
:103E8000280190922901A0922A01B0922B01C090A2
:103E90002C01D0902D01E0902E01F0902F01A70170
:103EA000960144275527A0E5B6E40E94062967013C
:103EB000EE24FF24C60ED71EE81EF91EC0922C0168
:103EC000D0922D01E0922E01F0922F01D40199277A
:103ED0008827BC01CD016C0D7D1D8E1D9F1D298184
:103EE0003A814B815C8124193509460957090E94A2
:103EF000A928CB01840D951D0F900F900F900F9066
:103F0000DF91CF91FF90EF90DF90CF90BF90AF9077
:103F10009F908F907F906F905F904F900895CF9378
:103F2000DB01FC0120812D3221F401966FEF7FEF40
:103F300002C061E070E011961C921E92FC01CAE082
:103F400020818D919C9111972223C1F0C89FA001DF
:103F5000C99F500D112411965C934E93219180EDD1
:103F6000820F8A30B8F4022E000C330B2053310933
:103F7000240F351F11963C932E93E2CF869F90011C
:103F8000879F300D969F300D11242D933C9381E037
:103F900090E002C080E090E0CF9108958091AB0561
:103FA000833561F48091AC05853441F481E090E083
:103FB0002091AD05223521F080E002C080E090E044
:103FC000EBEAF5E020E03191230F35E0E33EF30723
:103FD000D1F7222311F080E090E00895CF93DF9392
:103FE000CDB7DEB7E7970FB6F894DEBF0FBECDBFF3
:103FF00087E3EEE9F3E0DE01119601900D928A95D8
:10400000E1F767E370E0CE0101960E94DF1E47E30F
:10401000BE016F5F7F4F80E090E00E94B50EE79693
:104020000FB6F894DEBF0FBECDBFDF91CF910895DC
:104030000E94FE0E892BE1F747E36BEA75E080E012
:1040400090E00E94E90E0E94CE1F892B49F40E9445
:10405000EE1F47E36BEA75E080E090E00C94E90E18
:104060000895AF92BF92DF92EF92FF920F931F934A
:10407000CF93DF93EC01D62EE72E8A01809148057D
:104080008333F9F4A62EB72E7E01E40EF51ECE156D
:10409000DF0509F45EC062E080E50E94AF1B80EF9F
:1040A0000E94BD1B8D2F0E94BD1B8C2F0E94BD1B2B
:1040B0002196F50181915F010E94BD1B0E94C41BE6
:1040C000E6CF62E080E50E94AF1BC115F4E0DF0798
:1040D00018F4FC2EC4E00DC0C11528E0D20758F436
:1040E000FC2ED45033E0D695C7953A95E1F7C07EC3
:1040F000CC6080E018C0CE019770892FFC2EC115CE
:10410000E0E6DE0740F426E0D695C7952A95E1F76C
:10411000C07EC46108C0D05696E0D695C7959A95E2
:10412000E1F7C07ECC610E94BD1B8F2D0E94BD1B9C
:104130008C2F0E94BD1BCD2DDE2D7E01E00EF11EC9
:10414000CE15DF0521F089910E94BD1BF9CF0E9499
:10415000C41BC801DF91CF911F910F91FF90EF9089
:10416000DF90BF90AF900895CF93DF931F92CDB7AC
:10417000DEB7698341E050E0BE016F5F7F4F0E9470
:1041800031200F90DF91CF9108958F929F92AF923F
:10419000BF92CF92DF92EF92FF920F931F93CF9334
:1041A000DF93EC018B016A017901FA01608181E002
:1041B00090E00E94B420F601618182E090E00E94CC
:1041C000B420F601628183E090E00E94B420F60101
:1041D000638184E090E00E94B4200E9455084B0166
:1041E0005C01F2E08F0E911CA11CB11C0E945508CD
:1041F000681579058A059B05C9F7688189E090E013
:104200000E94B42069818AE090E00E94B4206A8113
:104210008BE090E00E94B4206B818CE090E00E94E3
:10422000B4206C818DE090E00E94B4206D818EE01E
:1042300090E00E94B4200E9455084B015C0122E0EE
:10424000820E911CA11CB11C0E94550868157905AD
:104250008A059B05C9F7F701608185E090E00E941F
:10426000B420F701618186E090E00E94B420F7015C
:10427000628187E090E00E94B420F701638188E0CA
:1042800090E00E94B4200E9455086B017C01F2E08E
:10429000CF0ED11CE11CF11C0E9455086C157D0548
:1042A0008E059F05C9F7F80160818FE090E00E94BC
:1042B000B420F801618180E190E00E94B420F8010F
:1042C000628181E190E00E94B420F801638182E183
:1042D00090E00E94B4200E9455086B017C01F2E03E
:1042E000CF0ED11CE11CF11C0E9455086C157D05F8
:1042F0008E059F05C9F765E58AE190E00E94B4202C
:1043000065E58BE190E00E94B42080E0DF91CF91E1
:104310001F910F91FF90EF90DF90CF90BF90AF90E3
:104320009F908F900895AF92BF92DF92EF92FF928D
:104330000F931F93CF93DF93EC01D62EE72E8A01C4
:1043400080914805833301F5A62EB72E7E01E40E39
:10435000F51ECE15DF0509F460C062E080E50E941D
:10436000AF1B8FE00E94BD1B8D2F0E94BD1B8C2FA9
:104370000E94BD1B219680E00E94BD1BF501819328
:104380005F010E94C41BE5CF62E080E50E94AF1B85
:10439000C115F4E0DF0718F4FC2EC0E00DC0C11514
:1043A00028E0D20758F4FC2ED45033E0D695C795B8
:1043B0003A95E1F7C07EC86080E018C0CE019770E2
:1043C000892FFC2EC115E0E6DE0740F426E0D695E5
:1043D000C7952A95E1F7C07EC06108C0D05696E027
:1043E000D695C7959A95E1F7C07EC8610E94BD1B1E
:1043F0008F2D0E94BD1B8C2F0E94BD1BCD2DDE2D4D
:104400007E01E00EF11ECE15DF0529F080E00E944E
:10441000BD1B8993F8CF0E94C41BC801DF91CF91C7
:104420001F910F91FF90EF90DF90BF90AF90089594
:10443000CF93DF931F92CDB7DEB741E050E0BE01CE
:104440006F5F7F4F0E94932189810F90DF91CF9101
:10445000089590E00496982F8827860F971F0C9454
:1044600018229B0190E00496982F8827642F820FD2
:10447000931F0E94B4200895FB01BA0190E00496B6
:10448000982F8827A9018E0F9F1F0C949321FB0161
:10449000BA0190E00496982F8827A9018E0F9F1FDC
:1044A0000C943120AF92BF92CF92DF92EF92FF92A5
:1044B0000F931F93CF93DF9300D0CDB7DEB77A83EE
:1044C0006983BA01A901A981BA81B770E82FF0E028
:1044D000EE0FFF1FEB52FC4FE080F180CD018E0DFF
:1044E0009F1D9D01240F351F2130384080F06A0147
:1044F0005B0100E018E00A1B1B0BA8010E9493213E
:10450000A601401B510BB501600F711FC7010F9031
:104510000F90DF91CF911F910F91FF90EF90DF905F
:10452000CF90BF90AF900C949321682F80E090E0E3
:104530000C94B42080E090E00C941822CF92DF928B
:10454000EF92FF9283E38093480560E880E090E07B
:104550000E94B4200E9455086B017C0122E0C20E2B
:10456000D11CE11CF11C0E9455086C157D058E05BF
:104570009F05C9F780E10E9495220E949A2280310E
:1045800021F01092480580E00FC082E10E94952240
:104590000E949A228231A9F780E00E9495220E940F
:1045A0009A228111EECF81E0FF90EF90DF90CF90C3
:1045B0000895CF92DF92EF92FF9287E380934805B0
:1045C00060E880E090E00E94B4200E9455086B01F2
:1045D0007C0122E0C20ED11CE11CF11C0E94550896
:1045E0006C157D058E059F05C9F788E00E94952210
:1045F0000E949A22883021F01092480580E00FC076
:1046000080E10E9495220E949A228031A9F780E0E1
:104610000E9495220E949A228111EECF81E0FF90A4
:10462000EF90DF90CF9008950E949E22811102C0EA
:104630000C94D922089544E050E0BC0181E090E060
:104640000C94312044E050E0BC0181E090E00C94F7
:10465000932144E050E0BC0185E090E00C943120CF
:1046600044E050E0BC0185E090E00C94932146E0EA
:1046700050E0BC0189E090E00C94312046E050E02D
:10468000BC0189E090E00C94932144E050E0BC012F
:104690008FE090E00C94312044E050E0BC018FE0CA
:1046A00090E00C949321682F85E190E00C94B42065
:1046B00085E190E00C941822CF93C82F692F87E1F1
:1046C00090E00E94B4206C2F88E190E0CF910C9490
:1046D000B420CF93DF9387E190E00E941822C82F87
:1046E000D0E0DC2FCC2788E190E00E9418229E01C8
:1046F000280F311DC901DF91CF91089544E050E0AA
:10470000BC018AE290E00C94312044E050E0BC010E
:104710008AE290E00C949321CF93C82F692F8EE208
:1047200090E00E94B4206C2F8FE290E0CF910C9427
:10473000B420CF93DF938EE290E00E941822C82F1E
:10474000D0E0DC2FCC278FE290E00E9418229E015F
:10475000280F311DC901DF91CF910895462F60E0E8
:1047600070E00C94312260E070E00C942922462F16
:1047700061E070E00C94312261E070E00C94292239
:10478000CF93C82F0E94B7238C2F0E94BC23811186
:10479000FBCFCF910895462F62E070E00C94312258
:1047A00062E070E00C942922462F63E070E00C94E4
:1047B000312263E070E00C942922CF93DF93C82F5D
:1047C000D62F472F64E070E00E9431224D2F65E024
:1047D00070E08C2FDF91CF910C9431221F93CF93F7
:1047E000DF93182F64E070E00E942922C82FD0E0E8
:1047F00065E070E0812F0E942922DC2FCC279E01EA
:10480000282BC901DF91CF911F910895AB0126E0BC
:1048100030E066E070E00C944722AB0126E030E027
:1048200066E070E00C943C22AB0124E030E06CE0E8
:1048300070E00C944722AB0124E030E06CE070E0C3
:104840000C943C22CF93DF93C82FD62F472F60E1E3
:1048500070E00E9431224D2F61E170E08C2FDF91DA
:10486000CF910C9431221F93CF93DF93182F60E1E7
:1048700070E00E942922C82FD0E061E170E0812F12
:104880000E942922DC2FCC279E01282BC901DF9111
:10489000CF911F910895CF93DF93C82FD62F472F25
:1048A00062E170E00E9431224D2F63E170E08C2FB5
:1048B000DF91CF910C9431221F93CF93DF93182F68
:1048C00062E170E00E942922C82FD0E063E170E02D
:1048D000812F0E942922DC2FCC279E01282BC90181
:1048E000DF91CF911F910895CF93DF93C82FD62FDB
:1048F000472F60E270E00E9431224D2F61E270E0AC
:104900008C2FDF91CF910C9431221F93CF93DF93A3
:10491000182F60E270E00E942922C82FD0E061E2E7
:1049200070E0812F0E942922DC2FCC279E01282BAA
:10493000C901DF91CF911F910895FF920F931F93AB
:10494000CF93DF93F82EC0E0D0E08F2D0E94852416
:104950008C01892B21F08F2D0E948524EC01C0173A
:10496000D10799F7CE01DF91CF911F910F91FF9061
:104970000895CF93DF93C82FD62F472F62E270E0C0
:104980000E9431224D2F63E270E08C2FDF91CF9196
:104990000C9431221F93CF93DF93182F62E270E0C3
:1049A0000E942922C82FD0E063E270E0812F0E948C
:1049B0002922DC2FCC279E01282BC901DF91CF9122
:1049C0001F910895CF93DF93C82FD62F472F64E20E
:1049D00070E00E9431224D2F65E270E08C2FDF9154
:1049E000CF910C9431229F92AF92BF92CF92DF92DF
:1049F000EF92FF920F931F93CF93DF93982E7B013B
:104A00006A0189010E94CA24E80EF91E97013770D5
:104A1000E92DF0E0EE0FFF1FE352FC4FA080B180C4
:104A2000C9018A0D9B1DA901400F511F41305840FB
:104A300080F0C0E0D8E0C21BD30BAE01B6010E94EB
:104A40003120A8014C1B5D0BB6016C0F7D1FC50109
:104A500002C0A801B6010E943120B701600F711F8A
:104A6000892DDF91CF911F910F91FF90EF90DF90F3
:104A7000CF90BF90AF909F900C94E2249A01AB012D
:104A800060E070E00C94F3241F93CF93DF93182F12
:104A900064E270E00E942922C82FD0E065E270E055
:104AA000812F0E942922DC2FCC279E01282BC901AF
:104AB000DF91CF911F910895CF93DF93C82FD62F09
:104AC000472F66E270E00E9431224D2F67E270E0CE
:104AD0008C2FDF91CF910C9431221F93CF93DF93D2
:104AE000182F66E270E00E942922C82FD0E067E20A
:104AF00070E0812F0E942922DC2FCC279E01282BD9
:104B0000C901DF91CF911F910895FF920F931F93D9
:104B1000CF93DF93F82EC0E0D0E08F2D0E946D255B
:104B20008C01892B21F08F2D0E946D25EC01C0177F
:104B3000D10799F7CE01DF91CF911F910F91FF908F
:104B40000895CF93DF93C82FD62F472F68E270E0E8
:104B50000E9431224D2F69E270E08C2FDF91CF91BE
:104B60000C9431221F93CF93DF93182F68E270E0EB
:104B70000E942922C82FD0E069E270E0812F0E94B4
:104B80002922DC2FCC279E01282BC901DF91CF9150
:104B90001F910895CF92DF92EF92FF920F931F9390
:104BA000CF93DF93182F6B017A01E9010E94B225A0
:104BB0008C0F9D1FEC01D7709701A601BE01812FBC
:104BC0000E945222011112C0BE016E0D7F1D812F65
:104BD0000E94A12560E4812FDF91CF911F910F9159
:104BE000FF90EF90DF90CF900C94C023DF91CF9196
:104BF0001F910F91FF90EF90DF90CF9008950F934A
:104C0000022F20E030E00E94CA250F910895CF9333
:104C1000DF93C82FD62F472F6AE270E00E9431221F
:104C20004D2F6BE270E08C2FDF91CF910C943122ED
:104C30001F93CF93DF93182F6AE270E00E9429221E
:104C4000C82FD0E06BE270E0812F0E942922DC2F78
:104C5000CC279E01282BC901DF91CF911F91089588
:104C60001F920F920FB60F9211240E940B0F82E039
:104C70000E94D3100E94A1100E948B07FBCF9FB708
:104C8000F894A895E0E6F0E08081886180838FE465
:104C900080839FBF0895A8950895809160008B70D0
:104CA00080936000FFCF1092C00087E690E0909361
:104CB000C5008093C400E1ECF0E088E1808386E0E9
:104CC0008093C2008081806A808308951F920F9232
:104CD0000FB60F9211242F933F938F939F93EF93CF
:104CE000FF9380914F05882309F4F0C08091C6009E
:104CF00090914E05992309F4E3C090EE980F9F35EB
:104D000018F08D3009F059C020914B0590914C0559
:104D100030E0291B3109215031092F733327232B10
:104D200061F0E0914C05F0E0EE51FA4F80839091F4
:104D30004C059F5F9F7390934C052091490590917E
:104D40004A0530E0291B3109215031092F733327DF
:104D5000232B89F0E0914A05F0E0EE5DF94F808366
:104D600090914A059F5F9F7390934A059091C1006F
:104D700090629093C1008D3009F0C5C080914905C3
:104D800020914A0590E0821B910901978F73992722
:104D9000892B69F0E0914A05F0E0EE5DF94F8AE079
:104DA000808380914A058F5F8F7380934A0580913D
:104DB0004D058F5F80934D05A6C0883011F08F3769
:104DC000C1F580914C0520914B0590E0821B910923
:104DD0008F739927892B09F496C0E0914C05F0E078
:104DE000EE51FA4F808180914C0581508F738093F2
:104DF0004C058091490520914A0590E0821B91095C
:104E000001978F739927892B09F47DC0E0914A059A
:104E1000F0E0EE5DF94F8FE7808380914A058F5F68
:104E20008F7380934A058091C10080628093C10096
:104E30006AC0843009F067C080914C0520914B0511
:104E400090E0821B91098F739927892B31F1E091B2
:104E50004C05F0E0EE51FA4F80818D30F1F08091F9
:104E60004B0520914C0590E0821B910901978F73AF
:104E70009927892B91F0E0914C05F0E0EE51FA4F23
:104E80008DE0808380914C058F5F8F7380934C05FC
:104E900080914D058F5F80934D0580914B0520914A
:104EA0004C0590E0821B910901978F739927892BFC
:104EB00051F1E0914C05F0E0EE51FA4F84E019C059
:104EC000833009F581E080934E051DC080914B052C
:104ED00020914C0590E0821B910901978F739927CF
:104EE000892B79F0E0914C05F0E08091C600EE51FD
:104EF000FA4F808380914C058F5F8F7380934C05B0
:104F000002C08091C600FF91EF919F918F913F91D8
:104F10002F910F900FBE0F901F9018951F920F9218
:104F20000FB60F9211242F938F939F93EF93FF93BC
:104F300080914A052091490590E0821B91098F7369
:104F40009927892B79F0E0914905F0E0EE5DF94F62
:104F500080818093C600809149058F5F8F73809315
:104F6000490505C08091C1008F7D8093C100FF91EC
:104F7000EF919F918F912F910F900FBE0F901F90E7
:104F8000189580914C0590914B05891B8F7308955E
:104F900080914C0520914B0590E0821B91098F7305
:104FA0009927892BC1F0E0914B05F0E0EE51FA4FC3
:104FB000808190914B059F5F9F7390934B059091DB
:104FC0004F05992349F08D3039F490914D0591505A
:104FD00090934D05089580E0089581E080934F05FA
:104FE00080914C0520914B0590E0821B91098F73B5
:104FF0009927892BB1F0E0914B05F0E0EE51FA4F83
:105000008081843071F410924E05E0914B05F0E000
:10501000EE51FA4F808180914B058F5F8F738093A3
:105020004B0580914E05089580914D0508950FB66A
:1050300007FE0EC02091490590914A0530E0291BDA
:105040003109215031092F733327232B99F30DC0D8
:105050002091490590914A0530E0291B31092150E2
:1050600031092F733327232B61F0E0914A05F0E0DB
:10507000EE5DF94F808380914A058F5F8F73809337
:105080004A058091C10080628093C10008951F93FA
:10509000CF93DF93EC0180E011E0180FFE01E80FE1
:1050A000F11D8081882321F00E941728812FF4CFE1
:1050B000DF91CF911F9108951F93CF93DF93EC0160
:1050C00080E011E0180FFE01E80FF11D84918823A4
:1050D00021F00E941728812FF4CFDF91CF911F91EB
:1050E0000895DB018F939F930E940629BF91AF9192
:1050F000A29F800D911DA39F900DB29F900D112432
:105100000895AA1BBB1B51E107C0AA1FBB1FA6170E
:10511000B70710F0A61BB70B881F991F5A95A9F760
:1051200080959095BC01CD01089597FB072E16F44C
:10513000009407D077FD09D00E94812807FC05D094
:105140003EF4909581959F4F0895709561957F4F9E
:105150000895A1E21A2EAA1BBB1BFD010DC0AA1FB8
:10516000BB1FEE1FFF1FA217B307E407F50720F0D0
:10517000A21BB30BE40BF50B661F771F881F991F4B
:105180001A9469F760957095809590959B01AC0194
:10519000BD01CF010895052E97FB1EF400940E94D7
:1051A000E22857FD07D00E94A92807FC03D04EF43F
:1051B0000C94E22850954095309521953F4F4F4FE4
:1051C0005F4F089590958095709561957F4F8F4FB3
:1051D0009F4F0895EE0FFF1F0590F491E02D099465
:1051E0006927962769277827872778270895A29F18
:1051F000B001B39FC001A39F700D811D1124911DAB
:10520000B29F700D811D1124911D08950E94F728F1
:10521000A59F900DB49F900DA49F800D911D11240A
:065220000895F894FFCF91
:10522600030B443100802500002D00040B443000A0
:10523600802500002D0002060024F400010C617494
:085246006D6567613332380029
:10524E004B0041535500FF03FE030000010000C058
:10525E00A801640030302F30302F30303030203005
:10526E00303A30303A303000E5559A15B53B121FC2
:10527E00435249545F4849005741524E5F484900D6
:10528E00435249545F4C4F005741524E5F4C4F00B2
:10529E004E4F524D414C00485454502F312E312018
:1052AE00323030204F4B0A00436F6E74656E742D92
:1052BE00547970653A206170706C69636174696FBE
:1052CE006E2F766E642E6170692B6A736F6E0D0A87
:1052DE0000436F6E6E656374696F6E3A20636C6F18
:1052EE0073650D0A000D0A007B00767064003A7B30
:1052FE00006D6F64656C003A002C006D616E756612
:10530E00616374757265720073657269616C5F6E4C
:10531E00756D626572006D616E756661637475722E
:10532E00655F64617465006D61635F61646472657D
:10533E00737300636F756E7472795F636F6465006B
:10534E007D2C0074637269745F6869007477617292
:10535E006E5F68690074637269745F6C6F00747756
:10536E0061726E5F6C6F0074656D706572617475DD
:10537E007265007374617465006C6F67003A5B0050
:10538E0074696D657374616D70006576656E740019
:10539E007D005D7D00485454502F312E3120343025
:1053AE00302042616420526571756573740A006421
:1053BE006576696365002F636F6E6669673F00747B
:1053CE00637269745F68693D005570646174696EDB
:1053DE00672074637269745F6869207769746820E6
:1053EE0076616C75653A2000747761726E5F6869DC
:1053FE003D005570646174696E6720747761726EDA
:10540E005F686920776974682076616C75653A20EB
:10541E000074637269745F6C6F3D005570646174E3
:10542E00696E672074637269745F6C6F207769743C
:10543E00682076616C75653A2000747761726E5FD4
:10544E006C6F3D005570646174696E67207477618E
:10545E00726E5F6C6F20776974682076616C75650B
:10546E003A20003F72657365743D002266616C736D
:10547E00652200227472756522002F6C6F670047DB
:10548E004554005055540044454C45544500204861
:10549E005454502F312E310D0A006A6C736F6C69A3
:1054AE007300536F6C69732053616C617A61720083
:1054BE004A6F7365006C6F63616C2069703A2000EF
:1054CE00EF010101FFFFFFFFC0A801011F1C1F1EFE
:1054DE001F1E1F1F1E1F1E1F01005E0000005345D2
:1054EE00520053616E647900000000000000446FAA
:1054FE0075676C617300000000005F554E41535399
:10550E0049474E45440000000000444F5553414E5C
:10551E0055534100000060004800700078004000C4
:10552E0048005000580D0A414C41524D3A20005748
:10553E00495A6E65740074696D652073796E636582
:10554E006420005554430D0A0030302F30302F3078
:10555E003030302030303A30303A30300050726FC8
:10556E006A656374206E6F74207369676E65640D6F
:10557E000A0066697273746E616D65006C61737496
:10558E006E616D6500617375726974650054657343
:0C559E0074696E670D0A002D002E0000DD
:00000001FF
