:100000000C9434000C9451000C9451000C94510049
:100010000C9451000C9451000C9451000C9451001C
:100020000C9451000C9451000C9451000C947701E5
:100030000C9451000C9451000C949F000C945100AE
:100040000C9451000C9451000C94E4050C9415068A
:100050000C9451000C9451000C9451000C945100DC
:100060000C9451000C94510011241FBECFEFD8E026
:10007000DEBFCDBF11E0A0E0B1E0E6E7FFE002C0E7
:1000800005900D92AE37B107D9F722E0AEE7B1E0A7
:1000900001C01D92A831B207E1F70E94C3060C947B
:1000A000A5070C9400002FB7F894FC01EE0FFF1F7A
:1000B000ED57FE4F808191812FBF089520917E01E1
:1000C0002130D9F022E024BD33E035BD20936E000D
:1000D00029EF27BD109284011092830110928601AE
:1000E000109285011092800110927F01109282017E
:1000F0001092810121E020937E012FB7F894880FA0
:10010000991FFC01E158FE4F71836083FC01ED579C
:10011000FE4F118210822FBF0895880F991FFC0196
:10012000ED57FE4F20813181FC01E158FE4F81E007
:10013000408151814217530709F080E008951F92D2
:100140000F920FB60F9211248F939F93EF93FF930B
:10015000E3E8F1E08081918101969183808382813F
:100160009381019693838283FF91EF919F918F9169
:100170000F900FBE0F901F90189590938B01809356
:100180008A0110928901109288011092870160E023
:1001900070E080E090E00E945E000C94A101E0918C
:1001A0008A01F0918B018081882309F470C080E07E
:1001B00090E00E948D00892B09F469C0809187012D
:1001C000882321F0813009F441C0089520918A01EB
:1001D00030918B018091880190918901F901E80F9C
:1001E000F91F40814D32C9F04E32E1F0403231F515
:1001F0000196F901E80FF91F2081211105C09093A4
:1002000089018093880104C01092890110928801AD
:100210000E94A10168EE73E015C00E949F016EEE7E
:1002200072E004C00E949F016AEF70E080E090E0FD
:100230000E945E0081E08093870108C00E94A101B6
:1002400060E070E080E090E00E945E0080918801B4
:10025000909189010196E0918A01F0918B01E80F5C
:10026000F91F2081222329F090938901809388012E
:1002700004C010928901109288010E94A10164E6D5
:1002800070E080E090E00E945E0010928701089587
:10029000109280008DE08093810082E080936F0057
:1002A0008DE38093890088E08093880010928C0110
:1002B00010928D0110928E0110928F0108952FB728
:1002C000F89460918C0170918D0180918E019091D4
:1002D0008F012FBF08958FB7F89410928C01109260
:1002E0008D0110928E0110928F018FBF08951F9281
:1002F0000F920FB60F9211248F939F93AF93BF93DA
:1003000080918C0190918D01A0918E01B0918F010F
:100310000196A11DB11D80938C0190938D01A09336
:100320008E01B0938F01BF91AF919F918F910F90EC
:100330000FBE0F901F901895219A29980895299A19
:1003400008952998089585B18695817090E0089563
:100350000C9448010F931F930E945F010091940138
:10036000109195012091960130919701600F711FB6
:10037000821F931F1F910F9108959C0160E971E006
:100380000E943607892B79F0C90183709927892B40
:1003900061F4C90164E670E00E9436079C0181E0C7
:1003A000232B21F402C081E0089580E008952F926C
:1003B0003F924F925F926F927F928F929F92AF92F5
:1003C000BF92CF92DF92EF92FF920F931F93CF9342
:1003D000DF93CDB7DEB767970FB6F894DEBF0FBED9
:1003E000CDBF2CE0E4E1F1E0AE014F5F5F4F1A01B9
:1003F000DA0101900D922A95E1F7DC012C91220F90
:100400002056322F330F330F230F11963C91119743
:100410003153230F2D8713962C911397022E000C26
:10042000330B205331096AE0629FA001639F500D96
:1004300011241496CC900C2C000CDD08B0E3CB1AE0
:10044000D108C40ED51E860101501109FC01268178
:10045000022E000C330B20533109E8EEF3E02E9FFF
:10046000A0012F9F500D3E9F500D1124DC011796C7
:100470002C911797022E000C330B2053310974E690
:10048000729F7001739FF00C1124E40EF51E1896F4
:100490004C911897042E000C550B40535109649F42
:1004A0009001659F300D1124E20EF31E19962C91D8
:1004B0001997F701E20FF11D27FDFA95AF0158508A
:1004C0007A011B962C911B97220F2056322F330F47
:1004D000330F230F1C963C911C973053230F298B0D
:1004E0001E962C911E97220F2056322F330F330F5A
:1004F000230F1F963C911F973053230F2A8B519641
:100500002C915197220F2056322F330F330F230F88
:1005100052968C918053280F2B8BCA010E94BD01EB
:10052000882321F05D85523008F08601C70160E91B
:1005300071E00E943607FC01DB0120E839E540E666
:1005400050EF0E949A072B013C01CF0164E670E056
:100550000E943607FC01DB0120E032EC47E15CEB56
:100560000E949A074B015C01DF01B695A795B695ED
:10057000A79520E83FE146E857E00E949A076B0103
:100580007C01DF01A370BB2720E833E341EE51E09B
:100590000E949A076C8B7D8B8E8B9F8BF1018E2F27
:1005A00082199D85891720F48191080F111DF7CFBD
:1005B000A9892A2F30E0A0E1BEE00E948B076D8759
:1005C0007E878F87988BBA892B2F30E0ACE3B0E021
:1005D0000E948B072D853E854F855889260F371F32
:1005E000481F591FDA01C9013B89830F911DA11DC5
:1005F000B11D480E591E6A1E7B1E840C951CA61C3C
:10060000B71CC80CD91CEA1CFB1C8C899D89AE89BF
:10061000BF89C80ED91EEA1EFB1ED80120E831E5AD
:1006200041E050E00E949A07DC01CB018C0D9D1D3A
:10063000AE1DBF1D8093940190939501A0939601E8
:10064000B093970167960FB6F894DEBF0FBECDBF8B
:10065000DF91CF911F910F91FF90EF90DF90CF909E
:10066000BF90AF909F908F907F906F905F904F90D2
:100670003F902F900C946B01EF92FF920F931F937A
:10068000CF93DF93CDB7DEB768970FB6F894DEBF90
:100690000FBECDBF7B012CE0E4E1F1E0DE011D9651
:1006A00001900D922A95E1F78E010F5F1F4F2CE00C
:1006B000F80111922A95E9F70E94BD018A83DE01B3
:1006C0001D9680E0F701408151819D91F8012191B3
:1006D0008F0130E0290F311D4217530740F0421BB4
:1006E000530BF701518340838F5F8C3059F7689625
:1006F0000FB6F894DEBF0FBECDBFDF91CF911F9133
:100700000F91FF90EF9008954F925F926F927F92BA
:100710008F929F92AF92BF92CF92DF92EF92FF9211
:10072000CF93DF9300D0CDB7DEB72B013C0181E042
:1007300090E0A0E0B0E020E8421629E5520620E66D
:10074000620620EF720618F480E090E0DC0120E9F8
:1007500031E0829F5001839FB00C929FB00C112416
:1007600080E3A81A88EFB80AC12CD12C7601C39473
:1007700020E8421629E5520620E6620620EF7206BE
:1007800018F4C12CD12C7601A701960160E879E517
:1007900080E690EF0E94260773016201C61AD70A0D
:1007A000E80AF90A81E090E0A0E0B0E0C11422EC90
:1007B000D20627E1E2062CEBF20618F480E090E086
:1007C000DC0144E6489F9001499F300D1124A20EA0
:1007D000B31E21E030E040E050E0C11482ECD806C6
:1007E00087E1E8068CEBF80618F420E030E0A90178
:1007F00060E072EC87E19CEB0E942607A70196015E
:10080000261B370B480B590BCA01B90120E83FE101
:1008100046E857E00E944A07220F331F220F331F7A
:10082000A20EB31E20E833E341EE51E00E944A07D6
:100830007501E20EF31E20E831E541E050E00E9430
:100840004A074B015C013A832983BE016F5F7F4FEA
:10085000C7010E943C03D82EC501B40120E13EE04F
:1008600040E050E00E944A0729013A014B015C0137
:1008700069E671E080E091E00E949B046D2D70E0DC
:100880006F5F7F4F42E080E091E00E94A5046981A4
:100890007A816F5F7F4F42E083E091E00E94A50480
:1008A00044E0B70186E091E00E94A50442E0B20175
:1008B0008BE091E00E94A504C501B4012CE330E077
:1008C00040E050E00E944A0749015A016B017C0157
:1008D00042E0B4018EE091E00E94A50442E0B6013E
:1008E00081E191E00E94A50480E091E00F900F90DB
:1008F000DF91CF91FF90EF90DF90CF90BF90AF90BE
:100900009F908F907F906F905F904F9008950F937E
:100910001F930E945F010091940110919501209115
:10092000960130919701600F711F821F931F1F91D5
:100930000F910C948403FC01DB018D91BD01882390
:1009400011F08193F9CF108208959F92AF92BF92D8
:10095000CF92DF92EF92FF920F931F93CF93DF938B
:1009600000D000D01F92CDB7DEB7FC016B019E0115
:100970002F5F3F4F8E010A5F1F4FEE24E394F12C4F
:100980009AE0992E9E9C50019F9CB00C1124C601A8
:10099000B5010E943607B7010E943607D9016D9351
:1009A0009D01C61AD10867FDD3947501A017B10740
:1009B00049F760E070E084E090E050E0D8012E91CB
:1009C0008D01211105C06115710511F4009741F4E5
:1009D000841795072CF4205D219361E070E004C03A
:1009E000841795070CF43196019740F70F900F90FC
:1009F0000F900F900F90DF91CF911F910F91FF906B
:100A0000EF90DF90CF90BF90AF909F9008950E949D
:100A1000D105789408950C946906CF93DF93EC0187
:100A20008991882319F00E946906FACFDF91CF914E
:100A30000895CF93C82F90E024E0959587952A9547
:100A4000E1F78A3010F4805D01C0895C0E9469067C
:100A50008C2F8F708A3010F0895C01C0805DCF913F
:100A60000C946906CF93C82F892F0E9419058C2FEB
:100A7000CF910C9419052F923F924F925F926F92F3
:100A80007F928F929F92AF92BF92CF92DF92EF921E
:100A9000FF920F931F93CF93DF93CDB7DEB763978A
:100AA0000FB6F894DEBF0FBECDBF6B017C0197FF80
:100AB0000DC0F094E094D094C094C11CD11CE11CF2
:100AC000F11C81E090E09B8B8A8B02C01B8A1A8A02
:100AD000FE0131965F018E01055F1F4FF98BE88B98
:100AE00066246394712C812C912CAAE0B0E09301D0
:100AF000A4010E949A071B012C01C701B6019101B4
:100B0000A2010E946C079301A4010E946C07E8896E
:100B1000F9892193F98BE88B822F220F990BAA0B6D
:100B2000BB0BC81AD90AEA0AFB0A310142010E17A7
:100B30001F07D9F68A899B89892B11F08DE201C0A4
:100B400080E20E94690620E030E0F80182918F0186
:100B5000811106C02115310519F4EA15FB0529F4A8
:100B6000805D0E94690621E030E00A151B0569F7E7
:100B700063960FB6F894DEBF0FBECDBFDF91CF9165
:100B80001F910F91FF90EF90DF90CF90BF90AF90AB
:100B90009F908F907F906F905F904F903F902F909D
:100BA00008951092C00087E690E09093C50080936E
:100BB000C400E1ECF0E088E1808386E08093C2002D
:100BC0008081806A808308951F920F920FB60F92E2
:100BD00011242F938F939F93EF93FF938091920112
:100BE0002091930190E0821B910901978F739927BF
:100BF000892B79F0E0919301F0E08091C600E856EE
:100C0000FE4F8083809193018F5F8F738093930158
:100C100002C08091C600FF91EF919F918F912F911B
:100C20000F900FBE0F901F9018951F920F920FB646
:100C30000F9211242F938F939F93EF93FF938091A3
:100C400091012091900190E0821B91098F73992767
:100C5000892B79F0E0919001F0E0E852FE4F80811D
:100C60008093C600809190018F5F8F738093900175
:100C700005C08091C1008F7D8093C100FF91EF91ED
:100C80009F918F912F910F900FBE0F901F901895ED
:100C90008091930190919201891B8F7308958091A7
:100CA00093012091920190E0821B91098F73992703
:100CB000892B69F0E0919201F0E0E856FE4F8081C7
:100CC000909192019F5F9F7390939201089580E0AD
:100CD00008950FB607FE0EC02091900190919101EA
:100CE00030E0291B3109215031092F733327232B81
:100CF00099F30DC0209190019091910130E0291B52
:100D00003109215031092F733327232B61F0E091F2
:100D10009101F0E0E852FE4F8083809191018F5F56
:100D20008F73809391018091C10080628093C10094
:100D300008951F93CF93DF93EC0180E011E0180F2B
:100D4000FE01E80FF11D8081882321F00E946906D1
:100D5000812FF4CFDF91CF911F9108951F93CF93EF
:100D6000DF93EC0180E011E0180FFE01E80FF11DA8
:100D70008491882321F00E946906812FF4CFDF91AE
:100D8000CF911F9108950E9407050E949C010E9427
:100D9000A80180E291E00E94BD0088E291E00E94FB
:100DA000D7018CE391E00E940D0564E670E081E0DC
:100DB00090E00E945E00812C912C540181E090E033
:100DC0000E948D00892B31F48FEF881A980AA80AA7
:100DD000B80AF4CF64E670E081E090E00E945E0023
:100DE000C12CD12C760181E090E00E948D00892BEE
:100DF00041F40E94CF008FEFC81AD80AE80AF80A17
:100E0000F2CFC501B4010E943B0584E691E00E9447
:100E10000D05C701B6010E943B0586E691E00E94E0
:100E20000D050E94CF0064EF71E081E090E00E9428
:100E30005E0081E090E00E948D00892BD1F30E943A
:100E400087040E940D0582E691E0E9CFDB018F93D4
:100E50009F930E949A07BF91AF91A29F800D911D11
:100E6000A39F900DB29F900D11240895AA1BBB1B48
:100E700051E107C0AA1FBB1FA617B70710F0A61B9A
:100E8000B70B881F991F5A95A9F780959095BC01BB
:100E9000CD010895A1E21A2EAA1BBB1BFD010DC0B6
:100EA000AA1FBB1FEE1FFF1FA217B307E407F5071A
:100EB00020F0A21BB30BE40BF50B661F771F881FF6
:100EC000991F1A9469F760957095809590959B018C
:100ED000AC01BD01CF010895052E97FB1EF40094CF
:100EE0000E94830757FD07D00E944A0707FC03D0E2
:100EF0004EF40C94830750954095309521953F4FC3
:100F00004F4F5F4F089590958095709561957F4FF5
:100F10008F4F9F4F0895A29FB001B39FC001A39F21
:100F2000700D811D1124911DB29F700D811D112422
:100F3000911D08950E948B07A59F900DB49F900D61
:0E0F4000A49F800D911D11240895F894FFCFF9
:100F4E00030B443100802500002D00040B443000BB
:100F5E00802500002D0002060024F400010C6174AF
:080F6E006D6567613332380044
:100F760030302F30302F303030302030303A303073
:100F86003A3030001F1C1F1E1F1E1F1F1E1F1E1F54
:100F96002D2D2D202D2E2D0030312F30312F32309A
:100FA60031392030303A30303A30300053455234FF
:100FB60038362050726F6A6563742031202D204ABE
:100FC6006F736520536F6C69732053616C617A612E
:100FD600720A0D0020000D0A0030302F30302F30FD
:0E0FE6003030302030303A30303A30300000B9
:00000001FF
