:100000000C9434000C9451000C9451000C94510049
:100010000C9451000C9451000C9451000C9451001C
:100020000C9451000C9451000C9451000C94F40267
:100030000C9451000C9451000C940B010C94510041
:100040000C9451000C9451000C946A070C949B077B
:100050000C9451000C9451000C9451000C945100DC
:100060000C9451000C94510011241FBECFEFD8E026
:10007000DEBFCDBF11E0A0E0B1E0ECEBF1E102C0EA
:1000800005900D92A038B107D9F722E0A0E8B1E0C1
:1000900001C01D92AA31B207E1F70E94FD010C9444
:1000A000C8080C940000CF93DF93CDB7DEB784E48B
:1000B00090E022E0FC01208385E490E023E0FC0155
:1000C00020838EE690E022E0FC01208387E490E02C
:1000D00029EFFC012083109281011092800110927F
:1000E0008301109282011092850110928401109276
:1000F00087011092860181E0809388010000DF91E2
:10010000CF910895CF93DF9300D000D01F92CDB749
:10011000DEB79D838C838FE590E0FC01808189832D
:10012000F8948C819D81880F991F80589E4FFC0107
:10013000808191819B838A838FE590E02981FC01F6
:1001400020838A819B810F900F900F900F900F90CA
:10015000DF91CF910895CF93DF9300D000D01F920D
:10016000CDB7DEB79B838A837D836C8380918801C2
:10017000813011F00E9453008FE590E0FC018081F6
:100180008983F8948A819B81880F991F8C579E4F91
:100190002C813D81FC01318320838A819B81880FE2
:1001A000991F80589E4FFC01118210828FE590E0CC
:1001B0002981FC01208300000F900F900F900F9079
:1001C0000F90DF91CF910895CF93DF9300D01F92CE
:1001D000CDB7DEB79B838A8319828A819B81880F82
:1001E000991F80589E4FFC01208131818A819B811B
:1001F000880F991F8C579E4FFC0180819181281791
:10020000390711F481E0898389810F900F900F9055
:10021000DF91CF9108951F920F9200905F000F928F
:1002200011248F939F93CF93DF93CDB7DEB7809147
:1002300080019091810101969093810180938001CA
:100240008091820190918301019690938301809324
:1002500082010000DF91CF919F918F910F900092CA
:100260005F000F901F901895CF93DF9300D0CDB70C
:10027000DEB79A83898389819A8190938A018093DA
:10028000890110928C0110928B0110928D0160E017
:1002900070E080E090E00E94AB000E942703000025
:1002A0000F900F90DF91CF910895CF93DF93CDB74B
:1002B000DEB78091890190918A01FC0180818823B9
:1002C00009F497C080E090E00E94E400892B09F4D3
:1002D00090C080918D01882F90E0009721F00197C8
:1002E00009F45FC087C02091890130918A01809113
:1002F0008B0190918C01820F931FFC018081082E4D
:10030000000C990B8D32910561F18E329105A9F1A6
:10031000809709F03EC02091890130918A01809137
:100320008B0190918C010196820F931FFC018081BB
:10033000882351F480918B0190918C0101969093C8
:100340008C0180938B0104C010928C0110928B0160
:100350000E94270368EE73E080E090E00E94AB000B
:1003600020C00E9425036EEE72E080E090E00E94C3
:10037000AB0081E080938D0114C00E9425036AEFD9
:1003800070E080E090E00E94AB0081E080938D01FE
:1003900008C00E94270360E070E080E090E00E94C7
:1003A000AB002091890130918A0180918B0190915D
:1003B0008C010196820F931FFC018081882351F0EC
:1003C00080918B0190918C01019690938C01809388
:1003D0008B0104C010928C0110928B010E942703A4
:1003E00064E670E080E090E00E94AB0010928D0126
:1003F00001C00000DF91CF910895CF93DF93CDB777
:10040000DEB728970FB6F894DEBF0FBECDBF0E94AF
:100410008D060E9422030E942E0384E191E00E9437
:1004200034018CE191E00E945D0380E391E00E9441
:10043000930619821A821B821C8264E670E081E0B6
:1004400090E00E94AB000BC089819A81AB81BC8196
:100450000196A11DB11D89839A83AB83BC8381E082
:1004600090E00E94E400892B79F31D821E821F8296
:10047000188664E670E081E090E00E94AB000DC059
:100480000E9455018D819E81AF81B8850196A11D85
:10049000B11D8D839E83AF83B88781E090E00E9479
:1004A000E400892B69F389819A81AB81BC81BC010D
:1004B000CD010E94C10688E591E00E9493068D81DE
:1004C0009E81AF81B885BC01CD010E94C1068AE53D
:1004D00091E00E9493060E94550164EF71E081E073
:1004E00090E00E94AB00000081E090E00E94E400F8
:1004F000892BD1F30E940D060E9493068DE591E0B1
:100500000E949306E8CFCF93DF93CDB7DEB780E8A4
:1005100090E0FC01108281E890E02DE0FC01208356
:100520008FE690E022E0FC01208389E890E02DE353
:10053000FC01208388E890E028E0FC0120831092F1
:100540008E0110928F011092900110929101000083
:10055000DF91CF910895CF93DF9300D000D01F9209
:10056000CDB7DEB78FE590E0FC0180818983F894F8
:1005700080918E0190918F01A0919001B091910195
:100580008A839B83AC83BD838FE590E02981FC0146
:1005900020838A819B81AC81BD81BC01CD010F90FC
:1005A0000F900F900F900F90DF91CF910895CF9300
:1005B000DF931F92CDB7DEB78FE590E0FC0180811D
:1005C0008983F89410928E0110928F0110929001FD
:1005D000109291018FE590E02981FC0120830000B9
:1005E0000F90DF91CF9108951F920F9200905F00BE
:1005F0000F9211248F939F93AF93BF93CF93DF9369
:10060000CDB7DEB780918E0190918F01A0919001BE
:10061000B09191010196A11DB11D80938E0190931F
:100620008F01A0939001B09391010000DF91CF91D1
:10063000BF91AF919F918F910F9000925F000F90AB
:100640001F901895219A29980895299A0895299814
:10065000089585B18695817090E008950C94830289
:100660000F931F930E94AB02009196011091970186
:100670002091980130919901600F711F821F931F83
:100680001F910F9108959C0160E971E00E94590843
:10069000892B79F0C90183709927892B61F4C901ED
:1006A00064E670E00E9459089C0181E0232B21F44C
:1006B00002C081E0089580E008952F923F924F920A
:1006C0005F926F927F928F929F92AF92BF92CF92E2
:1006D000DF92EF92FF920F931F93CF93DF93CDB7EB
:1006E000DEB767970FB6F894DEBF0FBECDBF2CE024
:1006F000EFE5F1E0AE014F5F5F4F1A01DA010190C3
:100700000D922A95E1F7DC012C91220F2056322F11
:10071000330F330F230F11963C9111973153230F51
:100720002D8713962C911397022E000C330B205318
:1007300031096AE0629FA001639F500D1124149655
:10074000CC900C2C000CDD08B0E3CB1AD108C40E01
:10075000D51E860101501109FC012681022E000CD4
:10076000330B20533109E8EEF3E02E9FA0012F9FB9
:10077000500D3E9F500D1124DC0117962C911797B8
:10078000022E000C330B2053310974E6729F700166
:10079000739FF00C1124E40EF51E18964C911897D7
:1007A000042E000C550B40535109649F9001659F26
:1007B000300D1124E20EF31E19962C911997F701B2
:1007C000E20FF11D27FDFA95AF0158507A011B96F3
:1007D0002C911B97220F2056322F330F330F230FEC
:1007E0001C963C911C973053230F298B1E962C91FD
:1007F0001E97220F2056322F330F330F230F1F96D1
:100800003C911F973053230F2A8B51962C9151976F
:10081000220F2056322F330F330F230F52968C9115
:100820008053280F2B8BCA010E944303882321F099
:100830005D85523008F08601C70160E971E00E94D1
:100840005908FC01DB0120E839E540E650EF0E9441
:10085000BD082B013C01CF0164E670E00E945908FD
:10086000FC01DB0120E032EC47E15CEB0E94BD08BB
:100870004B015C01DF01B695A795B695A79520E8D9
:100880003FE146E857E00E94BD086B017C01DF01B3
:10089000A370BB2720E833E341EE51E00E94BD087E
:1008A0006C8B7D8B8E8B9F8BF1018E2F82199D859A
:1008B000891720F48191080F111DF7CFA9892A2FDC
:1008C00030E0A0E1BEE00E94AE086D877E878F8792
:1008D000988BBA892B2F30E0ACE3B0E00E94AE08D1
:1008E0002D853E854F855889260F371F481F591F74
:1008F000DA01C9013B89830F911DA11DB11D480E6D
:10090000591E6A1E7B1E840C951CA61CB71CC80CA5
:10091000D91CEA1CFB1C8C899D89AE89BF89C80E35
:10092000D91EEA1EFB1ED80120E831E541E050E067
:100930000E94BD08DC01CB018C0D9D1DAE1DBF1DAD
:100940008093960190939701A0939801B093990199
:1009500067960FB6F894DEBF0FBECDBFDF91CF9183
:100960001F910F91FF90EF90DF90CF90BF90AF90CD
:100970009F908F907F906F905F904F903F902F90BF
:100980000C94D702EF92FF920F931F93CF93DF93B4
:10099000CDB7DEB768970FB6F894DEBF0FBECDBFF8
:1009A0007B012CE0EFE5F1E0DE011D9601900D9258
:1009B0002A95E1F78E010F5F1F4F2CE0F80111928D
:1009C0002A95E9F70E9443038A83DE011D9680E0A1
:1009D000F701408151819D91F80121918F0130E013
:1009E000290F311D4217530740F0421B530BF701EB
:1009F000518340838F5F8C3059F768960FB6F89417
:100A0000DEBF0FBECDBFDF91CF911F910F91FF9041
:100A1000EF9008954F925F926F927F928F929F9284
:100A2000AF92BF92CF92DF92EF92FF92CF93DF937C
:100A300000D0CDB7DEB72B013C0181E090E0A0E013
:100A4000B0E020E8421629E5520620E6620620EFD3
:100A5000720618F480E090E0DC0120E931E0829F2A
:100A60005001839FB00C929FB00C112480E3A81A10
:100A700088EFB80AC12CD12C7601C39420E8421625
:100A800029E5520620E6620620EF720618F4C12C12
:100A9000D12C7601A701960160E879E580E690EF18
:100AA0000E94490873016201C61AD70AE80AF90AC6
:100AB00081E090E0A0E0B0E0C11422ECD20627E192
:100AC000E2062CEBF20618F480E090E0DC0144E64C
:100AD000489F9001499F300D1124A20EB31E21E0C2
:100AE00030E040E050E0C11482ECD80687E1E8062F
:100AF0008CEBF80618F420E030E0A90160E072EC1D
:100B000087E19CEB0E944908A7019601261B370B41
:100B1000480B590BCA01B90120E83FE146E857E00C
:100B20000E946D08220F331F220F331FA20EB31E27
:100B300020E833E341EE51E00E946D087501E20EBA
:100B4000F31E20E831E541E050E00E946D084B01C2
:100B50005C013A832983BE016F5F7F4FC7010E940A
:100B6000C204D82EC501B40120E13EE040E050E0CF
:100B70000E946D0829013A014B015C016BE671E0AE
:100B800080E091E00E9421066D2D70E06F5F7F4F45
:100B900042E080E091E00E942B0669817A816F5FDC
:100BA0007F4F42E083E091E00E942B0644E0B701D2
:100BB00086E091E00E942B0642E0B2018BE091E0DA
:100BC0000E942B06C501B4012CE330E040E050E068
:100BD0000E946D0849015A016B017C0142E0B40199
:100BE0008EE091E00E942B0642E0B60181E191E0A7
:100BF0000E942B0680E091E00F900F90DF91CF9143
:100C0000FF90EF90DF90CF90BF90AF909F908F902C
:100C10007F906F905F904F9008950F931F930E9465
:100C2000AB020091960110919701209198013091AB
:100C30009901600F711F821F931F1F910F910C94D8
:100C40000A05FC01DB018D91BD01882311F0819320
:100C5000F9CF108208959F92AF92BF92CF92DF9208
:100C6000EF92FF920F931F93CF93DF9300D000D0AA
:100C70001F92CDB7DEB7FC016B019E012F5F3F4F86
:100C80008E010A5F1F4FEE24E394F12C9AE0992E17
:100C90009E9C50019F9CB00C1124C601B5010E947E
:100CA0005908B7010E945908D9016D939D01C61AD0
:100CB000D10867FDD3947501A017B10749F760E02B
:100CC00070E084E090E050E0D8012E918D01211178
:100CD00005C06115710511F4009741F4841795075B
:100CE0002CF4205D219361E070E004C08417950727
:100CF0000CF43196019740F70F900F900F900F90E2
:100D00000F90DF91CF911F910F91FF90EF90DF90A7
:100D1000CF90BF90AF909F9008950E94570778940E
:100D200008950C94EF07CF93DF93EC01899188230A
:100D300019F00E94EF07FACFDF91CF910895CF937A
:100D4000C82F90E024E0959587952A95E1F78A30A1
:100D500010F4805D01C0895C0E94EF078C2F8F70BA
:100D60008A3010F0895C01C0805DCF910C94EF0750
:100D7000CF93C82F892F0E949F068C2FCF910C9460
:100D80009F062F923F924F925F926F927F928F9227
:100D90009F92AF92BF92CF92DF92EF92FF920F930A
:100DA0001F93CF93DF93CDB7DEB763970FB6F89459
:100DB000DEBF0FBECDBF6B017C0197FF0DC0F0946D
:100DC000E094D094C094C11CD11CE11CF11C81E0C2
:100DD00090E09B8B8A8B02C01B8A1A8AFE01319697
:100DE0005F018E01055F1F4FF98BE88B66246394CA
:100DF000712C812C912CAAE0B0E09301A4010E94F7
:100E0000BD081B012C01C701B6019101A2010E947E
:100E10008F089301A4010E948F08E889F989219322
:100E2000F98BE88B822F220F990BAA0BBB0BC81AE8
:100E3000D90AEA0AFB0A310142010E171F07D9F647
:100E40008A899B89892B11F08DE201C080E20E9482
:100E5000EF0720E030E0F80182918F01811106C098
:100E60002115310519F4EA15FB0529F4805D0E946E
:100E7000EF0721E030E00A151B0569F763960FB60E
:100E8000F894DEBF0FBECDBFDF91CF911F910F91C0
:100E9000FF90EF90DF90CF90BF90AF909F908F909A
:100EA0007F906F905F904F903F902F900895109299
:100EB000C00087E690E09093C5008093C400E1EC09
:100EC000F0E088E1808386E08093C2008081806AC0
:100ED000808308951F920F920FB60F9211242F93C3
:100EE0008F939F93EF93FF938091940120919501AD
:100EF00090E0821B910901978F739927892B79F0D4
:100F0000E0919501F0E08091C600E656FE4F8083A7
:100F1000809195018F5F8F738093950102C08091BE
:100F2000C600FF91EF919F918F912F910F900FBE6F
:100F30000F901F9018951F920F920FB60F921124C9
:100F40002F938F939F93EF93FF9380919301209121
:100F5000920190E0821B91098F739927892B79F078
:100F6000E0919201F0E0E652FE4F80818093C6004E
:100F7000809192018F5F8F738093920105C0809161
:100F8000C1008F7D8093C100FF91EF919F918F9160
:100F90002F910F900FBE0F901F9018958091950183
:100FA00090919401891B8F730895809195012091F0
:100FB000940190E0821B91098F739927892B69F026
:100FC000E0919401F0E0E656FE4F8081909194010B
:100FD0009F5F9F7390939401089580E008950FB6EA
:100FE00007FE0EC0209192019091930130E0291BE1
:100FF0003109215031092F733327232B99F30DC069
:10100000209192019091930130E0291B31092150E8
:1010100031092F733327232B61F0E0919301F0E026
:10102000E652FE4F8083809193018F5F8F73809390
:1010300093018091C10080628093C10008951F9345
:10104000CF93DF93EC0180E011E0180FFE01E80F71
:10105000F11D8081882321F00E94EF07812FF4CFBA
:10106000DF91CF911F9108951F93CF93DF93EC01F0
:1010700080E011E0180FFE01E80FF11D8491882334
:1010800021F00E94EF07812FF4CFDF91CF911F91C4
:101090000895DB018F939F930E94BD08BF91AF918C
:1010A000A29F800D911DA39F900DB29F900D1124C2
:1010B0000895AA1BBB1B51E107C0AA1FBB1FA6179F
:1010C000B70710F0A61BB70B881F991F5A95A9F7F1
:1010D00080959095BC01CD010895A1E21A2EAA1B1E
:1010E000BB1BFD010DC0AA1FBB1FEE1FFF1FA217D8
:1010F000B307E407F50720F0A21BB30BE40BF50BD5
:10110000661F771F881F991F1A9469F7609570955D
:10111000809590959B01AC01BD01CF010895052EEE
:1011200097FB1EF400940E94A60857FD07D00E946A
:101130006D0807FC03D04EF40C94A608509540951A
:10114000309521953F4F4F4F5F4F08959095809573
:10115000709561957F4F8F4F9F4F0895A29FB0016B
:10116000B39FC001A39F700D811D1124911DB29FDB
:10117000700D811D1124911D08950E94AE08A59F38
:10118000900DB49F900DA49F800D911D1124089582
:04119000F894FFCF01
:10119400030B443100802500002D00040B44300073
:1011A400802500002D0002060024F400010C617467
:0811B4006D65676133323800FC
:1011BC0030302F30302F303030302030303A30302B
:1011CC003A3030002D2D2D202D2E2D0030312F308A
:1011DC00312F323031392030303A30303A30300023
:1011EC005345523438362050726F6A65637420311F
:1011FC00202D204A6F736520536F6C6973205361E7
:10120C006C617A61720A0D0020000D0A000D001F3E
:10121C001C1F1E1F1E1F1F1E1F1E1F30302F303085
:10122C002F303030302030303A30303A303000000F
:00000001FF
