:100000000C9434000C9451000C9451000C94510049
:100010000C9451000C9451000C9451000C9451001C
:100020000C9451000C9451000C9451000C9429072D
:100030000C9451000C9451000C9409090C9451003B
:100040000C9451000C9451000C94B2090C94E309E7
:100050000C9451000C9451000C94D8000C94510055
:100060000C9451000C94510011241FBECFEFD8E026
:10007000DEBFCDBF11E0A0E0B1E0E0E2F7E102C0F9
:1000800005900D92AA3CB107D9F723E0AAECB1E0A4
:1000900001C01D92A737B207E1F70E94910A0C94A4
:1000A0007A0B0C9400000E94D400892BE1F742E106
:1000B0006AEA72E080E490E00E94B50062E170E0DC
:1000C00080E091E00E941D0142E160E071E080E487
:1000D00090E00E94910042E16AEA72E080E490E0E0
:1000E0000E94B5001092CA0108950E94D400892B85
:1000F00099F48091CA01882379F062E170E08AEA7C
:1001000092E00E941D0142E16AEA72E080E490E020
:100110000E9491001092CA01089581E08093CA0163
:1001200008952091CB012111FCCF9093CD018093B4
:10013000CC0181E08093CB011092CF01FB01A0EDB7
:10014000B1E0842F90E001979D01205D3140281798
:1001500039071CF421912D93F7CF4093CE018FB72F
:1001600080688FBF88E08FBB08952091CB0121115B
:10017000FCCFFB019C0150E0CF01861B970B84173D
:1001800095078CF48FB3C901A4E096958795AA953D
:10019000E1F782BD822F8F7081BDF89A80B581937F
:1001A0002F5F3F4FE9CF08958091CB0190E00895F4
:1001B0001F920F920FB60F9211248F939F93EF937C
:1001C000FF939091CF018091CE01981750F58FB396
:1001D0008091CC019091CD01E4E096958795EA95C8
:1001E000E1F782BD8091CC018F7081BDE091CF019C
:1001F000F0E0E053FE4F808180BD8FB7F894FA9A0B
:10020000F99A8FBF8091CC019091CD010196909386
:10021000CD018093CC018091CF018F5F8093CF017E
:1002200003C0FB981092CB01FF91EF919F918F91AA
:100230000F900FBE0F901F901895FC0120E030E04A
:10024000DB011297AF01481B590B4A175B0720F4DB
:100250004191240F311DF6CF680F791FFB013197B3
:10026000219520830895680F791F20E030E08617DC
:10027000970731F0FC014191CF01240F311DF7CFD9
:1002800081E090E0232B11F080E090E008950E943F
:10029000D400892BE1F747E36CEB72E080E090E05B
:1002A0000E94B50067E370E082E191E00E941D01C9
:1002B00047E362E171E080E090E00E94910047E353
:1002C0006CEB72E080E090E00C94B500909311022A
:1002D00080931002109214021092130210921202D4
:1002E00060E070E080E090E00E9475090C94D70116
:1002F0008091100290911102892B09F452C080E084
:1003000090E00E945C09892B09F44BC08091120295
:10031000811134C02091130230911402E091100237
:10032000F0911102E20FF31F80818032E9F03CF47A
:1003300081111DC0109214021092130208958D3283
:1003400039F08E32A1F40E94D5016AEF70E004C04A
:100350000E94D5016EEE72E080E090E00E94750987
:1003600081E080931202089568EE73E00BC02F5F66
:100370003F4F309314022093130208950E94D70137
:1003800064E670E080E090E00E947509109212022D
:10039000809113029091140201969093140280931D
:1003A00013020895219A29980895299A0895299861
:1003B000089585B18695817090E00895803191050A
:1003C00004F527E0289FA001299F500D1124FA0170
:1003D000E85EFD4F80818132A0F480E090E020E073
:1003E000FA01E80FF91FE85EFD4F3081230F0196F7
:1003F00087309105A9F781E090E0222321F080E089
:10040000089580E090E008956F927F928F929F927E
:10041000AF92BF92CF92DF92EF92FF920F931F9312
:10042000CF93DF930E94D400892BE1F708E812E014
:10043000C0E8D0E0BE0168567E4F47E0CE010E9482
:10044000B500F80111928F012796C03FD10591F7B1
:1004500048E1E42E42E0F42E8701C0E0D0E0D12C48
:10046000B12C77247A94CE010E94DE01892B41F0D1
:10047000F8018081871520F4BC2E782EDD24D394DA
:100480002196095F1F4FC031D10569F7DD2009F4BE
:100490006AC0B092170270921602CB2DD0E08E0186
:1004A0000F5F1F4F872C2FE0A22E37E0932E68019D
:1004B000FFE0CF22DD24C6010E94DE01892B61F41A
:1004C000B09215028E0101501109609780E1A82EAB
:1004D000B12C97E0692E3AC09C9CF0019D9CF00DD8
:1004E0001124E85EFD4F4081242F30E0882D90E0FC
:1004F00001968F7199272817390711F7C0921702B3
:1005000040931602AA940F5F1F4FAA20C9F2842EAF
:10051000CECFF701208130E0872D90E04F968F718C
:1005200099272817390731F5C0921502689CF00108
:10053000699CF00D1124E85EFD4F70800150110997
:10054000F7E0EF0EF11C0C171D07A1F0C801B50173
:100550000E940B0B6C014C019924C4010E94DE0126
:10056000892BB9F607C08FE080931702109216020C
:1005700010921502DF91CF911F910F91FF90EF9094
:10058000DF90CF90BF90AF909F908F907F906F90B3
:100590000895EF92FF921F93CF93DF930E94D400B0
:1005A000892B39F5E8E8F2E0C0E0D0E081918823BA
:1005B000E1F017E01C9FC0011D9F900D11249C01CC
:1005C000285E3D4F790167E070E0C9010E941D017E
:1005D000C19FC001112447E0B70180589F4F0E947E
:1005E0009100C857DD4F188204C02196C031D10553
:1005F000E9F6DF91CF911F91FF90EF900895EF9270
:10060000FF920F931F93CF93DF93E82EC0911702B1
:10061000D0E02196CF70DD278091150290E00E94F6
:10062000DE01F82E809116028F5F813218F48093DC
:10063000160202C01092160287E08C9F80018D9FE7
:10064000100D1124085E1D4F80911602F801808361
:100650000E94CC03F8016183728383839483E582D3
:10066000C093170267E070E0C8010E941D01C857DF
:10067000DD4F81E0888380911702909115028913E4
:1006800008C0FF2031F090E001968F709927809389
:100690001502DF91CF911F910F91FF90EF90089578
:1006A000E8E1F2E0A8E8B2E08FEF4FEF5FEFBA01C8
:1006B00091E08083858341835283638374839D9318
:1006C000379622E0E838F207A1F78FE0809317020F
:1006D000109215021092160208950F931F93CF9354
:1006E000DF9300911502C02F10E0D0E0CE010E94F0
:1006F000DE01892B29F02196CF701F5F0C13F5CFF7
:10070000812FDF91CF911F910F910895AF92BF92EA
:10071000CF92DF92EF92FF920F931F93CF93DF93CD
:100720006B017C018A0159010E946D0390E0A0E0F9
:10073000B0E0C816D906EA06FB06F8F48091150267
:1007400090E0C80ED91E8FE0C822DD2487E08C9D82
:10075000F0018D9DF00D1124E85EFD4F81819281A5
:10076000A381B481E80188839983AA83BB838581AF
:10077000F501808381E090E002C080E090E0DF91AD
:10078000CF911F910F91FF90EF90DF90CF90BF908E
:10079000AF9008950C944E070F931F930E945D072E
:1007A0000091F3021091F4022091F5023091F602CB
:1007B000600F711F821F931F1F910F9108959C015D
:1007C00060E971E00E94F70A892B79F0C901837012
:1007D0009927892B61F4C90164E670E00E94F70A49
:1007E0009C0181E0232B21F402C081E0089580E088
:1007F00008952F923F924F925F926F927F928F92C5
:100800009F92AF92BF92CF92DF92EF92FF920F939F
:100810001F93CF93DF93CDB7DEB767970FB6F894EA
:10082000DEBF0FBECDBF2CE0EDE5F1E0AE014F5FC6
:100830005F4F1A01DA0101900D922A95E1F7DC0170
:100840002C91220F2056322F330F330F230F119686
:100850003C9111973153230F2D8713962C911397A9
:10086000022E000C330B205331096AE0629FA00175
:10087000639F500D11241496CC900C2C000CDD08B5
:10088000B0E3CB1AD108C40ED51E86010150110960
:10089000FC012681022E000C330B20533109E8EEB7
:1008A000F3E02E9FA0012F9F500D3E9F500D11246D
:1008B000DC0117962C911797022E000C330B205356
:1008C000310974E6729F7001739FF00C1124E40EDD
:1008D000F51E18964C911897042E000C550B40539A
:1008E0005109649F9001659F300D1124E20EF31EA3
:1008F00019962C911997F701E20FF11D27FDFA9532
:10090000AF0158507A011B962C911B97220F20564D
:10091000322F330F330F230F1C963C911C9730530B
:10092000230F298B1E962C911E97220F2056322FB3
:10093000330F330F230F1F963C911F973053230F14
:100940002A8B51962C915197220F2056322F330F1C
:10095000330F230F52968C918053280F2B8BCA0193
:100960000E94DF03882321F05D85523008F0860164
:10097000C70160E971E00E94F70AFC01DB0120E891
:1009800039E540E650EF0E946F0B2B013C01CF018F
:1009900064E670E00E94F70AFC01DB0120E032EC23
:1009A00047E15CEB0E946F0B4B015C01DF01B695E8
:1009B000A795B695A79520E83FE146E857E00E9445
:1009C0006F0B6B017C01DF01A370BB2720E833E3D1
:1009D00041EE51E00E946F0B6C8B7D8B8E8B9F8B59
:1009E000F1018E2F82199D85891720F48191080FBE
:1009F000111DF7CFA9892A2F30E0A0E1BEE00E94A7
:100A0000600B6D877E878F87988BBA892B2F30E09C
:100A1000ACE3B0E00E94600B2D853E854F85588980
:100A2000260F371F481F591FDA01C9013B89830F61
:100A3000911DA11DB11D480E591E6A1E7B1E840CFE
:100A4000951CA61CB71CC80CD91CEA1CFB1C8C8965
:100A50009D89AE89BF89C80ED91EEA1EFB1ED8012A
:100A600020E831E541E050E00E946F0BDC01CB0152
:100A70008C0D9D1DAE1DBF1D8093F3029093F4025B
:100A8000A093F502B093F60267960FB6F894DEBF16
:100A90000FBECDBFDF91CF911F910F91FF90EF90CF
:100AA000DF90CF90BF90AF909F908F907F906F908E
:100AB0005F904F903F902F900C946907EF92FF92B8
:100AC0000F931F93CF93DF93CDB7DEB768970FB621
:100AD000F894DEBF0FBECDBF7B012CE0EDE5F1E069
:100AE000DE011D9601900D922A95E1F78E010F5FB0
:100AF0001F4F2CE0F80111922A95E9F70E94DF03BD
:100B00008A83DE011D9680E0F701408151819D912D
:100B1000F80121918F0130E0290F311D4217530751
:100B200040F0421B530BF701518340838F5F8C30A1
:100B300059F768960FB6F894DEBF0FBECDBFDF91B0
:100B4000CF911F910F91FF90EF9008954F925F9278
:100B50006F927F928F929F92AF92BF92CF92DF92CD
:100B6000EF92FF92CF93DF9300D0CDB7DEB72B018A
:100B70003C0181E090E0A0E0B0E020E8421629E5E9
:100B8000520620E6620620EF720618F480E090E03C
:100B9000DC0120E931E0829F5001839FB00C929FDD
:100BA000B00C112480E3A81A88EFB80AC12CD12C0C
:100BB0007601C39420E8421629E5520620E6620633
:100BC00020EF720618F4C12CD12C7601A7019601F2
:100BD00060E879E580E690EF0E94E70A7301620120
:100BE000C61AD70AE80AF90A81E090E0A0E0B0E06E
:100BF000C11422ECD20627E1E2062CEBF20618F42F
:100C000080E090E0DC0144E6489F9001499F300D70
:100C10001124A20EB31E21E030E040E050E0C114E8
:100C200082ECD80687E1E8068CEBF80618F420E0A1
:100C300030E0A90160E072EC87E19CEB0E94E70ADA
:100C4000A7019601261B370B480B590BCA01B901A6
:100C500020E83FE146E857E00E941F0B220F331FB8
:100C6000220F331FA20EB31E20E833E341EE51E002
:100C70000E941F0B7501E20EF31E20E831E541E0F2
:100C800050E00E941F0B4B015C013A832983BE0197
:100C90006F5F7F4FC7010E945E05D82EC501B4016A
:100CA00020E13EE040E050E00E941F0B29013A01A4
:100CB0004B015C0161EB71E089E491E00E94BD06AB
:100CC0006D2D70E06F5F7F4F42E089E491E00E94FC
:100CD000C70669817A816F5F7F4F42E08CE491E0C3
:100CE0000E94C70644E0B7018FE491E00E94C70666
:100CF00042E0B20184E591E00E94C706C501B4015B
:100D00002CE330E040E050E00E941F0B49015A0103
:100D10006B017C0142E0B40187E591E00E94C706C7
:100D200042E0B6018AE591E00E94C70689E491E0BD
:100D30000F900F90DF91CF91FF90EF90DF90CF90C9
:100D4000BF90AF909F908F907F906F905F904F90EB
:100D500008950F931F930E945D070091F302109175
:100D6000F4022091F5023091F602600F711F821F8C
:100D7000931F1F910F910C94A605FC01DB018D912F
:100D8000BD01882311F08193F9CF108208959F92BD
:100D9000AF92BF92CF92DF92EF92FF920F931F9389
:100DA000CF93DF9300D000D01F92CDB7DEB7FC0108
:100DB0006B019E012F5F3F4F8E010A5F1F4FEE2494
:100DC000E394F12C9AE0992E9E9C50019F9CB00CCC
:100DD0001124C601B5010E94F70AB7010E94F70A63
:100DE000D9016D939D01C61AD10867FDD394750191
:100DF000A017B10749F760E070E084E090E050E0B0
:100E0000D8012E918D01211105C06115710511F4D4
:100E1000009741F4841795072CF4205D219361E03D
:100E200070E004C0841795070CF43196019740F7E1
:100E30000F900F900F900F900F90DF91CF911F9117
:100E40000F91FF90EF90DF90CF90BF90AF909F9069
:100E500008951F920F920FB60F9211248F939F93B4
:100E6000AF93BF938091980290919902A0919A02BA
:100E7000B0919B020196A11DB11D809398029093A1
:100E80009902A0939A02B0939B02BF91AF919F9158
:100E90008F910F900FBE0F901F90189583E294EFE3
:100EA0009093890080938800109280008CE080935A
:100EB000810082E080936F0008952FB7F8946091CD
:100EC00098027091990280919A0290919B022FBF93
:100ED00008958FB7F8941092980210929902109288
:100EE0009A0210929B028FBF08950E949F097894E6
:100EF00008950C94370ACF93DF93EC0189918823EE
:100F000019F00E94370AFACFDF91CF910895CF935D
:100F1000C82F90E024E0959587952A95E1F78A30CF
:100F200010F4805D01C0895C0E94370A8C2F8F709D
:100F30008A3010F0895C01C0805DCF910C94370A33
:100F4000CF93C82F892F0E9487078C2FCF910C94A5
:100F500087072F923F924F925F926F927F928F926C
:100F60009F92AF92BF92CF92DF92EF92FF920F9338
:100F70001F93CF93DF93CDB7DEB763970FB6F89487
:100F8000DEBF0FBECDBF6B017C0197FF0DC0F0949B
:100F9000E094D094C094C11CD11CE11CF11C81E0F0
:100FA00090E09B8B8A8B02C01B8A1A8AFE013196C5
:100FB0005F018E01055F1F4FF98BE88B66246394F8
:100FC000712C812C912CAAE0B0E09301A4010E9425
:100FD0006F0B1B012C01C701B6019101A2010E94F8
:100FE000410B9301A4010E94410BE889F9892193E7
:100FF000F98BE88B822F220F990BAA0BBB0BC81A17
:10100000D90AEA0AFB0A310142010E171F07D9F675
:101010008A899B89892B11F08DE201C080E20E94B0
:10102000370A20E030E0F80182918F01811106C07B
:101030002115310519F4EA15FB0529F4805D0E949C
:10104000370A21E030E00A151B0569F763960FB6F1
:10105000F894DEBF0FBECDBFDF91CF911F910F91EE
:10106000FF90EF90DF90CF90BF90AF909F908F90C8
:101070007F906F905F904F903F902F9008952F92A8
:101080003F924F925F926F927F928F929F92AF9218
:10109000BF92CF92DF92EF92FF920F931F93CF9365
:1010A000DF93CDB7DEB764970FB6F894DEBF0FBEFF
:1010B000CDBF8C016115710509F492C0812C912C72
:1010C0005401CB01A0E0B0E0898B9A8BAB8BBC8B39
:1010D000DE0111961D0189899A89AB89BC89881620
:1010E0009906AA06BB0608F07BC0812F0E948707DD
:1010F000802F807F0E94870780E20E94790761012C
:101100007801412C512C320141E0B601C7010E9407
:10111000B500BFEFEB1AFB0AEFEF4E1A5E0A6E0A3C
:101120007E0AFFEF8F1A9F0AAF0ABF0A89899A8940
:10113000AB89BC8988169906AA06BB0650F06801DF
:101140009FE0C922DD2400E010E032016C0C7D1C20
:1011500009C0AFEFCA1ADA0AC7018F709927892B25
:1011600099F6EDCF0C151D0518F00615170528F09A
:1011700085EC91E00E947B070BC0F801EC19FD099A
:10118000E20DF31D80810E94870780E20E947907AB
:101190000F5F1F4F0031110529F700E010E0C01666
:1011A000D10631F080E20E9479070F5F1F4FF7CF21
:1011B0008101C801821993098415950558F4F80135
:1011C00081918F0190EE980F903608F08EE20E9488
:1011D0007907EFCF8EEA91E00E947B0787017BCFF2
:1011E00064960FB6F894DEBF0FBECDBFDF91CF91EE
:1011F0001F910F91FF90EF90DF90CF90BF90AF9035
:101200009F908F907F906F905F904F903F902F9026
:1012100008951F920F920FB60F9211242F933F93B0
:101220008F939F932091A2023091A30280919E02FE
:1012300090919F022817390749F08091A20290915E
:10124000A30201969093A3028093A2022091A4028C
:101250003091A5028091A0029091A1022817390730
:1012600049F08091A4029091A50201969093A50265
:101270008093A4029F918F913F912F910F900FBE69
:101280000F901F90189589EF87BD82E084BD93E091
:1012900095BD80936E0008958230910550F4F894C6
:1012A000880F991FFC01EE55FD4F80819181789444
:1012B000089580E090E008958230910598F4880FB9
:1012C000991FFC01EE55FD4F20813181FC01E25652
:1012D000FD4F81E090E0408151814217530721F09A
:1012E00080E0089580E090E008950F931F93CF93DE
:1012F000DF93EC018B0180919C0290919D02892BE0
:1013000041F40E94430981E090E090939D02809314
:101310009C02C230D10570F48FB7F894CC0FDD1F5A
:10132000FE01E256FD4F11830083CE55DD4F198239
:1013300018828FBFDF91CF911F910F910895109266
:10134000C00087E690E09093C5008093C400E1EC74
:10135000F0E088E1808386E08093C2008081806A2B
:10136000808308951F920F920FB60F9211242F932E
:101370008F939F93EF93FF938091A8022091A902EE
:1013800090E0821B910901978F739927892B79F03F
:10139000E091A902F0E08091C600E950FD4F808302
:1013A0008091A9028F5F8F738093A90202C0809100
:1013B000C600FF91EF919F918F912F910F900FBEDB
:1013C0000F901F9018951F920F920FB60F92112435
:1013D0002F938F939F93EF93FF938091A702209178
:1013E000A60290E0821B91098F739927892B79F0CF
:1013F000E091A602F0E0E95CFC4F80818093C6009A
:101400008091A6028F5F8F738093A60205C08091A2
:10141000C1008F7D8093C100FF91EF919F918F91CB
:101420002F910F900FBE0F901F9018958091A902D9
:101430009091A802891B8F7308958091A902209131
:10144000A80290E0821B91098F739927892B69F07C
:10145000E091A802F0E0E950FD4F80819091A80250
:101460009F5F9F739093A802089580E008950FB640
:1014700007FE0EC02091A6029091A70230E0291B22
:101480003109215031092F733327232B99F30DC0D4
:101490002091A6029091A70230E0291B310921502A
:1014A00031092F733327232B61F0E091A702F0E07D
:1014B000E95CFC4F80838091A7028F5F8F738093DC
:1014C000A7028091C10080628093C10008951F939C
:1014D000CF93DF93EC0180E011E0180FFE01E80FDD
:1014E000F11D8081882321F00E94370A812FF4CFDB
:1014F000DF91CF911F9108951F93CF93DF93EC015C
:1015000080E011E0180FFE01E80FF11D849188239F
:1015100021F00E94370A812FF4CFDF91CF911F91E4
:1015200008950E9475070E9453000E94D2010E94F4
:1015300004020E94CA030E94470189E691E00E94CA
:10154000660181E791E00E94F90385E891E00E943D
:101550007B0780EC92E00E947B078EEA91E00E947C
:101560007B078CEC92E00E947B078EEA91E00E9460
:101570007B078CEB92E00E947B078EEA91E00E9451
:101580007B0781E08093B6020E948D000E94500389
:101590008AEA0E94FF028BEB0E94FF028CEC0E9401
:1015A000FF02C0E00E9478010E94C9020E947500FB
:1015B0000E94D400892BB1F7CC2311F0C1E0F2CF07
:1015C00060E071E080E090E00E943F08F7CFDB012F
:1015D0008F939F930E946F0BBF91AF91A29F800D3D
:1015E000911DA39F900DB29F900D11240895AA1BE9
:1015F000BB1B51E107C0AA1FBB1FA617B70710F0FE
:10160000A61BB70B881F991F5A95A9F7809590952F
:10161000BC01CD01089597FB072E16F4009407D066
:1016200077FD09D00E94F70A07FC05D03EF490959B
:1016300081959F4F0895709561957F4F0895A1E220
:101640001A2EAA1BBB1BFD010DC0AA1FBB1FEE1F3C
:10165000FF1FA217B307E407F50720F0A21BB30B87
:10166000E40BF50B661F771F881F991F1A9469F703
:1016700060957095809590959B01AC01BD01CF015F
:101680000895052E97FB1EF400940E94580B57FDF9
:1016900007D00E941F0B07FC03D04EF40C94580B8C
:1016A00050954095309521953F4F4F4F5F4F08958E
:1016B00090958095709561957F4F8F4F9F4F0895BE
:1016C000A29FB001B39FC001A39F700D811D112483
:1016D000911DB29F700D811D1124911D08950E94CE
:1016E000600BA59F900DB49F900DA49F800D911D40
:0816F00011240895F894FFCFC6
:1016F800030B443100802500002D00040B4430000A
:10170800802500002D0002060024F400010C6174FD
:081718006D6567613332380092
:1017200041535500FF03FE030000010000C0A80163
:101730006400534552004A6F7365000000000000CA
:101740000000536F6C6973000000000000004172DC
:10175000697A6F6E610000000000000000006A6F8F
:1017600073736F6C555341000030302F30302F3081
:101770003030302030303A30303A3030001F1C1FCB
:101780001E1F1E1F1F1E1F1E1F2D2D2D202D2E2D17
:101790000030312F30312F323031392030303A3073
:1017A000303A303000534552203438362050726F72
:1017B0006A6563742032202D204A6F736520536F51
:1017C0006C69732053616C617A61720A0D000D0AB5
:1017D0000030302F30302F303030302030303A3041
:0A17E000303A3030002020200000D5
:00000001FF
